{
  "abi": [
    {
      "inputs": [
        {
          "internalType": "address",
          "name": "",
          "type": "address"
        }
      ],
      "name": "isGuard",
      "outputs": [
        {
          "internalType": "bool",
          "name": "",
          "type": "bool"
        }
      ],
      "stateMutability": "view",
      "type": "function"
    },
    {
      "inputs": [],
      "name": "newGuard",
      "outputs": [
        {
          "internalType": "contract DSGuard",
          "name": "guard",
          "type": "address"
        }
      ],
      "stateMutability": "nonpayable",
      "type": "function"
    }
  ],
  "bytecode": {
    "object": "0x608060405234801561001057600080fd5b50610a81806100206000396000f3fe608060405234801561001057600080fd5b50600436106100365760003560e01c8063489c12021461003b57806365688cc914610073575b600080fd5b61005e61004936600461014d565b60006020819052908152604090205460ff1681565b60405190151581526020015b60405180910390f35b61007b610093565b6040516001600160a01b03909116815260200161006a565b60006040516100a190610140565b604051809103906000f0801580156100bd573d6000803e3d6000fd5b506040516313af403560e01b81523360048201529091506001600160a01b038216906313af403590602401600060405180830381600087803b15801561010257600080fd5b505af1158015610116573d6000803e3d6000fd5b5050506001600160a01b0382166000908152602081905260409020805460ff191660011790555090565b6108ce8061017e83390190565b60006020828403121561015f57600080fd5b81356001600160a01b038116811461017657600080fd5b939250505056fe608060405234801561001057600080fd5b50600180546001600160a01b031916339081179091556040517fce241d7ca1f669fee44b6fc00b8eba2df3bb514eed0f6f668f8f89096e81ed9490600090a26108708061005e6000396000f3fe608060405234801561001057600080fd5b506004361061009e5760003560e01c8063a8542f6611610066578063a8542f6614610121578063b700961314610138578063bf7e214f1461015b578063cbeea68c1461016e578063f0217ce51461018157600080fd5b806313af4035146100a35780632bc3217d146100b857806379d88d87146100cb5780637a9e5e4b146100de5780638da5cb5b146100f1575b600080fd5b6100b66100b1366004610701565b610194565b005b6100b66100c6366004610725565b610219565b6100b66100d9366004610766565b610243565b6100b66100ec366004610701565b6102ce565b600154610104906001600160a01b031681565b6040516001600160a01b0390911681526020015b60405180910390f35b61012a60001981565b604051908152602001610118565b61014b610146366004610792565b610348565b6040519015158152602001610118565b600054610104906001600160a01b031681565b6100b661017c366004610725565b61055d565b6100b661018f366004610766565b61057e565b6101aa336000356001600160e01b03191661060c565b6101cf5760405162461bcd60e51b81526004016101c6906107ea565b60405180910390fd5b600180546001600160a01b0319166001600160a01b0383169081179091556040517fce241d7ca1f669fee44b6fc00b8eba2df3bb514eed0f6f668f8f89096e81ed9490600090a250565b61023e8360601b6001600160601b0319168360601b6001600160601b03191683610243565b505050565b610259336000356001600160e01b03191661060c565b6102755760405162461bcd60e51b81526004016101c6906107ea565b60008381526002602090815260408083208584528252808320848452909152808220805460ff19169055518291849186917f95ba64c95d85e67ac83a0476c4a62ac2cf8ab2d0407545b8c9d79c3eefa6282991a4505050565b6102e4336000356001600160e01b03191661060c565b6103005760405162461bcd60e51b81526004016101c6906107ea565b600080546001600160a01b0319166001600160a01b038316908117825560405190917f1abebea81bfa2637f28358c371278fb15ede7ea8dd28d2e03b112ff6d936ada491a250565b6bffffffffffffffffffffffff19606084811b821660008181526002602090815260408083209488901b9095168083529381528482206001600160e01b03198716835290529283205490919060ff16806103c5575060008281526002602090815260408083208484528252808320600019845290915290205460ff165b806103fd57506000828152600260209081526040808320600019845282528083206001600160e01b03198816845290915290205460ff165b80610428575060008281526002602090815260408083206000198452825280832090915290205460ff165b80610475575060008181527f38b5b2ceac7637132d27514ffcf440b705287635075af7b8bd5adcaa6a4cc5bb602090815260408083206001600160e01b03198816845290915290205460ff165b806104ba575060008181527f38b5b2ceac7637132d27514ffcf440b705287635075af7b8bd5adcaa6a4cc5bb60209081526040808320600019845290915290205460ff165b806104fd57506001600160e01b0319841660009081527f47fa60fbc027ac3984ea309688a33182f4193c478b40ba8d294eb2cd3ddc4d97602052604090205460ff165b8061055357506000196000527f47fa60fbc027ac3984ea309688a33182f4193c478b40ba8d294eb2cd3ddc4d976020527ff423d1317b37667cd26005728bffa7c8b0499e133951fcf8e814d4fc5f4c98f65460ff165b9695505050505050565b61023e8360601b6001600160601b0319168360601b6001600160601b031916835b610594336000356001600160e01b03191661060c565b6105b05760405162461bcd60e51b81526004016101c6906107ea565b60008381526002602090815260408083208584528252808320848452909152808220805460ff19166001179055518291849186917f6f50375045128971c5469d343039ba7b8e30a5b190453737b28bda6f7a30677191a4505050565b6000306001600160a01b03841603610626575060016106e3565b6001546001600160a01b0390811690841603610644575060016106e3565b6000546001600160a01b031661065c575060006106e3565b60005460405163b700961360e01b81526001600160a01b0385811660048301523060248301526001600160e01b0319851660448301529091169063b700961390606401602060405180830381865afa1580156106bc573d6000803e3d6000fd5b505050506040513d601f19601f820116820180604052508101906106e09190610818565b90505b92915050565b6001600160a01b03811681146106fe57600080fd5b50565b60006020828403121561071357600080fd5b813561071e816106e9565b9392505050565b60008060006060848603121561073a57600080fd5b8335610745816106e9565b92506020840135610755816106e9565b929592945050506040919091013590565b60008060006060848603121561077b57600080fd5b505081359360208301359350604090920135919050565b6000806000606084860312156107a757600080fd5b83356107b2816106e9565b925060208401356107c2816106e9565b915060408401356001600160e01b0319811681146107df57600080fd5b809150509250925092565b602080825260149082015273191ccb585d5d1a0b5d5b985d5d1a1bdc9a5e995960621b604082015260600190565b60006020828403121561082a57600080fd5b8151801515811461071e57600080fdfea2646970667358221220d3c2cd9970154cfd0008c8bdb996f0bea4dabfac9d832a2161183b7f428ccb3764736f6c63430008140033a26469706673582212203bad31272bef6b28dc98f0bac220d9b89cb07f38b6ab82d5f187c7d271396bbc64736f6c63430008140033",
    "linkReferences": {}
  },
  "methodIdentifiers": {
    "isGuard(address)": "489c1202",
    "newGuard()": "65688cc9"
  },
  "id": 2
}