{
  "abi": [
    {
      "inputs": [
        {
          "internalType": "contract DSToken",
          "name": "sai_",
          "type": "address"
        },
        {
          "internalType": "contract DSToken",
          "name": "sin_",
          "type": "address"
        },
        {
          "internalType": "contract DSToken",
          "name": "skr_",
          "type": "address"
        },
        {
          "internalType": "contract ERC20",
          "name": "gem_",
          "type": "address"
        },
        {
          "internalType": "contract DSToken",
          "name": "gov_",
          "type": "address"
        },
        {
          "internalType": "contract DSValue",
          "name": "pip_",
          "type": "address"
        },
        {
          "internalType": "contract DSValue",
          "name": "pep_",
          "type": "address"
        },
        {
          "internalType": "contract SaiVox",
          "name": "vox_",
          "type": "address"
        },
        {
          "internalType": "contract GemPit",
          "name": "pit_",
          "type": "address"
        }
      ],
      "stateMutability": "nonpayable",
      "type": "constructor"
    },
    {
      "anonymous": false,
      "inputs": [
        {
          "indexed": true,
          "internalType": "address",
          "name": "lad",
          "type": "address"
        },
        {
          "indexed": false,
          "internalType": "bytes32",
          "name": "cup",
          "type": "bytes32"
        }
      ],
      "name": "LogNewCup",
      "type": "event"
    },
    {
      "anonymous": true,
      "inputs": [
        {
          "indexed": true,
          "internalType": "bytes4",
          "name": "sig",
          "type": "bytes4"
        },
        {
          "indexed": true,
          "internalType": "address",
          "name": "guy",
          "type": "address"
        },
        {
          "indexed": true,
          "internalType": "bytes32",
          "name": "foo",
          "type": "bytes32"
        },
        {
          "indexed": true,
          "internalType": "bytes32",
          "name": "bar",
          "type": "bytes32"
        },
        {
          "indexed": false,
          "internalType": "bytes",
          "name": "fax",
          "type": "bytes"
        }
      ],
      "name": "LogNote",
      "type": "event"
    },
    {
      "anonymous": false,
      "inputs": [
        {
          "indexed": true,
          "internalType": "address",
          "name": "authority",
          "type": "address"
        }
      ],
      "name": "LogSetAuthority",
      "type": "event"
    },
    {
      "anonymous": false,
      "inputs": [
        {
          "indexed": true,
          "internalType": "address",
          "name": "owner",
          "type": "address"
        }
      ],
      "name": "LogSetOwner",
      "type": "event"
    },
    {
      "inputs": [],
      "name": "air",
      "outputs": [
        {
          "internalType": "uint256",
          "name": "",
          "type": "uint256"
        }
      ],
      "stateMutability": "view",
      "type": "function"
    },
    {
      "inputs": [
        {
          "internalType": "uint256",
          "name": "wad",
          "type": "uint256"
        }
      ],
      "name": "ask",
      "outputs": [
        {
          "internalType": "uint256",
          "name": "",
          "type": "uint256"
        }
      ],
      "stateMutability": "view",
      "type": "function"
    },
    {
      "inputs": [],
      "name": "authority",
      "outputs": [
        {
          "internalType": "contract DSAuthority",
          "name": "",
          "type": "address"
        }
      ],
      "stateMutability": "view",
      "type": "function"
    },
    {
      "inputs": [],
      "name": "axe",
      "outputs": [
        {
          "internalType": "uint256",
          "name": "",
          "type": "uint256"
        }
      ],
      "stateMutability": "view",
      "type": "function"
    },
    {
      "inputs": [
        {
          "internalType": "uint256",
          "name": "wad",
          "type": "uint256"
        }
      ],
      "name": "bid",
      "outputs": [
        {
          "internalType": "uint256",
          "name": "",
          "type": "uint256"
        }
      ],
      "stateMutability": "view",
      "type": "function"
    },
    {
      "inputs": [
        {
          "internalType": "bytes32",
          "name": "cup",
          "type": "bytes32"
        }
      ],
      "name": "bite",
      "outputs": [],
      "stateMutability": "nonpayable",
      "type": "function"
    },
    {
      "inputs": [
        {
          "internalType": "uint256",
          "name": "fit_",
          "type": "uint256"
        },
        {
          "internalType": "uint256",
          "name": "jam",
          "type": "uint256"
        }
      ],
      "name": "cage",
      "outputs": [],
      "stateMutability": "nonpayable",
      "type": "function"
    },
    {
      "inputs": [],
      "name": "cap",
      "outputs": [
        {
          "internalType": "uint256",
          "name": "",
          "type": "uint256"
        }
      ],
      "stateMutability": "view",
      "type": "function"
    },
    {
      "inputs": [],
      "name": "chi",
      "outputs": [
        {
          "internalType": "uint256",
          "name": "",
          "type": "uint256"
        }
      ],
      "stateMutability": "nonpayable",
      "type": "function"
    },
    {
      "inputs": [],
      "name": "cupi",
      "outputs": [
        {
          "internalType": "uint256",
          "name": "",
          "type": "uint256"
        }
      ],
      "stateMutability": "view",
      "type": "function"
    },
    {
      "inputs": [
        {
          "internalType": "bytes32",
          "name": "",
          "type": "bytes32"
        }
      ],
      "name": "cups",
      "outputs": [
        {
          "internalType": "address",
          "name": "lad",
          "type": "address"
        },
        {
          "internalType": "uint256",
          "name": "ink",
          "type": "uint256"
        },
        {
          "internalType": "uint256",
          "name": "art",
          "type": "uint256"
        },
        {
          "internalType": "uint256",
          "name": "ire",
          "type": "uint256"
        }
      ],
      "stateMutability": "view",
      "type": "function"
    },
    {
      "inputs": [],
      "name": "din",
      "outputs": [
        {
          "internalType": "uint256",
          "name": "",
          "type": "uint256"
        }
      ],
      "stateMutability": "nonpayable",
      "type": "function"
    },
    {
      "inputs": [
        {
          "internalType": "bytes32",
          "name": "cup",
          "type": "bytes32"
        },
        {
          "internalType": "uint256",
          "name": "wad",
          "type": "uint256"
        }
      ],
      "name": "draw",
      "outputs": [],
      "stateMutability": "nonpayable",
      "type": "function"
    },
    {
      "inputs": [],
      "name": "drip",
      "outputs": [],
      "stateMutability": "nonpayable",
      "type": "function"
    },
    {
      "inputs": [],
      "name": "era",
      "outputs": [
        {
          "internalType": "uint256",
          "name": "",
          "type": "uint256"
        }
      ],
      "stateMutability": "view",
      "type": "function"
    },
    {
      "inputs": [
        {
          "internalType": "uint256",
          "name": "wad",
          "type": "uint256"
        }
      ],
      "name": "exit",
      "outputs": [],
      "stateMutability": "nonpayable",
      "type": "function"
    },
    {
      "inputs": [],
      "name": "fee",
      "outputs": [
        {
          "internalType": "uint256",
          "name": "",
          "type": "uint256"
        }
      ],
      "stateMutability": "view",
      "type": "function"
    },
    {
      "inputs": [],
      "name": "fit",
      "outputs": [
        {
          "internalType": "uint256",
          "name": "",
          "type": "uint256"
        }
      ],
      "stateMutability": "view",
      "type": "function"
    },
    {
      "inputs": [],
      "name": "flow",
      "outputs": [],
      "stateMutability": "nonpayable",
      "type": "function"
    },
    {
      "inputs": [
        {
          "internalType": "bytes32",
          "name": "cup",
          "type": "bytes32"
        },
        {
          "internalType": "uint256",
          "name": "wad",
          "type": "uint256"
        }
      ],
      "name": "free",
      "outputs": [],
      "stateMutability": "nonpayable",
      "type": "function"
    },
    {
      "inputs": [],
      "name": "gap",
      "outputs": [
        {
          "internalType": "uint256",
          "name": "",
          "type": "uint256"
        }
      ],
      "stateMutability": "view",
      "type": "function"
    },
    {
      "inputs": [],
      "name": "gem",
      "outputs": [
        {
          "internalType": "contract ERC20",
          "name": "",
          "type": "address"
        }
      ],
      "stateMutability": "view",
      "type": "function"
    },
    {
      "inputs": [
        {
          "internalType": "bytes32",
          "name": "cup",
          "type": "bytes32"
        },
        {
          "internalType": "address",
          "name": "guy",
          "type": "address"
        }
      ],
      "name": "give",
      "outputs": [],
      "stateMutability": "nonpayable",
      "type": "function"
    },
    {
      "inputs": [],
      "name": "gov",
      "outputs": [
        {
          "internalType": "contract DSToken",
          "name": "",
          "type": "address"
        }
      ],
      "stateMutability": "view",
      "type": "function"
    },
    {
      "inputs": [
        {
          "internalType": "bytes32",
          "name": "cup",
          "type": "bytes32"
        }
      ],
      "name": "ink",
      "outputs": [
        {
          "internalType": "uint256",
          "name": "",
          "type": "uint256"
        }
      ],
      "stateMutability": "view",
      "type": "function"
    },
    {
      "inputs": [
        {
          "internalType": "uint256",
          "name": "wad",
          "type": "uint256"
        }
      ],
      "name": "join",
      "outputs": [],
      "stateMutability": "nonpayable",
      "type": "function"
    },
    {
      "inputs": [
        {
          "internalType": "bytes32",
          "name": "cup",
          "type": "bytes32"
        }
      ],
      "name": "lad",
      "outputs": [
        {
          "internalType": "address",
          "name": "",
          "type": "address"
        }
      ],
      "stateMutability": "view",
      "type": "function"
    },
    {
      "inputs": [
        {
          "internalType": "bytes32",
          "name": "cup",
          "type": "bytes32"
        },
        {
          "internalType": "uint256",
          "name": "wad",
          "type": "uint256"
        }
      ],
      "name": "lock",
      "outputs": [],
      "stateMutability": "nonpayable",
      "type": "function"
    },
    {
      "inputs": [],
      "name": "mat",
      "outputs": [
        {
          "internalType": "uint256",
          "name": "",
          "type": "uint256"
        }
      ],
      "stateMutability": "view",
      "type": "function"
    },
    {
      "inputs": [
        {
          "internalType": "bytes32",
          "name": "param",
          "type": "bytes32"
        },
        {
          "internalType": "uint256",
          "name": "val",
          "type": "uint256"
        }
      ],
      "name": "mold",
      "outputs": [],
      "stateMutability": "nonpayable",
      "type": "function"
    },
    {
      "inputs": [],
      "name": "off",
      "outputs": [
        {
          "internalType": "bool",
          "name": "",
          "type": "bool"
        }
      ],
      "stateMutability": "view",
      "type": "function"
    },
    {
      "inputs": [],
      "name": "open",
      "outputs": [
        {
          "internalType": "bytes32",
          "name": "cup",
          "type": "bytes32"
        }
      ],
      "stateMutability": "nonpayable",
      "type": "function"
    },
    {
      "inputs": [],
      "name": "out",
      "outputs": [
        {
          "internalType": "bool",
          "name": "",
          "type": "bool"
        }
      ],
      "stateMutability": "view",
      "type": "function"
    },
    {
      "inputs": [],
      "name": "owner",
      "outputs": [
        {
          "internalType": "address",
          "name": "",
          "type": "address"
        }
      ],
      "stateMutability": "view",
      "type": "function"
    },
    {
      "inputs": [],
      "name": "pep",
      "outputs": [
        {
          "internalType": "contract DSValue",
          "name": "",
          "type": "address"
        }
      ],
      "stateMutability": "view",
      "type": "function"
    },
    {
      "inputs": [],
      "name": "per",
      "outputs": [
        {
          "internalType": "uint256",
          "name": "ray",
          "type": "uint256"
        }
      ],
      "stateMutability": "view",
      "type": "function"
    },
    {
      "inputs": [],
      "name": "pie",
      "outputs": [
        {
          "internalType": "uint256",
          "name": "",
          "type": "uint256"
        }
      ],
      "stateMutability": "view",
      "type": "function"
    },
    {
      "inputs": [],
      "name": "pip",
      "outputs": [
        {
          "internalType": "contract DSValue",
          "name": "",
          "type": "address"
        }
      ],
      "stateMutability": "view",
      "type": "function"
    },
    {
      "inputs": [],
      "name": "pit",
      "outputs": [
        {
          "internalType": "contract GemPit",
          "name": "",
          "type": "address"
        }
      ],
      "stateMutability": "view",
      "type": "function"
    },
    {
      "inputs": [
        {
          "internalType": "bytes32",
          "name": "cup",
          "type": "bytes32"
        }
      ],
      "name": "rap",
      "outputs": [
        {
          "internalType": "uint256",
          "name": "",
          "type": "uint256"
        }
      ],
      "stateMutability": "nonpayable",
      "type": "function"
    },
    {
      "inputs": [],
      "name": "rhi",
      "outputs": [
        {
          "internalType": "uint256",
          "name": "",
          "type": "uint256"
        }
      ],
      "stateMutability": "nonpayable",
      "type": "function"
    },
    {
      "inputs": [],
      "name": "rho",
      "outputs": [
        {
          "internalType": "uint256",
          "name": "",
          "type": "uint256"
        }
      ],
      "stateMutability": "view",
      "type": "function"
    },
    {
      "inputs": [],
      "name": "rum",
      "outputs": [
        {
          "internalType": "uint256",
          "name": "",
          "type": "uint256"
        }
      ],
      "stateMutability": "view",
      "type": "function"
    },
    {
      "inputs": [
        {
          "internalType": "bytes32",
          "name": "cup",
          "type": "bytes32"
        }
      ],
      "name": "safe",
      "outputs": [
        {
          "internalType": "bool",
          "name": "",
          "type": "bool"
        }
      ],
      "stateMutability": "nonpayable",
      "type": "function"
    },
    {
      "inputs": [],
      "name": "sai",
      "outputs": [
        {
          "internalType": "contract DSToken",
          "name": "",
          "type": "address"
        }
      ],
      "stateMutability": "view",
      "type": "function"
    },
    {
      "inputs": [
        {
          "internalType": "contract DSAuthority",
          "name": "authority_",
          "type": "address"
        }
      ],
      "name": "setAuthority",
      "outputs": [],
      "stateMutability": "nonpayable",
      "type": "function"
    },
    {
      "inputs": [
        {
          "internalType": "address",
          "name": "owner_",
          "type": "address"
        }
      ],
      "name": "setOwner",
      "outputs": [],
      "stateMutability": "nonpayable",
      "type": "function"
    },
    {
      "inputs": [
        {
          "internalType": "contract DSValue",
          "name": "pep_",
          "type": "address"
        }
      ],
      "name": "setPep",
      "outputs": [],
      "stateMutability": "nonpayable",
      "type": "function"
    },
    {
      "inputs": [
        {
          "internalType": "contract DSValue",
          "name": "pip_",
          "type": "address"
        }
      ],
      "name": "setPip",
      "outputs": [],
      "stateMutability": "nonpayable",
      "type": "function"
    },
    {
      "inputs": [
        {
          "internalType": "contract SaiVox",
          "name": "vox_",
          "type": "address"
        }
      ],
      "name": "setVox",
      "outputs": [],
      "stateMutability": "nonpayable",
      "type": "function"
    },
    {
      "inputs": [
        {
          "internalType": "bytes32",
          "name": "cup",
          "type": "bytes32"
        }
      ],
      "name": "shut",
      "outputs": [],
      "stateMutability": "nonpayable",
      "type": "function"
    },
    {
      "inputs": [],
      "name": "sin",
      "outputs": [
        {
          "internalType": "contract DSToken",
          "name": "",
          "type": "address"
        }
      ],
      "stateMutability": "view",
      "type": "function"
    },
    {
      "inputs": [],
      "name": "skr",
      "outputs": [
        {
          "internalType": "contract DSToken",
          "name": "",
          "type": "address"
        }
      ],
      "stateMutability": "view",
      "type": "function"
    },
    {
      "inputs": [
        {
          "internalType": "bytes32",
          "name": "cup",
          "type": "bytes32"
        }
      ],
      "name": "tab",
      "outputs": [
        {
          "internalType": "uint256",
          "name": "",
          "type": "uint256"
        }
      ],
      "stateMutability": "nonpayable",
      "type": "function"
    },
    {
      "inputs": [],
      "name": "tag",
      "outputs": [
        {
          "internalType": "uint256",
          "name": "wad",
          "type": "uint256"
        }
      ],
      "stateMutability": "view",
      "type": "function"
    },
    {
      "inputs": [],
      "name": "tap",
      "outputs": [
        {
          "internalType": "contract SaiTap",
          "name": "",
          "type": "address"
        }
      ],
      "stateMutability": "view",
      "type": "function"
    },
    {
      "inputs": [],
      "name": "tax",
      "outputs": [
        {
          "internalType": "uint256",
          "name": "",
          "type": "uint256"
        }
      ],
      "stateMutability": "view",
      "type": "function"
    },
    {
      "inputs": [
        {
          "internalType": "contract SaiTap",
          "name": "tap_",
          "type": "address"
        }
      ],
      "name": "turn",
      "outputs": [],
      "stateMutability": "nonpayable",
      "type": "function"
    },
    {
      "inputs": [],
      "name": "vox",
      "outputs": [
        {
          "internalType": "contract SaiVox",
          "name": "",
          "type": "address"
        }
      ],
      "stateMutability": "view",
      "type": "function"
    },
    {
      "inputs": [
        {
          "internalType": "bytes32",
          "name": "cup",
          "type": "bytes32"
        },
        {
          "internalType": "uint256",
          "name": "wad",
          "type": "uint256"
        }
      ],
      "name": "wipe",
      "outputs": [],
      "stateMutability": "nonpayable",
      "type": "function"
    }
  ],
  "bytecode": {
    "object": "0x60806040523480156200001157600080fd5b506040516200292038038062002920833981016040819052620000349162000161565b600180546001600160a01b031916339081179091556040517fce241d7ca1f669fee44b6fc00b8eba2df3bb514eed0f6f668f8f89096e81ed9490600090a2600580546001600160a01b03199081166001600160a01b03898116919091179092556004805482168a84161790556002805482168c84161790556003805482168b8416179055600680548216888416179055600b80548216848416179055600880548216878416179055600980548216868416179055600780549091169184169190911790556b033b2e3c9fd0803ce8000000600c819055600e819055600f8190556010819055670de0b6b3a76400006011556015819055601655620001354290565b6014555062000238975050505050505050565b6001600160a01b03811681146200015e57600080fd5b50565b60008060008060008060008060006101208a8c0312156200018157600080fd5b89516200018e8162000148565b60208b0151909950620001a18162000148565b60408b0151909850620001b48162000148565b60608b0151909750620001c78162000148565b60808b0151909650620001da8162000148565b60a08b0151909550620001ed8162000148565b60c08b0151909450620002008162000148565b60e08b0151909350620002138162000148565b6101008b0151909250620002278162000148565b809150509295985092959850929598565b6126d880620002486000396000f3fe608060405234801561001057600080fd5b50600436106103a45760003560e01c80638ceedb47116101e9578063c8e13bb41161010f578063e0ae96e9116100ad578063f7c8d6341161007c578063f7c8d63414610755578063fcfff16f14610768578063fd22103114610770578063fdac00251461078357600080fd5b8063e0ae96e914610714578063e47e7e661461071c578063e95823ad1461072f578063f03c7c6e1461074257600080fd5b8063d741e2f9116100e9578063d741e2f9146106bc578063d9c27cc6146106cf578063ddca3f43146106e2578063de5f5517146106eb57600080fd5b8063c8e13bb414610698578063c92aecc4146106a1578063cf48d1a6146106a957600080fd5b8063a5cd184e11610187578063b3b77a5111610156578063b3b77a511461064c578063b84d21061461065f578063baa8529c14610672578063bf7e214f1461068557600080fd5b8063a5cd184e1461060b578063ab0783da1461061e578063ace237f514610627578063b2a1449b1461063a57600080fd5b80639166cba4116101c35780639166cba4146105d457806392b0d721146105e757806399c8d556146105fa5780639f678cca1461060357600080fd5b80638ceedb47146105a55780638cf0c191146105b85780638da5cb5b146105c157600080fd5b806349955431116102ce57806373b381011161026c5780637ec9c3b81161023b5780637ec9c3b81461056f5780637f8661a11461057757806382bf9a751461058a5780638a95a7461461059d57600080fd5b806373b38101146105235780637a9e5e4b146105365780637bd2bea7146105495780637e74325f1461055c57600080fd5b80636626b26d116102a85780636626b26d146104d757806367550a35146104f45780636c32c0a6146105075780636f78ee0d1461051057600080fd5b806349955431146104bd578063509bf2bf146104c657806351f91066146104cf57600080fd5b806320aba08b11610346578063355274ea11610315578063355274ea1461047b57806340cc885414610484578063440f19ba14610497578063454a2ab3146104aa57600080fd5b806320aba08b1461045a57806327e7e21e14610463578063338a02611461046b578063343aad821461047357600080fd5b806312d43a511161038257806312d43a511461040157806313af403514610414578063143e55e0146104275780631f3634ed1461043757600080fd5b8063049878f3146103a9578063071bafb5146103be5780630f8a771e146103ee575b600080fd5b6103bc6103b7366004612486565b6107ec565b005b6003546103d1906001600160a01b031681565b6040516001600160a01b0390911681526020015b60405180910390f35b6004546103d1906001600160a01b031681565b6006546103d1906001600160a01b031681565b6103bc6104223660046124b7565b61094a565b425b6040519081526020016103e5565b610429610445366004612486565b60009081526019602052604090206001015490565b61042960145481565b6104296109cf565b610429610a47565b6103bc610a58565b610429600d5481565b6103bc610492366004612486565b610ae0565b6103bc6104a53660046124d4565b610d56565b6104296104b8366004612486565b610f61565b61042960185481565b610429600c5481565b610429610f9b565b6012546104e49060ff1681565b60405190151581526020016103e5565b6007546103d1906001600160a01b031681565b61042960115481565b61042961051e366004612486565b611031565b6103bc6105313660046124d4565b611061565b6103bc6105443660046124b7565b6112d5565b6005546103d1906001600160a01b031681565b6103bc61056a3660046124b7565b61134f565b6104296113d0565b6103bc610585366004612486565b6114d4565b6103bc6105983660046124b7565b6115df565b610429611669565b6103bc6105b33660046124d4565b61169a565b61042960175481565b6001546103d1906001600160a01b031681565b6002546103d1906001600160a01b031681565b6103bc6105f53660046124d4565b6117ca565b610429600f5481565b6103bc611944565b6103bc6106193660046124d4565b611ab6565b610429600e5481565b6009546103d1906001600160a01b031681565b6012546104e490610100900460ff1681565b6103bc61065a3660046124d4565b611bf1565b6103bc61066d366004612486565b611d08565b6103bc6106803660046124f6565b611df0565b6000546103d1906001600160a01b031681565b61042960135481565b610429611e8a565b6103bc6106b73660046124b7565b611e9b565b6008546103d1906001600160a01b031681565b6103bc6106dd3660046124b7565b611f25565b61042960105481565b6103d16106f9366004612486565b6000908152601960205260409020546001600160a01b031690565b610429611faf565b61042961072a366004612486565b611fbf565b6104e461073d366004612486565b611fd8565b600b546103d1906001600160a01b031681565b610429610763366004612486565b6120a2565b6104296120c0565b600a546103d1906001600160a01b031681565b6107c2610791366004612486565b60196020526000908152604090208054600182015460028301546003909301546001600160a01b0390921692909184565b604080516001600160a01b03909516855260208501939093529183015260608201526080016103e5565b6040516004359060243590819083903390600080356001600160e01b0319169161081891903690612526565b60405180910390a460125460ff161561083057600080fd5b600061083b84611fbf565b1161084557600080fd5b6005546001600160a01b03166323b872dd333061086187611fbf565b6040516001600160e01b031960e086901b1681526001600160a01b03938416600482015292909116602483015260448201526064016020604051808303816000875af11580156108b5573d6000803e3d6000fd5b505050506040513d601f19601f820116820180604052508101906108d9919061256a565b6108e257600080fd5b600480546040516340c10f1960e01b81526001600160a01b03909116916340c10f1991610913913391889101612585565b600060405180830381600087803b15801561092d57600080fd5b505af1158015610941573d6000803e3d6000fd5b50505050505050565b610960336000356001600160e01b03191661217d565b6109855760405162461bcd60e51b815260040161097c9061259e565b60405180910390fd5b600180546001600160a01b0319166001600160a01b0383169081179091556040517fce241d7ca1f669fee44b6fc00b8eba2df3bb514eed0f6f668f8f89096e81ed9490600090a250565b600480546040516370a0823160e01b815230928101929092526000916001600160a01b03909116906370a08231906024015b602060405180830381865afa158015610a1e573d6000803e3d6000fd5b505050506040513d601f19601f82011682018060405250810190610a4291906125cc565b905090565b6000610a51611944565b5060165490565b6040516004359060243590819083903390600080356001600160e01b03191691610a8491903690612526565b60405180910390a4610aa2336000356001600160e01b03191661217d565b610abe5760405162461bcd60e51b815260040161097c9061259e565b60125460ff16610acd57600080fd5b50506012805461ff001916610100179055565b6040516004359060243590819083903390600080356001600160e01b03191691610b0c91903690612526565b60405180910390a4610b1d83611fd8565b1580610b2b575060125460ff165b610b3457600080fd5b6000610b3f846120a2565b600354600a546040516340c10f1960e01b81529293506001600160a01b03918216926340c10f1992610b779216908590600401612585565b600060405180830381600087803b158015610b9157600080fd5b505af1158015610ba5573d6000803e3d6000fd5b5050601754600087815260196020526040902060020154610bc99350909150612258565b601755600084815260196020526040812060028101829055600301819055600c54610c8890610c7b90610bfd9085906122ae565b600760009054906101000a90046001600160a01b03166001600160a01b031663495d32cb6040518163ffffffff1660e01b81526004016020604051808303816000875af1158015610c52573d6000803e3d6000fd5b505050506040513d601f19601f82011682018060405250810190610c7691906125cc565b6122ae565b610c83610f9b565b6122e9565b600086815260196020526040902060010154909150811115610cb857506000848152601960205260409020600101545b60048054600a54604051632dd4ea6360e21b81526001600160a01b039283169363b753a98c93610cec931691869101612585565b600060405180830381600087803b158015610d0657600080fd5b505af1158015610d1a573d6000803e3d6000fd5b505050600086815260196020526040902060010154610d3a915082612258565b6000958652601960205260409095206001019490945550505050565b6040516004359060243590819083903390600080356001600160e01b03191691610d8291903690612526565b60405180910390a460125460ff1615610d9a57600080fd5b6000848152601960205260409020546001600160a01b03163314610dbd57600080fd5b6000610dcb84610c83611e8a565b11610dd557600080fd5b600084815260196020526040902060020154610dfc90610df785610c83611e8a565b61230f565b600085815260196020526040902060020155601754610e2190610df785610c83611e8a565b601755600084815260196020526040902060030154610e4690610df785610c83610a47565b600085815260196020526040908190206003810192909255600254915490516340c10f1960e01b81526001600160a01b03928316926340c10f1992610e92929116908790600401612585565b600060405180830381600087803b158015610eac57600080fd5b505af1158015610ec0573d6000803e3d6000fd5b50505050610ecd84611fd8565b610ed657600080fd5b600d54600260009054906101000a90046001600160a01b03166001600160a01b03166318160ddd6040518163ffffffff1660e01b8152600401602060405180830381865afa158015610f2c573d6000803e3d6000fd5b505050506040513d601f19601f82011682018060405250810190610f5091906125cc565b1115610f5b57600080fd5b50505050565b6000610f9582610c76610f726113d0565b610f90610f88670de0b6b3a764000060026125fb565b601154612258565b612364565b92915050565b60125460009060ff1661102a57610a42610fb36113d0565b600860009054906101000a90046001600160a01b03166001600160a01b03166357de26a46040518163ffffffff1660e01b8152600401602060405180830381865afa158015611006573d6000803e3d6000fd5b505050506040513d601f19601f82011682018060405250810190610f9091906125cc565b5060135490565b600081815260196020526040812060030154610f959061105390610c76610a47565b61105c846120a2565b612258565b6040516004359060243590819083903390600080356001600160e01b0319169161108d91903690612526565b60405180910390a460125460ff16156110a557600080fd5b60006110c084610c766110b788611031565b610c83896120a2565b6000868152601960205260409020600201549091506110e59061105c86610c83611e8a565b60008681526019602052604090206002015560175461110a9061105c86610c83611e8a565b6017556000858152601960205260409020600301546111389061105c611130878561230f565b610c83610a47565b60008681526019602052604090819020600301919091556002549051632770a7eb60e21b81526001600160a01b0390911690639dc29fac906111809033908890600401612585565b600060405180830381600087803b15801561119a57600080fd5b505af11580156111ae573d6000803e3d6000fd5b50505050600080600960009054906101000a90046001600160a01b03166001600160a01b03166359e02dd76040518163ffffffff1660e01b81526004016040805180830381865afa158015611207573d6000803e3d6000fd5b505050506040513d601f19601f8201168201806040525081019061122b9190612612565b9150915080801561123b57508115155b1561094157600654600b546001600160a01b039182169163bb35783b91339116611265878761238f565b6040516001600160e01b031960e086901b1681526001600160a01b0393841660048201529290911660248301526044820152606401600060405180830381600087803b1580156112b457600080fd5b505af11580156112c8573d6000803e3d6000fd5b5050505050505050505050565b6112eb336000356001600160e01b03191661217d565b6113075760405162461bcd60e51b815260040161097c9061259e565b600080546001600160a01b0319166001600160a01b038316908117825560405190917f1abebea81bfa2637f28358c371278fb15ede7ea8dd28d2e03b112ff6d936ada491a250565b6040516004359060243590819083903390600080356001600160e01b0319169161137b91903690612526565b60405180910390a4600a546001600160a01b03161561139957600080fd5b6001600160a01b0383166113ac57600080fd5b5050600a80546001600160a01b0319166001600160a01b0392909216919091179055565b6000600460009054906101000a90046001600160a01b03166001600160a01b03166318160ddd6040518163ffffffff1660e01b8152600401602060405180830381865afa158015611425573d6000803e3d6000fd5b505050506040513d601f19601f8201168201806040525081019061144991906125cc565b156114c457610a42611459611669565b60048054604080516318160ddd60e01b815290516001600160a01b03909216926318160ddd9282820192602092908290030181865afa1580156114a0573d6000803e3d6000fd5b505050506040513d601f19601f82011682018060405250810190610c8391906125cc565b50676765c793fa10079d601b1b90565b6040516004359060243590819083903390600080356001600160e01b0319169161150091903690612526565b60405180910390a460125460ff1615806115215750601254610100900460ff165b61152a57600080fd5b6005546001600160a01b031663a9059cbb3361154586610f61565b6040518363ffffffff1660e01b8152600401611562929190612585565b6020604051808303816000875af1158015611581573d6000803e3d6000fd5b505050506040513d601f19601f820116820180604052508101906115a5919061256a565b6115ae57600080fd5b60048054604051632770a7eb60e21b81526001600160a01b0390911691639dc29fac91610913913391889101612585565b6040516004359060243590819083903390600080356001600160e01b0319169161160b91903690612526565b60405180910390a4611629336000356001600160e01b03191661217d565b6116455760405162461bcd60e51b815260040161097c9061259e565b5050600880546001600160a01b0319166001600160a01b0392909216919091179055565b6005546040516370a0823160e01b81523060048201526000916001600160a01b0316906370a0823190602401610a01565b6040516004359060243590819083903390600080356001600160e01b031916916116c691903690612526565b60405180910390a46116e4336000356001600160e01b03191661217d565b6117005760405162461bcd60e51b815260040161097c9061259e565b60125460ff1615801561171257508315155b61171b57600080fd5b6012805460ff19166001179055676765c793fa10079d601b1b600c55670de0b6b3a76400006011556013849055600554600a5460405163a9059cbb60e01b81526001600160a01b039283169263a9059cbb9261177e929116908790600401612585565b6020604051808303816000875af115801561179d573d6000803e3d6000fd5b505050506040513d601f19601f820116820180604052508101906117c1919061256a565b610f5b57600080fd5b6040516004359060243590819083903390600080356001600160e01b031916916117f691903690612526565b60405180910390a4611814336000356001600160e01b03191661217d565b6118305760405162461bcd60e51b815260040161097c9061259e565b836206361760ec1b0361184757600d839055610f5b565b83621b585d60ea1b0361187657676765c793fa10079d601b1b83101561186c57600080fd5b600e839055610f5b565b83620e8c2f60eb1b036118ad57676765c793fa10079d601b1b83101561189b57600080fd5b6118a3611944565b600f839055610f5b565b836266656560e81b036118e457676765c793fa10079d601b1b8310156118d257600080fd5b6118da611944565b6010839055610f5b565b836261786560e81b0361191357676765c793fa10079d601b1b83101561190957600080fd5b600c839055610f5b565b836206761760ec1b0361193f57670de0b6b3a764000083101561193557600080fd5b6011839055610f5b565b610f5b565b6040516004359060243590819083903390600080356001600160e01b0319169161197091903690612526565b60405180910390a460125460ff16611ab2576014544290600090611994908361263e565b9050806000036119a45750505050565b6014829055600f54676765c793fa10079d601b1b908114611a6557601554600f546119cf90846123a7565b91506119dd601554836122ae565b6015819055600254600a546001600160a01b03918216926340c10f199290911690611a1490611a0c9086612258565b6017546122ae565b6040518363ffffffff1660e01b8152600401611a31929190612585565b600060405180830381600087803b158015611a4b57600080fd5b505af1158015611a5f573d6000803e3d6000fd5b50505050505b676765c793fa10079d601b1b60105414611a8c57611a8981610c76601054856123a7565b90505b676765c793fa10079d601b1b8114611aae57611aaa601654826122ae565b6016555b5050505b5050565b6040516004359060243590819083903390600080356001600160e01b03191691611ae291903690612526565b60405180910390a46000848152601960205260409020546001600160a01b03163314611b0d57600080fd5b600084815260196020526040902060010154611b299084612258565b6000858152601960205260409081902060010191909155600480549151632dd4ea6360e21b81526001600160a01b039092169163b753a98c91611b70913391889101612585565b600060405180830381600087803b158015611b8a57600080fd5b505af1158015611b9e573d6000803e3d6000fd5b50505050611bab84611fd8565b611bb457600080fd5b60008481526019602052604090206001015415806117c157506000848152601960205260409020600101546611c37937e0800010610f5b57600080fd5b6040516004359060243590819083903390600080356001600160e01b03191691611c1d91903690612526565b60405180910390a460125460ff1615611c3557600080fd5b600084815260196020526040902060010154611c51908461230f565b600085815260196020526040908190206001019190915560048054915163f2d5d56b60e01b81526001600160a01b039092169163f2d5d56b91611c98913391889101612585565b600060405180830381600087803b158015611cb257600080fd5b505af1158015611cc6573d6000803e3d6000fd5b505050600085815260196020526040902060010154159050806117c157506000848152601960205260409020600101546611c37937e0800010610f5b57600080fd5b6040516004359060243590819083903390600080356001600160e01b03191691611d3491903690612526565b60405180910390a460125460ff1615611d4c57600080fd5b6000838152601960205260409020546001600160a01b03163314611d6f57600080fd5b611d78836120a2565b15611d8a57611d8a83610531856120a2565b60008381526019602052604090206001015415611dbe57611dbe836106198560009081526019602052604090206001015490565b5050600090815260196020526040812080546001600160a01b0319168155600181018290556002810182905560030155565b6040516004359060243590819083903390600080356001600160e01b03191691611e1c91903690612526565b60405180910390a46000848152601960205260409020546001600160a01b03163314611e4757600080fd5b6001600160a01b038316611e5a57600080fd5b505060009182526019602052604090912080546001600160a01b0319166001600160a01b03909216919091179055565b6000611e94611944565b5060155490565b6040516004359060243590819083903390600080356001600160e01b03191691611ec791903690612526565b60405180910390a4611ee5336000356001600160e01b03191661217d565b611f015760405162461bcd60e51b815260040161097c9061259e565b5050600780546001600160a01b0319166001600160a01b0392909216919091179055565b6040516004359060243590819083903390600080356001600160e01b03191691611f5191903690612526565b60405180910390a4611f6f336000356001600160e01b03191661217d565b611f8b5760405162461bcd60e51b815260040161097c9061259e565b5050600980546001600160a01b0319166001600160a01b0392909216919091179055565b6000610a42601754610c76611e8a565b6000610f9582610c76611fd06113d0565b601154612364565b600080611ffd611fe6610f9b565b6000858152601960205260409020600101546122ae565b90506000612086600760009054906101000a90046001600160a01b03166001600160a01b031663495d32cb6040518163ffffffff1660e01b81526004016020604051808303816000875af1158015612059573d6000803e3d6000fd5b505050506040513d601f19601f8201168201806040525081019061207d91906125cc565b610c76866120a2565b9050600061209682600e546122ae565b90921015949350505050565b600081815260196020526040812060020154610f9590610c76611e8a565b60405160009060043590602435908190839033906001600160e01b0319873516906120ee9088903690612526565b60405180910390a460125460ff161561210657600080fd5b612113601854600161230f565b60188190556000818152601960205260409081902080546001600160a01b031916339081179091559051919450907f89b8893b806db50897c8e2362c71571cfaeb9761ee40727f683f1793cda9df16906121709086815260200190565b60405180910390a2505090565b6000306001600160a01b0384160361219757506001610f95565b6001546001600160a01b03908116908416036121b557506001610f95565b6000546001600160a01b03166121cd57506000610f95565b60005460405163b700961360e01b81526001600160a01b0385811660048301523060248301526001600160e01b0319851660448301529091169063b700961390606401602060405180830381865afa15801561222d573d6000803e3d6000fd5b505050506040513d601f19601f82011682018060405250810190612251919061256a565b9392505050565b600082612265838261263e565b9150811115610f955760405162461bcd60e51b815260206004820152601560248201527464732d6d6174682d7375622d756e646572666c6f7760581b604482015260640161097c565b6000676765c793fa10079d601b1b6122df6122c9858561241f565b610df76002676765c793fa10079d601b1b612667565b6122519190612667565b6000816122df61230485676765c793fa10079d601b1b61241f565b610df7600286612667565b60008261231c838261267b565b9150811015610f955760405162461bcd60e51b815260206004820152601460248201527364732d6d6174682d6164642d6f766572666c6f7760601b604482015260640161097c565b6000670de0b6b3a76400006122df61237c858561241f565b610df76002670de0b6b3a7640000612667565b6000816122df61230485670de0b6b3a764000061241f565b60006123b460028361268e565b6000036123cc57676765c793fa10079d601b1b6123ce565b825b90506123db600283612667565b91505b8115610f95576123ee83846122ae565b92506123fb60028361268e565b1561240d5761240a81846122ae565b90505b612418600283612667565b91506123de565b60008115806124435750828261243581836125fb565b92506124419083612667565b145b610f955760405162461bcd60e51b815260206004820152601460248201527364732d6d6174682d6d756c2d6f766572666c6f7760601b604482015260640161097c565b60006020828403121561249857600080fd5b5035919050565b6001600160a01b03811681146124b457600080fd5b50565b6000602082840312156124c957600080fd5b81356122518161249f565b600080604083850312156124e757600080fd5b50508035926020909101359150565b6000806040838503121561250957600080fd5b82359150602083013561251b8161249f565b809150509250929050565b60208152816020820152818360408301376000818301604090810191909152601f909201601f19160101919050565b8051801515811461256557600080fd5b919050565b60006020828403121561257c57600080fd5b61225182612555565b6001600160a01b03929092168252602082015260400190565b602080825260149082015273191ccb585d5d1a0b5d5b985d5d1a1bdc9a5e995960621b604082015260600190565b6000602082840312156125de57600080fd5b5051919050565b634e487b7160e01b600052601160045260246000fd5b8082028115828204841417610f9557610f956125e5565b6000806040838503121561262557600080fd5b8251915061263560208401612555565b90509250929050565b81810381811115610f9557610f956125e5565b634e487b7160e01b600052601260045260246000fd5b60008261267657612676612651565b500490565b80820180821115610f9557610f956125e5565b60008261269d5761269d612651565b50069056fea2646970667358221220c764b76d725a06541333d415c930fccfd7afb89278c04bd6bebb674f1be53b9564736f6c63430008140033",
    "linkReferences": {}
  },
  "methodIdentifiers": {
    "air()": "27e7e21e",
    "ask(uint256)": "e47e7e66",
    "authority()": "bf7e214f",
    "axe()": "509bf2bf",
    "bid(uint256)": "454a2ab3",
    "bite(bytes32)": "40cc8854",
    "cage(uint256,uint256)": "8ceedb47",
    "cap()": "355274ea",
    "chi()": "c92aecc4",
    "cupi()": "49955431",
    "cups(bytes32)": "fdac0025",
    "din()": "e0ae96e9",
    "draw(bytes32,uint256)": "440f19ba",
    "drip()": "9f678cca",
    "era()": "143e55e0",
    "exit(uint256)": "7f8661a1",
    "fee()": "ddca3f43",
    "fit()": "c8e13bb4",
    "flow()": "343aad82",
    "free(bytes32,uint256)": "a5cd184e",
    "gap()": "6c32c0a6",
    "gem()": "7bd2bea7",
    "give(bytes32,address)": "baa8529c",
    "gov()": "12d43a51",
    "ink(bytes32)": "1f3634ed",
    "join(uint256)": "049878f3",
    "lad(bytes32)": "de5f5517",
    "lock(bytes32,uint256)": "b3b77a51",
    "mat()": "ab0783da",
    "mold(bytes32,uint256)": "92b0d721",
    "off()": "6626b26d",
    "open()": "fcfff16f",
    "out()": "b2a1449b",
    "owner()": "8da5cb5b",
    "pep()": "ace237f5",
    "per()": "7ec9c3b8",
    "pie()": "8a95a746",
    "pip()": "d741e2f9",
    "pit()": "f03c7c6e",
    "rap(bytes32)": "6f78ee0d",
    "rhi()": "338a0261",
    "rho()": "20aba08b",
    "rum()": "8cf0c191",
    "safe(bytes32)": "e95823ad",
    "sai()": "9166cba4",
    "setAuthority(address)": "7a9e5e4b",
    "setOwner(address)": "13af4035",
    "setPep(address)": "d9c27cc6",
    "setPip(address)": "82bf9a75",
    "setVox(address)": "cf48d1a6",
    "shut(bytes32)": "b84d2106",
    "sin()": "071bafb5",
    "skr()": "0f8a771e",
    "tab(bytes32)": "f7c8d634",
    "tag()": "51f91066",
    "tap()": "fd221031",
    "tax()": "99c8d556",
    "turn(address)": "7e74325f",
    "vox()": "67550a35",
    "wipe(bytes32,uint256)": "73b38101"
  },
  "id": 31
}