{
  "abi": [
    {
      "inputs": [
        {
          "internalType": "contract SaiTub",
          "name": "tub_",
          "type": "address"
        },
        {
          "internalType": "contract SaiTap",
          "name": "tap_",
          "type": "address"
        },
        {
          "internalType": "contract SaiVox",
          "name": "vox_",
          "type": "address"
        }
      ],
      "stateMutability": "nonpayable",
      "type": "constructor"
    },
    {
      "anonymous": true,
      "inputs": [
        {
          "indexed": true,
          "internalType": "bytes4",
          "name": "sig",
          "type": "bytes4"
        },
        {
          "indexed": true,
          "internalType": "address",
          "name": "guy",
          "type": "address"
        },
        {
          "indexed": true,
          "internalType": "bytes32",
          "name": "foo",
          "type": "bytes32"
        },
        {
          "indexed": true,
          "internalType": "bytes32",
          "name": "bar",
          "type": "bytes32"
        },
        {
          "indexed": false,
          "internalType": "bytes",
          "name": "fax",
          "type": "bytes"
        }
      ],
      "name": "LogNote",
      "type": "event"
    },
    {
      "anonymous": false,
      "inputs": [
        {
          "indexed": true,
          "internalType": "address",
          "name": "authority",
          "type": "address"
        }
      ],
      "name": "LogSetAuthority",
      "type": "event"
    },
    {
      "anonymous": false,
      "inputs": [
        {
          "indexed": true,
          "internalType": "address",
          "name": "owner",
          "type": "address"
        }
      ],
      "name": "LogSetOwner",
      "type": "event"
    },
    {
      "inputs": [],
      "name": "authority",
      "outputs": [
        {
          "internalType": "contract DSAuthority",
          "name": "",
          "type": "address"
        }
      ],
      "stateMutability": "view",
      "type": "function"
    },
    {
      "inputs": [],
      "name": "owner",
      "outputs": [
        {
          "internalType": "address",
          "name": "",
          "type": "address"
        }
      ],
      "stateMutability": "view",
      "type": "function"
    },
    {
      "inputs": [
        {
          "internalType": "contract DSAuthority",
          "name": "authority_",
          "type": "address"
        }
      ],
      "name": "setAuthority",
      "outputs": [],
      "stateMutability": "nonpayable",
      "type": "function"
    },
    {
      "inputs": [
        {
          "internalType": "uint256",
          "name": "ray",
          "type": "uint256"
        }
      ],
      "name": "setAxe",
      "outputs": [],
      "stateMutability": "nonpayable",
      "type": "function"
    },
    {
      "inputs": [
        {
          "internalType": "uint256",
          "name": "wad",
          "type": "uint256"
        }
      ],
      "name": "setCap",
      "outputs": [],
      "stateMutability": "nonpayable",
      "type": "function"
    },
    {
      "inputs": [
        {
          "internalType": "uint256",
          "name": "ray",
          "type": "uint256"
        }
      ],
      "name": "setFee",
      "outputs": [],
      "stateMutability": "nonpayable",
      "type": "function"
    },
    {
      "inputs": [
        {
          "internalType": "uint256",
          "name": "ray",
          "type": "uint256"
        }
      ],
      "name": "setHow",
      "outputs": [],
      "stateMutability": "nonpayable",
      "type": "function"
    },
    {
      "inputs": [
        {
          "internalType": "uint256",
          "name": "ray",
          "type": "uint256"
        }
      ],
      "name": "setMat",
      "outputs": [],
      "stateMutability": "nonpayable",
      "type": "function"
    },
    {
      "inputs": [
        {
          "internalType": "address",
          "name": "owner_",
          "type": "address"
        }
      ],
      "name": "setOwner",
      "outputs": [],
      "stateMutability": "nonpayable",
      "type": "function"
    },
    {
      "inputs": [
        {
          "internalType": "contract DSValue",
          "name": "pep_",
          "type": "address"
        }
      ],
      "name": "setPep",
      "outputs": [],
      "stateMutability": "nonpayable",
      "type": "function"
    },
    {
      "inputs": [
        {
          "internalType": "contract DSValue",
          "name": "pip_",
          "type": "address"
        }
      ],
      "name": "setPip",
      "outputs": [],
      "stateMutability": "nonpayable",
      "type": "function"
    },
    {
      "inputs": [
        {
          "internalType": "uint256",
          "name": "wad",
          "type": "uint256"
        }
      ],
      "name": "setTapGap",
      "outputs": [],
      "stateMutability": "nonpayable",
      "type": "function"
    },
    {
      "inputs": [
        {
          "internalType": "uint256",
          "name": "ray",
          "type": "uint256"
        }
      ],
      "name": "setTax",
      "outputs": [],
      "stateMutability": "nonpayable",
      "type": "function"
    },
    {
      "inputs": [
        {
          "internalType": "uint256",
          "name": "wad",
          "type": "uint256"
        }
      ],
      "name": "setTubGap",
      "outputs": [],
      "stateMutability": "nonpayable",
      "type": "function"
    },
    {
      "inputs": [
        {
          "internalType": "contract SaiVox",
          "name": "vox_",
          "type": "address"
        }
      ],
      "name": "setVox",
      "outputs": [],
      "stateMutability": "nonpayable",
      "type": "function"
    },
    {
      "inputs": [
        {
          "internalType": "uint256",
          "name": "ray",
          "type": "uint256"
        }
      ],
      "name": "setWay",
      "outputs": [],
      "stateMutability": "nonpayable",
      "type": "function"
    },
    {
      "inputs": [],
      "name": "tap",
      "outputs": [
        {
          "internalType": "contract SaiTap",
          "name": "",
          "type": "address"
        }
      ],
      "stateMutability": "view",
      "type": "function"
    },
    {
      "inputs": [],
      "name": "tub",
      "outputs": [
        {
          "internalType": "contract SaiTub",
          "name": "",
          "type": "address"
        }
      ],
      "stateMutability": "view",
      "type": "function"
    },
    {
      "inputs": [],
      "name": "vox",
      "outputs": [
        {
          "internalType": "contract SaiVox",
          "name": "",
          "type": "address"
        }
      ],
      "stateMutability": "view",
      "type": "function"
    }
  ],
  "bytecode": {
    "object": "0x608060405234801561001057600080fd5b5060405161122b38038061122b83398101604081905261002f916100c7565b600180546001600160a01b031916339081179091556040517fce241d7ca1f669fee44b6fc00b8eba2df3bb514eed0f6f668f8f89096e81ed9490600090a2600280546001600160a01b039485166001600160a01b031991821617909155600380549385169382169390931790925560048054919093169116179055610114565b6001600160a01b03811681146100c457600080fd5b50565b6000806000606084860312156100dc57600080fd5b83516100e7816100af565b60208501519093506100f8816100af565b6040850151909250610109816100af565b809150509250925092565b611108806101236000396000f3fe608060405234801561001057600080fd5b50600436106101215760003560e01c80637fb07f6e116100ad578063b5c456b511610071578063b5c456b51461024e578063bf7e214f14610261578063cf48d1a614610274578063d9c27cc614610287578063fd2210311461029a57600080fd5b80637fb07f6e146101ef57806382bf9a75146102025780638da5cb5b14610215578063a6d76a8f14610228578063a93e36081461023b57600080fd5b806334e70cc2116100f457806334e70cc21461017457806347786d37146101a357806367550a35146101b657806369fe0e2d146101c95780637a9e5e4b146101dc57600080fd5b806313af40351461012657806322e589331461013b5780632545b9e21461014e5780632e5bb6ff14610161575b600080fd5b610139610134366004610ffd565b6102ad565b005b610139610149366004611021565b610332565b61013961015c366004611021565b610408565b61013961016f366004611021565b610583565b600254610187906001600160a01b031681565b6040516001600160a01b03909116815260200160405180910390f35b6101396101b1366004611021565b6106ff565b600454610187906001600160a01b031681565b6101396101d7366004611021565b6107a2565b6101396101ea366004610ffd565b6108c7565b6101396101fd366004611021565b610941565b610139610210366004610ffd565b610b34565b600154610187906001600160a01b031681565b610139610236366004611021565b610bcc565b610139610249366004611021565b610c61565b61013961025c366004611021565b610d04565b600054610187906001600160a01b031681565b610139610282366004610ffd565b610dd8565b610139610295366004610ffd565b610e70565b600354610187906001600160a01b031681565b6102c3336000356001600160e01b031916610f08565b6102e85760405162461bcd60e51b81526004016102df9061103a565b60405180910390fd5b600180546001600160a01b0319166001600160a01b0383169081179091556040517fce241d7ca1f669fee44b6fc00b8eba2df3bb514eed0f6f668f8f89096e81ed9490600090a250565b6040516004359060243590819083903390600080356001600160e01b0319169161035e91903690611068565b60405180910390a461037c336000356001600160e01b031916610f08565b6103985760405162461bcd60e51b81526004016102df9061103a565b6002546040516392b0d72160e01b81526206761760ec1b6004820152602481018590526001600160a01b03909116906392b0d721906044015b600060405180830381600087803b1580156103eb57600080fd5b505af11580156103ff573d6000803e3d6000fd5b50505050505050565b6040516004359060243590819083903390600080356001600160e01b0319169161043491903690611068565b60405180910390a4610452336000356001600160e01b031916610f08565b61046e5760405162461bcd60e51b81526004016102df9061103a565b6003546040516392b0d72160e01b81526206761760ec1b6004820152602481018590526001600160a01b03909116906392b0d72190604401600060405180830381600087803b1580156104c057600080fd5b505af11580156104d4573d6000803e3d6000fd5b505050506000600360009054906101000a90046001600160a01b03166001600160a01b0316636c32c0a66040518163ffffffff1660e01b8152600401602060405180830381865afa15801561052d573d6000803e3d6000fd5b505050506040513d601f19601f820116820180604052508101906105519190611097565b9050670e92596fd629000081111561056857600080fd5b670d2f13f7789f000081101561057d57600080fd5b50505050565b6040516004359060243590819083903390600080356001600160e01b031916916105af91903690611068565b60405180910390a46105cd336000356001600160e01b031916610f08565b6105e95760405162461bcd60e51b81526004016102df9061103a565b6002546040516392b0d72160e01b8152620e8c2f60eb1b6004820152602481018590526001600160a01b03909116906392b0d72190604401600060405180830381600087803b15801561063b57600080fd5b505af115801561064f573d6000803e3d6000fd5b505050506000600260009054906101000a90046001600160a01b03166001600160a01b03166399c8d5566040518163ffffffff1660e01b8152600401602060405180830381865afa1580156106a8573d6000803e3d6000fd5b505050506040513d601f19601f820116820180604052508101906106cc9190611097565b9050806b033b2e3c9fd0803ce800000011156106e757600080fd5b6b033b2e7841618c3029b00000811061057d57600080fd5b6040516004359060243590819083903390600080356001600160e01b0319169161072b91903690611068565b60405180910390a4610749336000356001600160e01b031916610f08565b6107655760405162461bcd60e51b81526004016102df9061103a565b6002546040516392b0d72160e01b81526206361760ec1b6004820152602481018590526001600160a01b03909116906392b0d721906044016103d1565b6040516004359060243590819083903390600080356001600160e01b031916916107ce91903690611068565b60405180910390a46107ec336000356001600160e01b031916610f08565b6108085760405162461bcd60e51b81526004016102df9061103a565b6002546040516392b0d72160e01b81526266656560e81b6004820152602481018590526001600160a01b03909116906392b0d72190604401600060405180830381600087803b15801561085a57600080fd5b505af115801561086e573d6000803e3d6000fd5b505050506000600260009054906101000a90046001600160a01b03166001600160a01b031663ddca3f436040518163ffffffff1660e01b8152600401602060405180830381865afa1580156106a8573d6000803e3d6000fd5b6108dd336000356001600160e01b031916610f08565b6108f95760405162461bcd60e51b81526004016102df9061103a565b600080546001600160a01b0319166001600160a01b038316908117825560405190917f1abebea81bfa2637f28358c371278fb15ede7ea8dd28d2e03b112ff6d936ada491a250565b6040516004359060243590819083903390600080356001600160e01b0319169161096d91903690611068565b60405180910390a461098b336000356001600160e01b031916610f08565b6109a75760405162461bcd60e51b81526004016102df9061103a565b6002546040516392b0d72160e01b8152621b585d60ea1b6004820152602481018590526001600160a01b03909116906392b0d721906044015b600060405180830381600087803b1580156109fa57600080fd5b505af1158015610a0e573d6000803e3d6000fd5b505050506000600260009054906101000a90046001600160a01b03166001600160a01b031663509bf2bf6040518163ffffffff1660e01b8152600401602060405180830381865afa158015610a67573d6000803e3d6000fd5b505050506040513d601f19601f82011682018060405250810190610a8b9190611097565b90506000600260009054906101000a90046001600160a01b03166001600160a01b031663ab0783da6040518163ffffffff1660e01b8152600401602060405180830381865afa158015610ae2573d6000803e3d6000fd5b505050506040513d601f19601f82011682018060405250810190610b069190611097565b90506b033b2e3c9fd0803ce80000008210158015610b245750808211155b610b2d57600080fd5b5050505050565b6040516004359060243590819083903390600080356001600160e01b03191691610b6091903690611068565b60405180910390a4610b7e336000356001600160e01b031916610f08565b610b9a5760405162461bcd60e51b81526004016102df9061103a565b6002546040516382bf9a7560e01b81526001600160a01b038581166004830152909116906382bf9a75906024016103d1565b6040516004359060243590819083903390600080356001600160e01b03191691610bf891903690611068565b60405180910390a4610c16336000356001600160e01b031916610f08565b610c325760405162461bcd60e51b81526004016102df9061103a565b60048054604051635f66d07560e11b81529182018590526001600160a01b03169063becda0ea906024016103d1565b6040516004359060243590819083903390600080356001600160e01b03191691610c8d91903690611068565b60405180910390a4610cab336000356001600160e01b031916610f08565b610cc75760405162461bcd60e51b81526004016102df9061103a565b6002546040516392b0d72160e01b81526261786560e81b6004820152602481018590526001600160a01b03909116906392b0d721906044016109e0565b6040516004359060243590819083903390600080356001600160e01b03191691610d3091903690611068565b60405180910390a4610d4e336000356001600160e01b031916610f08565b610d6a5760405162461bcd60e51b81526004016102df9061103a565b6b033b2e7841618c3029b000008310610d8257600080fd5b6b033b2dfb9278161c434000008311610d9a57600080fd5b600480546040516392b0d72160e01b81526277617960e81b92810192909252602482018590526001600160a01b0316906392b0d721906044016103d1565b6040516004359060243590819083903390600080356001600160e01b03191691610e0491903690611068565b60405180910390a4610e22336000356001600160e01b031916610f08565b610e3e5760405162461bcd60e51b81526004016102df9061103a565b6002546040516367a468d360e11b81526001600160a01b0385811660048301529091169063cf48d1a6906024016103d1565b6040516004359060243590819083903390600080356001600160e01b03191691610e9c91903690611068565b60405180910390a4610eba336000356001600160e01b031916610f08565b610ed65760405162461bcd60e51b81526004016102df9061103a565b600254604051636ce13e6360e11b81526001600160a01b0385811660048301529091169063d9c27cc6906024016103d1565b6000306001600160a01b03841603610f2257506001610fdf565b6001546001600160a01b0390811690841603610f4057506001610fdf565b6000546001600160a01b0316610f5857506000610fdf565b60005460405163b700961360e01b81526001600160a01b0385811660048301523060248301526001600160e01b0319851660448301529091169063b700961390606401602060405180830381865afa158015610fb8573d6000803e3d6000fd5b505050506040513d601f19601f82011682018060405250810190610fdc91906110b0565b90505b92915050565b6001600160a01b0381168114610ffa57600080fd5b50565b60006020828403121561100f57600080fd5b813561101a81610fe5565b9392505050565b60006020828403121561103357600080fd5b5035919050565b602080825260149082015273191ccb585d5d1a0b5d5b985d5d1a1bdc9a5e995960621b604082015260600190565b60208152816020820152818360408301376000818301604090810191909152601f909201601f19160101919050565b6000602082840312156110a957600080fd5b5051919050565b6000602082840312156110c257600080fd5b8151801515811461101a57600080fdfea2646970667358221220c612101b16b3becefdcd056f230af631c9183aa42a41c79bf677b9ffd96cf07164736f6c63430008140033",
    "linkReferences": {}
  },
  "methodIdentifiers": {
    "authority()": "bf7e214f",
    "owner()": "8da5cb5b",
    "setAuthority(address)": "7a9e5e4b",
    "setAxe(uint256)": "a93e3608",
    "setCap(uint256)": "47786d37",
    "setFee(uint256)": "69fe0e2d",
    "setHow(uint256)": "a6d76a8f",
    "setMat(uint256)": "7fb07f6e",
    "setOwner(address)": "13af4035",
    "setPep(address)": "d9c27cc6",
    "setPip(address)": "82bf9a75",
    "setTapGap(uint256)": "2545b9e2",
    "setTax(uint256)": "2e5bb6ff",
    "setTubGap(uint256)": "22e58933",
    "setVox(address)": "cf48d1a6",
    "setWay(uint256)": "b5c456b5",
    "tap()": "fd221031",
    "tub()": "34e70cc2",
    "vox()": "67550a35"
  },
  "id": 27
}