{
  "abi": [
    {
      "inputs": [
        {
          "internalType": "contract DSToken",
          "name": "gem",
          "type": "address"
        }
      ],
      "name": "burn",
      "outputs": [],
      "stateMutability": "nonpayable",
      "type": "function"
    }
  ],
  "bytecode": {
    "object": "0x608060405234801561001057600080fd5b50610187806100206000396000f3fe608060405234801561001057600080fd5b506004361061002b5760003560e01c806389afcb4414610030575b600080fd5b61004361003e366004610108565b610045565b005b6040516370a0823160e01b81523060048201526001600160a01b038216906342966c689082906370a0823190602401602060405180830381865afa158015610091573d6000803e3d6000fd5b505050506040513d601f19601f820116820180604052508101906100b59190610138565b6040518263ffffffff1660e01b81526004016100d391815260200190565b600060405180830381600087803b1580156100ed57600080fd5b505af1158015610101573d6000803e3d6000fd5b5050505050565b60006020828403121561011a57600080fd5b81356001600160a01b038116811461013157600080fd5b9392505050565b60006020828403121561014a57600080fd5b505191905056fea26469706673582212209bb70d4859fd145a305e67aff4327821010fd8e239c9d0ab04fee62baecf1cee64736f6c63430008140033",
    "linkReferences": {}
  },
  "methodIdentifiers": {
    "burn(address)": "89afcb44"
  },
  "id": 28
}