{
  "abi": [
    {
      "anonymous": true,
      "inputs": [
        {
          "indexed": true,
          "internalType": "bytes4",
          "name": "sig",
          "type": "bytes4"
        },
        {
          "indexed": true,
          "internalType": "address",
          "name": "guy",
          "type": "address"
        },
        {
          "indexed": true,
          "internalType": "bytes32",
          "name": "foo",
          "type": "bytes32"
        },
        {
          "indexed": true,
          "internalType": "bytes32",
          "name": "bar",
          "type": "bytes32"
        },
        {
          "indexed": false,
          "internalType": "bytes",
          "name": "fax",
          "type": "bytes"
        }
      ],
      "name": "LogNote",
      "type": "event"
    },
    {
      "anonymous": false,
      "inputs": [
        {
          "indexed": true,
          "internalType": "address",
          "name": "authority",
          "type": "address"
        }
      ],
      "name": "LogSetAuthority",
      "type": "event"
    },
    {
      "anonymous": false,
      "inputs": [
        {
          "indexed": true,
          "internalType": "address",
          "name": "owner",
          "type": "address"
        }
      ],
      "name": "LogSetOwner",
      "type": "event"
    },
    {
      "inputs": [],
      "name": "authority",
      "outputs": [
        {
          "internalType": "contract DSAuthority",
          "name": "",
          "type": "address"
        }
      ],
      "stateMutability": "view",
      "type": "function"
    },
    {
      "inputs": [],
      "name": "owner",
      "outputs": [
        {
          "internalType": "address",
          "name": "",
          "type": "address"
        }
      ],
      "stateMutability": "view",
      "type": "function"
    },
    {
      "inputs": [],
      "name": "peek",
      "outputs": [
        {
          "internalType": "bytes32",
          "name": "",
          "type": "bytes32"
        },
        {
          "internalType": "bool",
          "name": "",
          "type": "bool"
        }
      ],
      "stateMutability": "view",
      "type": "function"
    },
    {
      "inputs": [
        {
          "internalType": "bytes32",
          "name": "wut",
          "type": "bytes32"
        }
      ],
      "name": "poke",
      "outputs": [],
      "stateMutability": "nonpayable",
      "type": "function"
    },
    {
      "inputs": [],
      "name": "read",
      "outputs": [
        {
          "internalType": "bytes32",
          "name": "",
          "type": "bytes32"
        }
      ],
      "stateMutability": "view",
      "type": "function"
    },
    {
      "inputs": [
        {
          "internalType": "contract DSAuthority",
          "name": "authority_",
          "type": "address"
        }
      ],
      "name": "setAuthority",
      "outputs": [],
      "stateMutability": "nonpayable",
      "type": "function"
    },
    {
      "inputs": [
        {
          "internalType": "address",
          "name": "owner_",
          "type": "address"
        }
      ],
      "name": "setOwner",
      "outputs": [],
      "stateMutability": "nonpayable",
      "type": "function"
    },
    {
      "inputs": [],
      "name": "void",
      "outputs": [],
      "stateMutability": "nonpayable",
      "type": "function"
    }
  ],
  "bytecode": {
    "object": "0x608060405234801561001057600080fd5b50600180546001600160a01b031916339081179091556040517fce241d7ca1f669fee44b6fc00b8eba2df3bb514eed0f6f668f8f89096e81ed9490600090a261057c8061005e6000396000f3fe608060405234801561001057600080fd5b50600436106100885760003560e01c80637a9e5e4b1161005b5780637a9e5e4b146100f55780638da5cb5b14610108578063ac4c25b214610133578063bf7e214f1461013b57600080fd5b806313af40351461008d5780631504460f146100a257806357de26a4146100b557806359e02dd7146100d0575b600080fd5b6100a061009b36600461048a565b61014e565b005b6100a06100b03660046104ae565b6101d3565b6100bd610253565b6040519081526020015b60405180910390f35b600254600154600160a01b900460ff16604080519283529015156020830152016100c7565b6100a061010336600461048a565b6102a4565b60015461011b906001600160a01b031681565b6040516001600160a01b0390911681526020016100c7565b6100a061031e565b60005461011b906001600160a01b031681565b610164336000356001600160e01b031916610395565b6101895760405162461bcd60e51b8152600401610180906104c7565b60405180910390fd5b600180546001600160a01b0319166001600160a01b0383169081179091556040517fce241d7ca1f669fee44b6fc00b8eba2df3bb514eed0f6f668f8f89096e81ed9490600090a250565b6040516004359060243590819083903390600080356001600160e01b031916916101ff919036906104f5565b60405180910390a461021d336000356001600160e01b031916610395565b6102395760405162461bcd60e51b8152600401610180906104c7565b50506002556001805460ff60a01b1916600160a01b179055565b60025460015460009190600160a01b900460ff168061029e5760405162461bcd60e51b81526020600482015260076024820152661a185e8b5b9bdd60ca1b6044820152606401610180565b50919050565b6102ba336000356001600160e01b031916610395565b6102d65760405162461bcd60e51b8152600401610180906104c7565b600080546001600160a01b0319166001600160a01b038316908117825560405190917f1abebea81bfa2637f28358c371278fb15ede7ea8dd28d2e03b112ff6d936ada491a250565b6040516004359060243590819083903390600080356001600160e01b0319169161034a919036906104f5565b60405180910390a4610368336000356001600160e01b031916610395565b6103845760405162461bcd60e51b8152600401610180906104c7565b50506001805460ff60a01b19169055565b6000306001600160a01b038416036103af5750600161046c565b6001546001600160a01b03908116908416036103cd5750600161046c565b6000546001600160a01b03166103e55750600061046c565b60005460405163b700961360e01b81526001600160a01b0385811660048301523060248301526001600160e01b0319851660448301529091169063b700961390606401602060405180830381865afa158015610445573d6000803e3d6000fd5b505050506040513d601f19601f820116820180604052508101906104699190610524565b90505b92915050565b6001600160a01b038116811461048757600080fd5b50565b60006020828403121561049c57600080fd5b81356104a781610472565b9392505050565b6000602082840312156104c057600080fd5b5035919050565b602080825260149082015273191ccb585d5d1a0b5d5b985d5d1a1bdc9a5e995960621b604082015260600190565b60208152816020820152818360408301376000818301604090810191909152601f909201601f19160101919050565b60006020828403121561053657600080fd5b815180151581146104a757600080fdfea26469706673582212206d50c4262ab5ccb36cf47287170051fa558f4ebeb493379899c5beb196bf38f964736f6c63430008140033",
    "linkReferences": {}
  },
  "methodIdentifiers": {
    "authority()": "bf7e214f",
    "owner()": "8da5cb5b",
    "peek()": "59e02dd7",
    "poke(bytes32)": "1504460f",
    "read()": "57de26a4",
    "setAuthority(address)": "7a9e5e4b",
    "setOwner(address)": "13af4035",
    "void()": "ac4c25b2"
  },
  "id": 8
}