{
  "abi": [
    {
      "inputs": [
        {
          "internalType": "contract SaiTub",
          "name": "tub_",
          "type": "address"
        },
        {
          "internalType": "contract SaiTap",
          "name": "tap_",
          "type": "address"
        }
      ],
      "stateMutability": "nonpayable",
      "type": "constructor"
    },
    {
      "anonymous": true,
      "inputs": [
        {
          "indexed": true,
          "internalType": "bytes4",
          "name": "sig",
          "type": "bytes4"
        },
        {
          "indexed": true,
          "internalType": "address",
          "name": "guy",
          "type": "address"
        },
        {
          "indexed": true,
          "internalType": "bytes32",
          "name": "foo",
          "type": "bytes32"
        },
        {
          "indexed": true,
          "internalType": "bytes32",
          "name": "bar",
          "type": "bytes32"
        },
        {
          "indexed": false,
          "internalType": "bytes",
          "name": "fax",
          "type": "bytes"
        }
      ],
      "name": "LogNote",
      "type": "event"
    },
    {
      "anonymous": false,
      "inputs": [
        {
          "indexed": true,
          "internalType": "address",
          "name": "authority",
          "type": "address"
        }
      ],
      "name": "LogSetAuthority",
      "type": "event"
    },
    {
      "anonymous": false,
      "inputs": [
        {
          "indexed": true,
          "internalType": "address",
          "name": "owner",
          "type": "address"
        }
      ],
      "name": "LogSetOwner",
      "type": "event"
    },
    {
      "inputs": [],
      "name": "authority",
      "outputs": [
        {
          "internalType": "contract DSAuthority",
          "name": "",
          "type": "address"
        }
      ],
      "stateMutability": "view",
      "type": "function"
    },
    {
      "inputs": [],
      "name": "cage",
      "outputs": [],
      "stateMutability": "nonpayable",
      "type": "function"
    },
    {
      "inputs": [],
      "name": "caged",
      "outputs": [
        {
          "internalType": "uint256",
          "name": "",
          "type": "uint256"
        }
      ],
      "stateMutability": "view",
      "type": "function"
    },
    {
      "inputs": [],
      "name": "cooldown",
      "outputs": [
        {
          "internalType": "uint256",
          "name": "",
          "type": "uint256"
        }
      ],
      "stateMutability": "view",
      "type": "function"
    },
    {
      "inputs": [],
      "name": "era",
      "outputs": [
        {
          "internalType": "uint256",
          "name": "",
          "type": "uint256"
        }
      ],
      "stateMutability": "view",
      "type": "function"
    },
    {
      "inputs": [],
      "name": "fit",
      "outputs": [
        {
          "internalType": "uint256",
          "name": "",
          "type": "uint256"
        }
      ],
      "stateMutability": "view",
      "type": "function"
    },
    {
      "inputs": [],
      "name": "fix",
      "outputs": [
        {
          "internalType": "uint256",
          "name": "",
          "type": "uint256"
        }
      ],
      "stateMutability": "view",
      "type": "function"
    },
    {
      "inputs": [],
      "name": "flow",
      "outputs": [],
      "stateMutability": "nonpayable",
      "type": "function"
    },
    {
      "inputs": [],
      "name": "gem",
      "outputs": [
        {
          "internalType": "contract ERC20",
          "name": "",
          "type": "address"
        }
      ],
      "stateMutability": "view",
      "type": "function"
    },
    {
      "inputs": [],
      "name": "owner",
      "outputs": [
        {
          "internalType": "address",
          "name": "",
          "type": "address"
        }
      ],
      "stateMutability": "view",
      "type": "function"
    },
    {
      "inputs": [],
      "name": "sai",
      "outputs": [
        {
          "internalType": "contract DSToken",
          "name": "",
          "type": "address"
        }
      ],
      "stateMutability": "view",
      "type": "function"
    },
    {
      "inputs": [
        {
          "internalType": "contract DSAuthority",
          "name": "authority_",
          "type": "address"
        }
      ],
      "name": "setAuthority",
      "outputs": [],
      "stateMutability": "nonpayable",
      "type": "function"
    },
    {
      "inputs": [
        {
          "internalType": "uint256",
          "name": "cooldown_",
          "type": "uint256"
        }
      ],
      "name": "setCooldown",
      "outputs": [],
      "stateMutability": "nonpayable",
      "type": "function"
    },
    {
      "inputs": [
        {
          "internalType": "address",
          "name": "owner_",
          "type": "address"
        }
      ],
      "name": "setOwner",
      "outputs": [],
      "stateMutability": "nonpayable",
      "type": "function"
    },
    {
      "inputs": [],
      "name": "sin",
      "outputs": [
        {
          "internalType": "contract DSToken",
          "name": "",
          "type": "address"
        }
      ],
      "stateMutability": "view",
      "type": "function"
    },
    {
      "inputs": [],
      "name": "skr",
      "outputs": [
        {
          "internalType": "contract DSToken",
          "name": "",
          "type": "address"
        }
      ],
      "stateMutability": "view",
      "type": "function"
    },
    {
      "inputs": [],
      "name": "tap",
      "outputs": [
        {
          "internalType": "contract SaiTap",
          "name": "",
          "type": "address"
        }
      ],
      "stateMutability": "view",
      "type": "function"
    },
    {
      "inputs": [],
      "name": "tub",
      "outputs": [
        {
          "internalType": "contract SaiTub",
          "name": "",
          "type": "address"
        }
      ],
      "stateMutability": "view",
      "type": "function"
    },
    {
      "inputs": [],
      "name": "vox",
      "outputs": [
        {
          "internalType": "contract SaiVox",
          "name": "",
          "type": "address"
        }
      ],
      "stateMutability": "view",
      "type": "function"
    }
  ],
  "bytecode": {
    "object": "0x6080604052615460600c553480156200001757600080fd5b506040516200147c3803806200147c8339810160408190526200003a916200035b565b600180546001600160a01b031916339081179091556040517fce241d7ca1f669fee44b6fc00b8eba2df3bb514eed0f6f668f8f89096e81ed9490600090a2600380546001600160a01b038085166001600160a01b031992831681179093556004805491851691909216178155604080516367550a3560e01b815290516367550a35928281019260209291908290030181865afa158015620000df573d6000803e3d6000fd5b505050506040513d601f19601f820116820180604052508101906200010591906200039a565b600280546001600160a01b0319166001600160a01b0392831617905560035460408051632459b2e960e21b815290519190921691639166cba49160048083019260209291908290030181865afa15801562000164573d6000803e3d6000fd5b505050506040513d601f19601f820116820180604052508101906200018a91906200039a565b600580546001600160a01b0319166001600160a01b039283161790556003546040805163071bafb560e01b81529051919092169163071bafb59160048083019260209291908290030181865afa158015620001e9573d6000803e3d6000fd5b505050506040513d601f19601f820116820180604052508101906200020f91906200039a565b600680546001600160a01b0319166001600160a01b03928316179055600354604080516307c53b8f60e11b815290519190921691630f8a771e9160048083019260209291908290030181865afa1580156200026e573d6000803e3d6000fd5b505050506040513d601f19601f820116820180604052508101906200029491906200039a565b600780546001600160a01b0319166001600160a01b0392831617905560035460408051637bd2bea760e01b815290519190921691637bd2bea79160048083019260209291908290030181865afa158015620002f3573d6000803e3d6000fd5b505050506040513d601f19601f820116820180604052508101906200031991906200039a565b600880546001600160a01b0319166001600160a01b039290921691909117905550620003c19050565b6001600160a01b03811681146200035857600080fd5b50565b600080604083850312156200036f57600080fd5b82516200037c8162000342565b60208401519092506200038f8162000342565b809150509250929050565b600060208284031215620003ad57600080fd5b8151620003ba8162000342565b9392505050565b6110ab80620003d16000396000f3fe608060405234801561001057600080fd5b50600436106101215760003560e01c8063787a08a6116100ad578063a551878e11610071578063a551878e1461022c578063bf7e214f14610235578063c8e13bb414610248578063f83e579314610251578063fd2210311461025a57600080fd5b8063787a08a6146101d75780637a9e5e4b146101e05780637bd2bea7146101f35780638da5cb5b146102065780639166cba41461021957600080fd5b8063343aad82116100f4578063343aad821461018e57806334e70cc2146101965780634fc3f41a146101a957806367550a35146101bc57806369245009146101cf57600080fd5b8063071bafb5146101265780630f8a771e1461015657806313af403514610169578063143e55e01461017e575b600080fd5b600654610139906001600160a01b031681565b6040516001600160a01b0390911681526020015b60405180910390f35b600754610139906001600160a01b031681565b61017c610177366004610f28565b61026d565b005b425b60405190815260200161014d565b61017c6102f2565b600354610139906001600160a01b031681565b61017c6101b7366004610f45565b610522565b600254610139906001600160a01b031681565b61017c610559565b610180600c5481565b61017c6101ee366004610f28565b61071b565b600854610139906001600160a01b031681565b600154610139906001600160a01b031681565b600554610139906001600160a01b031681565b61018060095481565b600054610139906001600160a01b031681565b610180600a5481565b610180600b5481565b600454610139906001600160a01b031681565b610283336000356001600160e01b031916610795565b6102a85760405162461bcd60e51b815260040161029f90610f5e565b60405180910390fd5b600180546001600160a01b0319166001600160a01b0383169081179091556040517fce241d7ca1f669fee44b6fc00b8eba2df3bb514eed0f6f668f8f89096e81ed9490600090a250565b6040516004359060243590819083903390600080356001600160e01b0319169161031e91903690610f8c565b60405180910390a4600360009054906101000a90046001600160a01b03166001600160a01b0316636626b26d6040518163ffffffff1660e01b8152600401602060405180830381865afa158015610379573d6000803e3d6000fd5b505050506040513d601f19601f8201168201806040525081019061039d9190610fbb565b6103a657600080fd5b6003546040805163e0ae96e960e01b815290516000926001600160a01b03169163e0ae96e9916004808301926020929190829003018187875af11580156103f1573d6000803e3d6000fd5b505050506040513d601f19601f820116820180604052508101906104159190610fdd565b15801561048a5750600480546040805163394b1acd60e11b815290516001600160a01b0390921692637296359a9282820192602092908290030181865afa158015610464573d6000803e3d6000fd5b505050506040513d601f19601f820116820180604052508101906104889190610fdd565b155b90506000600c54600b5461049e919061100c565b4211905081806104ab5750805b6104b457600080fd5b600360009054906101000a90046001600160a01b03166001600160a01b031663343aad826040518163ffffffff1660e01b8152600401600060405180830381600087803b15801561050457600080fd5b505af1158015610518573d6000803e3d6000fd5b5050505050505050565b610538336000356001600160e01b031916610795565b6105545760405162461bcd60e51b815260040161029f90610f5e565b600c55565b6040516004359060243590819083903390600080356001600160e01b0319169161058591903690610f8c565b60405180910390a46105a3336000356001600160e01b031916610795565b6105bf5760405162461bcd60e51b815260040161029f90610f5e565b610717610712600360009054906101000a90046001600160a01b03166001600160a01b031663d741e2f96040518163ffffffff1660e01b8152600401602060405180830381865afa158015610618573d6000803e3d6000fd5b505050506040513d601f19601f8201168201806040525081019061063c919061101f565b6001600160a01b03166357de26a46040518163ffffffff1660e01b8152600401602060405180830381865afa158015610679573d6000803e3d6000fd5b505050506040513d601f19601f8201168201806040525081019061069d9190610fdd565b6002546040805163495d32cb60e01b815290516001600160a01b039092169163495d32cb9160048082019260209290919082900301816000875af11580156106e9573d6000803e3d6000fd5b505050506040513d601f19601f8201168201806040525081019061070d9190610fdd565b610872565b6108af565b5050565b610731336000356001600160e01b031916610795565b61074d5760405162461bcd60e51b815260040161029f90610f5e565b600080546001600160a01b0319166001600160a01b038316908117825560405190917f1abebea81bfa2637f28358c371278fb15ede7ea8dd28d2e03b112ff6d936ada491a250565b6000306001600160a01b038416036107af5750600161086c565b6001546001600160a01b03908116908416036107cd5750600161086c565b6000546001600160a01b03166107e55750600061086c565b60005460405163b700961360e01b81526001600160a01b0385811660048301523060248301526001600160e01b0319851660448301529091169063b700961390606401602060405180830381865afa158015610845573d6000803e3d6000fd5b505050506040513d601f19601f820116820180604052508101906108699190610fbb565b90505b92915050565b60008161089e61088e856b033b2e3c9fd0803ce8000000610ddf565b61089960028661103c565b610e46565b6108a8919061103c565b9392505050565b600360009054906101000a90046001600160a01b03166001600160a01b0316636626b26d6040518163ffffffff1660e01b8152600401602060405180830381865afa158015610902573d6000803e3d6000fd5b505050506040513d601f19601f820116820180604052508101906109269190610fbb565b15801561093257508015155b61093b57600080fd5b42600b5560035460408051634fb3c66560e11b815290516001600160a01b0390921691639f678cca9160048082019260009290919082900301818387803b15801561098557600080fd5b505af1158015610999573d6000803e3d6000fd5b50506004805460408051630434fe0b60e01b815290516001600160a01b039092169450630434fe0b9350808301926000929182900301818387803b1580156109e057600080fd5b505af11580156109f4573d6000803e3d6000fd5b50505050610af9610a7d82600260009054906101000a90046001600160a01b03166001600160a01b031663495d32cb6040518163ffffffff1660e01b81526004016020604051808303816000875af1158015610a54573d6000803e3d6000fd5b505050506040513d601f19601f82011682018060405250810190610a789190610fdd565b610e9b565b600360009054906101000a90046001600160a01b03166001600160a01b0316637ec9c3b86040518163ffffffff1660e01b8152600401602060405180830381865afa158015610ad0573d6000803e3d6000fd5b505050506040513d601f19601f82011682018060405250810190610af49190610fdd565b610ec6565b600a55600554604080516318160ddd60e01b815290516001600160a01b03909216916318160ddd916004808201926020929091908290030181865afa158015610b46573d6000803e3d6000fd5b505050506040513d601f19601f82011682018060405250810190610b6a9190610fdd565b600003610b8b57610b83670de0b6b3a764000082610872565b600955610c6b565b610c67610ba0670de0b6b3a764000083610872565b6003546040805163454ad3a360e11b81529051610c62926001600160a01b031691638a95a7469160048083019260209291908290030181865afa158015610beb573d6000803e3d6000fd5b505050506040513d601f19601f82011682018060405250810190610c0f9190610fdd565b600560009054906101000a90046001600160a01b03166001600160a01b03166318160ddd6040518163ffffffff1660e01b8152600401602060405180830381865afa1580156106e9573d6000803e3d6000fd5b610ef9565b6009555b600354600a54600954600554604080516318160ddd60e01b815290516001600160a01b0395861695638ceedb479594610cce9490939116916318160ddd916004808201926020929091908290030181865afa158015610ad0573d6000803e3d6000fd5b6040516001600160e01b031960e085901b16815260048101929092526024820152604401600060405180830381600087803b158015610d0c57600080fd5b505af1158015610d20573d6000803e3d6000fd5b50506004805460095460405163517c8d7960e11b8152928301526001600160a01b0316925063a2f91af29150602401600060405180830381600087803b158015610d6957600080fd5b505af1158015610d7d573d6000803e3d6000fd5b50506004805460408051631406b92160e01b815290516001600160a01b039092169450631406b9219350808301926000929182900301818387803b158015610dc457600080fd5b505af1158015610dd8573d6000803e3d6000fd5b5050505050565b6000811580610e0357508282610df5818361105e565b9250610e01908361103c565b145b61086c5760405162461bcd60e51b815260206004820152601460248201527364732d6d6174682d6d756c2d6f766572666c6f7760601b604482015260640161029f565b600082610e53838261100c565b915081101561086c5760405162461bcd60e51b815260206004820152601460248201527364732d6d6174682d6164642d6f766572666c6f7760601b604482015260640161029f565b6000670de0b6b3a764000061089e610eb38585610ddf565b6108996002670de0b6b3a764000061103c565b60006b033b2e3c9fd0803ce800000061089e610ee28585610ddf565b61089960026b033b2e3c9fd0803ce800000061103c565b600081831115610f0957816108a8565b5090919050565b6001600160a01b0381168114610f2557600080fd5b50565b600060208284031215610f3a57600080fd5b81356108a881610f10565b600060208284031215610f5757600080fd5b5035919050565b602080825260149082015273191ccb585d5d1a0b5d5b985d5d1a1bdc9a5e995960621b604082015260600190565b60208152816020820152818360408301376000818301604090810191909152601f909201601f19160101919050565b600060208284031215610fcd57600080fd5b815180151581146108a857600080fd5b600060208284031215610fef57600080fd5b5051919050565b634e487b7160e01b600052601160045260246000fd5b8082018082111561086c5761086c610ff6565b60006020828403121561103157600080fd5b81516108a881610f10565b60008261105957634e487b7160e01b600052601260045260246000fd5b500490565b808202811582820484141761086c5761086c610ff656fea26469706673582212202ff198ab9a04939528027bc4476391a633a231aa134ec7df73dadfe3c441c50864736f6c63430008140033",
    "linkReferences": {}
  },
  "methodIdentifiers": {
    "authority()": "bf7e214f",
    "cage()": "69245009",
    "caged()": "f83e5793",
    "cooldown()": "787a08a6",
    "era()": "143e55e0",
    "fit()": "c8e13bb4",
    "fix()": "a551878e",
    "flow()": "343aad82",
    "gem()": "7bd2bea7",
    "owner()": "8da5cb5b",
    "sai()": "9166cba4",
    "setAuthority(address)": "7a9e5e4b",
    "setCooldown(uint256)": "4fc3f41a",
    "setOwner(address)": "13af4035",
    "sin()": "071bafb5",
    "skr()": "0f8a771e",
    "tap()": "fd221031",
    "tub()": "34e70cc2",
    "vox()": "67550a35"
  },
  "id": 30
}