{
  "abi": [
    {
      "inputs": [
        {
          "internalType": "string",
          "name": "symbol_",
          "type": "string"
        }
      ],
      "stateMutability": "nonpayable",
      "type": "constructor"
    },
    {
      "anonymous": false,
      "inputs": [
        {
          "indexed": true,
          "internalType": "address",
          "name": "src",
          "type": "address"
        },
        {
          "indexed": true,
          "internalType": "address",
          "name": "guy",
          "type": "address"
        },
        {
          "indexed": false,
          "internalType": "uint256",
          "name": "wad",
          "type": "uint256"
        }
      ],
      "name": "Approval",
      "type": "event"
    },
    {
      "anonymous": false,
      "inputs": [
        {
          "indexed": true,
          "internalType": "address",
          "name": "guy",
          "type": "address"
        },
        {
          "indexed": false,
          "internalType": "uint256",
          "name": "wad",
          "type": "uint256"
        }
      ],
      "name": "Burn",
      "type": "event"
    },
    {
      "anonymous": false,
      "inputs": [
        {
          "indexed": true,
          "internalType": "address",
          "name": "authority",
          "type": "address"
        }
      ],
      "name": "LogSetAuthority",
      "type": "event"
    },
    {
      "anonymous": false,
      "inputs": [
        {
          "indexed": true,
          "internalType": "address",
          "name": "owner",
          "type": "address"
        }
      ],
      "name": "LogSetOwner",
      "type": "event"
    },
    {
      "anonymous": false,
      "inputs": [
        {
          "indexed": true,
          "internalType": "address",
          "name": "guy",
          "type": "address"
        },
        {
          "indexed": false,
          "internalType": "uint256",
          "name": "wad",
          "type": "uint256"
        }
      ],
      "name": "Mint",
      "type": "event"
    },
    {
      "anonymous": false,
      "inputs": [],
      "name": "Start",
      "type": "event"
    },
    {
      "anonymous": false,
      "inputs": [],
      "name": "Stop",
      "type": "event"
    },
    {
      "anonymous": false,
      "inputs": [
        {
          "indexed": true,
          "internalType": "address",
          "name": "src",
          "type": "address"
        },
        {
          "indexed": true,
          "internalType": "address",
          "name": "dst",
          "type": "address"
        },
        {
          "indexed": false,
          "internalType": "uint256",
          "name": "wad",
          "type": "uint256"
        }
      ],
      "name": "Transfer",
      "type": "event"
    },
    {
      "inputs": [
        {
          "internalType": "address",
          "name": "",
          "type": "address"
        },
        {
          "internalType": "address",
          "name": "",
          "type": "address"
        }
      ],
      "name": "allowance",
      "outputs": [
        {
          "internalType": "uint256",
          "name": "",
          "type": "uint256"
        }
      ],
      "stateMutability": "view",
      "type": "function"
    },
    {
      "inputs": [
        {
          "internalType": "address",
          "name": "guy",
          "type": "address"
        },
        {
          "internalType": "uint256",
          "name": "wad",
          "type": "uint256"
        }
      ],
      "name": "approve",
      "outputs": [
        {
          "internalType": "bool",
          "name": "",
          "type": "bool"
        }
      ],
      "stateMutability": "nonpayable",
      "type": "function"
    },
    {
      "inputs": [
        {
          "internalType": "address",
          "name": "guy",
          "type": "address"
        }
      ],
      "name": "approve",
      "outputs": [
        {
          "internalType": "bool",
          "name": "",
          "type": "bool"
        }
      ],
      "stateMutability": "nonpayable",
      "type": "function"
    },
    {
      "inputs": [],
      "name": "authority",
      "outputs": [
        {
          "internalType": "contract DSAuthority",
          "name": "",
          "type": "address"
        }
      ],
      "stateMutability": "view",
      "type": "function"
    },
    {
      "inputs": [
        {
          "internalType": "address",
          "name": "",
          "type": "address"
        }
      ],
      "name": "balanceOf",
      "outputs": [
        {
          "internalType": "uint256",
          "name": "",
          "type": "uint256"
        }
      ],
      "stateMutability": "view",
      "type": "function"
    },
    {
      "inputs": [
        {
          "internalType": "uint256",
          "name": "wad",
          "type": "uint256"
        }
      ],
      "name": "burn",
      "outputs": [],
      "stateMutability": "nonpayable",
      "type": "function"
    },
    {
      "inputs": [
        {
          "internalType": "address",
          "name": "guy",
          "type": "address"
        },
        {
          "internalType": "uint256",
          "name": "wad",
          "type": "uint256"
        }
      ],
      "name": "burn",
      "outputs": [],
      "stateMutability": "nonpayable",
      "type": "function"
    },
    {
      "inputs": [],
      "name": "decimals",
      "outputs": [
        {
          "internalType": "uint8",
          "name": "",
          "type": "uint8"
        }
      ],
      "stateMutability": "view",
      "type": "function"
    },
    {
      "inputs": [
        {
          "internalType": "address",
          "name": "guy",
          "type": "address"
        },
        {
          "internalType": "uint256",
          "name": "wad",
          "type": "uint256"
        }
      ],
      "name": "mint",
      "outputs": [],
      "stateMutability": "nonpayable",
      "type": "function"
    },
    {
      "inputs": [
        {
          "internalType": "uint256",
          "name": "wad",
          "type": "uint256"
        }
      ],
      "name": "mint",
      "outputs": [],
      "stateMutability": "nonpayable",
      "type": "function"
    },
    {
      "inputs": [
        {
          "internalType": "address",
          "name": "src",
          "type": "address"
        },
        {
          "internalType": "address",
          "name": "dst",
          "type": "address"
        },
        {
          "internalType": "uint256",
          "name": "wad",
          "type": "uint256"
        }
      ],
      "name": "move",
      "outputs": [],
      "stateMutability": "nonpayable",
      "type": "function"
    },
    {
      "inputs": [],
      "name": "name",
      "outputs": [
        {
          "internalType": "string",
          "name": "",
          "type": "string"
        }
      ],
      "stateMutability": "view",
      "type": "function"
    },
    {
      "inputs": [],
      "name": "owner",
      "outputs": [
        {
          "internalType": "address",
          "name": "",
          "type": "address"
        }
      ],
      "stateMutability": "view",
      "type": "function"
    },
    {
      "inputs": [
        {
          "internalType": "address",
          "name": "src",
          "type": "address"
        },
        {
          "internalType": "uint256",
          "name": "wad",
          "type": "uint256"
        }
      ],
      "name": "pull",
      "outputs": [],
      "stateMutability": "nonpayable",
      "type": "function"
    },
    {
      "inputs": [
        {
          "internalType": "address",
          "name": "dst",
          "type": "address"
        },
        {
          "internalType": "uint256",
          "name": "wad",
          "type": "uint256"
        }
      ],
      "name": "push",
      "outputs": [],
      "stateMutability": "nonpayable",
      "type": "function"
    },
    {
      "inputs": [
        {
          "internalType": "contract DSAuthority",
          "name": "authority_",
          "type": "address"
        }
      ],
      "name": "setAuthority",
      "outputs": [],
      "stateMutability": "nonpayable",
      "type": "function"
    },
    {
      "inputs": [
        {
          "internalType": "string",
          "name": "name_",
          "type": "string"
        }
      ],
      "name": "setName",
      "outputs": [],
      "stateMutability": "nonpayable",
      "type": "function"
    },
    {
      "inputs": [
        {
          "internalType": "address",
          "name": "owner_",
          "type": "address"
        }
      ],
      "name": "setOwner",
      "outputs": [],
      "stateMutability": "nonpayable",
      "type": "function"
    },
    {
      "inputs": [],
      "name": "start",
      "outputs": [],
      "stateMutability": "nonpayable",
      "type": "function"
    },
    {
      "inputs": [],
      "name": "stop",
      "outputs": [],
      "stateMutability": "nonpayable",
      "type": "function"
    },
    {
      "inputs": [],
      "name": "stopped",
      "outputs": [
        {
          "internalType": "bool",
          "name": "",
          "type": "bool"
        }
      ],
      "stateMutability": "view",
      "type": "function"
    },
    {
      "inputs": [],
      "name": "symbol",
      "outputs": [
        {
          "internalType": "string",
          "name": "",
          "type": "string"
        }
      ],
      "stateMutability": "view",
      "type": "function"
    },
    {
      "inputs": [],
      "name": "totalSupply",
      "outputs": [
        {
          "internalType": "uint256",
          "name": "",
          "type": "uint256"
        }
      ],
      "stateMutability": "view",
      "type": "function"
    },
    {
      "inputs": [
        {
          "internalType": "address",
          "name": "dst",
          "type": "address"
        },
        {
          "internalType": "uint256",
          "name": "wad",
          "type": "uint256"
        }
      ],
      "name": "transfer",
      "outputs": [
        {
          "internalType": "bool",
          "name": "",
          "type": "bool"
        }
      ],
      "stateMutability": "nonpayable",
      "type": "function"
    },
    {
      "inputs": [
        {
          "internalType": "address",
          "name": "src",
          "type": "address"
        },
        {
          "internalType": "address",
          "name": "dst",
          "type": "address"
        },
        {
          "internalType": "uint256",
          "name": "wad",
          "type": "uint256"
        }
      ],
      "name": "transferFrom",
      "outputs": [
        {
          "internalType": "bool",
          "name": "",
          "type": "bool"
        }
      ],
      "stateMutability": "nonpayable",
      "type": "function"
    }
  ],
  "bytecode": {
    "object": "0x6006805460ff1916601217905560a06040526000608090815260079062000027908262000151565b503480156200003557600080fd5b50604051620015a3380380620015a383398101604081905262000058916200021d565b600180546001600160a01b031916339081179091556040517fce241d7ca1f669fee44b6fc00b8eba2df3bb514eed0f6f668f8f89096e81ed9490600090a26005620000a4828262000151565b5050620002f2565b634e487b7160e01b600052604160045260246000fd5b600181811c90821680620000d757607f821691505b602082108103620000f857634e487b7160e01b600052602260045260246000fd5b50919050565b601f8211156200014c57600081815260208120601f850160051c81016020861015620001275750805b601f850160051c820191505b81811015620001485782815560010162000133565b5050505b505050565b81516001600160401b038111156200016d576200016d620000ac565b62000185816200017e8454620000c2565b84620000fe565b602080601f831160018114620001bd5760008415620001a45750858301515b600019600386901b1c1916600185901b17855562000148565b600085815260208120601f198616915b82811015620001ee57888601518255948401946001909101908401620001cd565b50858210156200020d5787850151600019600388901b60f8161c191681555b5050505050600190811b01905550565b600060208083850312156200023157600080fd5b82516001600160401b03808211156200024957600080fd5b818501915085601f8301126200025e57600080fd5b815181811115620002735762000273620000ac565b604051601f8201601f19908116603f011681019083821181831017156200029e576200029e620000ac565b816040528281528886848701011115620002b757600080fd5b600093505b82841015620002db5784840186015181850187015292850192620002bc565b600086848301015280965050505050505092915050565b6112a180620003026000396000f3fe608060405234801561001057600080fd5b50600436106101735760003560e01c80638da5cb5b116100de578063bb35783b11610097578063c47f002711610071578063c47f002714610339578063daea85c51461034c578063dd62ed3e1461035f578063f2d5d56b1461038a57600080fd5b8063bb35783b1461030b578063be9a65551461031e578063bf7e214f1461032657600080fd5b80638da5cb5b1461028c57806395d89b41146102b75780639dc29fac146102bf578063a0712d68146102d2578063a9059cbb146102e5578063b753a98c146102f857600080fd5b8063313ce56711610130578063313ce5671461020057806340c10f191461021f57806342966c681461023257806370a082311461024557806375f12b21146102655780637a9e5e4b1461027957600080fd5b806306fdde031461017857806307da68f514610196578063095ea7b3146101a057806313af4035146101c357806318160ddd146101d657806323b872dd146101ed575b600080fd5b61018061039d565b60405161018d9190610e65565b60405180910390f35b61019e61042b565b005b6101b36101ae366004610ec8565b6104a4565b604051901515815260200161018d565b61019e6101d1366004610ef4565b610536565b6101df60025481565b60405190815260200161018d565b6101b36101fb366004610f11565b6105b2565b60065461020d9060ff1681565b60405160ff909116815260200161018d565b61019e61022d366004610ec8565b610808565b61019e610240366004610f52565b6108f3565b6101df610253366004610ef4565b60036020526000908152604090205481565b6001546101b390600160a01b900460ff1681565b61019e610287366004610ef4565b610900565b60015461029f906001600160a01b031681565b6040516001600160a01b03909116815260200161018d565b61018061097a565b61019e6102cd366004610ec8565b610987565b61019e6102e0366004610f52565b610bdb565b6101b36102f3366004610ec8565b610be5565b61019e610306366004610ec8565b610bf9565b61019e610319366004610f11565b610c09565b61019e610c1a565b60005461029f906001600160a01b031681565b61019e610347366004610f81565b610c84565b6101b361035a366004610ef4565b610cc6565b6101df61036d366004611032565b600460209081526000928352604080842090915290825290205481565b61019e610398366004610ec8565b610cd4565b600780546103aa9061106b565b80601f01602080910402602001604051908101604052809291908181526020018280546103d69061106b565b80156104235780601f106103f857610100808354040283529160200191610423565b820191906000526020600020905b81548152906001019060200180831161040657829003601f168201915b505050505081565b610441336000356001600160e01b031916610cdf565b6104665760405162461bcd60e51b815260040161045d906110a5565b60405180910390fd5b6001805460ff60a01b1916600160a01b1790556040517fbedf0f4abfe86d4ffad593d9607fe70e83ea706033d44d24b3b6283cf3fc4f6b90600090a1565b600154600090600160a01b900460ff16156104d15760405162461bcd60e51b815260040161045d906110d3565b3360008181526004602090815260408083206001600160a01b03881680855290835292819020869055518581529192917f8c5be1e5ebec7d5bd14f71427d1e84f3dd0314c0f7b2291e5b200ac8c7c3b925910160405180910390a35060015b92915050565b61054c336000356001600160e01b031916610cdf565b6105685760405162461bcd60e51b815260040161045d906110a5565b600180546001600160a01b0319166001600160a01b0383169081179091556040517fce241d7ca1f669fee44b6fc00b8eba2df3bb514eed0f6f668f8f89096e81ed9490600090a250565b600154600090600160a01b900460ff16156105df5760405162461bcd60e51b815260040161045d906110d3565b6001600160a01b038416331480159061061d57506001600160a01b038416600090815260046020908152604080832033845290915290205460001914155b156106e8576001600160a01b03841660009081526004602090815260408083203384529091529020548211156106955760405162461bcd60e51b815260206004820152601e60248201527f64732d746f6b656e2d696e73756666696369656e742d617070726f76616c0000604482015260640161045d565b6001600160a01b03841660009081526004602090815260408083203384529091529020546106c39083610dba565b6001600160a01b03851660009081526004602090815260408083203384529091529020555b6001600160a01b0384166000908152600360205260409020548211156107505760405162461bcd60e51b815260206004820152601d60248201527f64732d746f6b656e2d696e73756666696369656e742d62616c616e6365000000604482015260640161045d565b6001600160a01b0384166000908152600360205260409020546107739083610dba565b6001600160a01b0380861660009081526003602052604080822093909355908516815220546107a29083610e10565b6001600160a01b0380851660008181526003602052604090819020939093559151908616907fddf252ad1be2c89b69c2b068fc378daa952ba7f163c4a11628f55a4df523b3ef906107f69086815260200190565b60405180910390a35060019392505050565b61081e336000356001600160e01b031916610cdf565b61083a5760405162461bcd60e51b815260040161045d906110a5565b600154600160a01b900460ff16156108645760405162461bcd60e51b815260040161045d906110d3565b6001600160a01b0382166000908152600360205260409020546108879082610e10565b6001600160a01b0383166000908152600360205260409020556002546108ad9082610e10565b6002556040518181526001600160a01b038316907f0f6798a560793a54c3bcfe86a93cde1e73087d944c0ea20544137d4121396885906020015b60405180910390a25050565b6108fd3382610987565b50565b610916336000356001600160e01b031916610cdf565b6109325760405162461bcd60e51b815260040161045d906110a5565b600080546001600160a01b0319166001600160a01b038316908117825560405190917f1abebea81bfa2637f28358c371278fb15ede7ea8dd28d2e03b112ff6d936ada491a250565b600580546103aa9061106b565b61099d336000356001600160e01b031916610cdf565b6109b95760405162461bcd60e51b815260040161045d906110a5565b600154600160a01b900460ff16156109e35760405162461bcd60e51b815260040161045d906110d3565b6001600160a01b0382163314801590610a2157506001600160a01b038216600090815260046020908152604080832033845290915290205460001914155b15610aec576001600160a01b0382166000908152600460209081526040808320338452909152902054811115610a995760405162461bcd60e51b815260206004820152601e60248201527f64732d746f6b656e2d696e73756666696369656e742d617070726f76616c0000604482015260640161045d565b6001600160a01b0382166000908152600460209081526040808320338452909152902054610ac79082610dba565b6001600160a01b03831660009081526004602090815260408083203384529091529020555b6001600160a01b038216600090815260036020526040902054811115610b545760405162461bcd60e51b815260206004820152601d60248201527f64732d746f6b656e2d696e73756666696369656e742d62616c616e6365000000604482015260640161045d565b6001600160a01b038216600090815260036020526040902054610b779082610dba565b6001600160a01b038316600090815260036020526040902055600254610b9d9082610dba565b6002556040518181526001600160a01b038316907fcc16f5dbb4873280815c1ee09dbd06736cffcc184412cf7a71a0fdb75d397ca5906020016108e7565b6108fd3382610808565b6000610bf23384846105b2565b9392505050565b610c043383836105b2565b505050565b610c148383836105b2565b50505050565b610c30336000356001600160e01b031916610cdf565b610c4c5760405162461bcd60e51b815260040161045d906110a5565b6001805460ff60a01b191690556040517f1b55ba3aa851a46be3b365aee5b5c140edd620d578922f3e8466d2cbd96f954b90600090a1565b610c9a336000356001600160e01b031916610cdf565b610cb65760405162461bcd60e51b815260040161045d906110a5565b6007610cc2828261114d565b5050565b6000610530826000196104a4565b610c048233836105b2565b6000306001600160a01b03841603610cf957506001610530565b6001546001600160a01b0390811690841603610d1757506001610530565b6000546001600160a01b0316610d2f57506000610530565b60005460405163b700961360e01b81526001600160a01b0385811660048301523060248301526001600160e01b0319851660448301529091169063b700961390606401602060405180830381865afa158015610d8f573d6000803e3d6000fd5b505050506040513d601f19601f82011682018060405250810190610db3919061120d565b9050610530565b600082610dc78382611245565b91508111156105305760405162461bcd60e51b815260206004820152601560248201527464732d6d6174682d7375622d756e646572666c6f7760581b604482015260640161045d565b600082610e1d8382611258565b91508110156105305760405162461bcd60e51b815260206004820152601460248201527364732d6d6174682d6164642d6f766572666c6f7760601b604482015260640161045d565b600060208083528351808285015260005b81811015610e9257858101830151858201604001528201610e76565b506000604082860101526040601f19601f8301168501019250505092915050565b6001600160a01b03811681146108fd57600080fd5b60008060408385031215610edb57600080fd5b8235610ee681610eb3565b946020939093013593505050565b600060208284031215610f0657600080fd5b8135610bf281610eb3565b600080600060608486031215610f2657600080fd5b8335610f3181610eb3565b92506020840135610f4181610eb3565b929592945050506040919091013590565b600060208284031215610f6457600080fd5b5035919050565b634e487b7160e01b600052604160045260246000fd5b600060208284031215610f9357600080fd5b813567ffffffffffffffff80821115610fab57600080fd5b818401915084601f830112610fbf57600080fd5b813581811115610fd157610fd1610f6b565b604051601f8201601f19908116603f01168101908382118183101715610ff957610ff9610f6b565b8160405282815287602084870101111561101257600080fd5b826020860160208301376000928101602001929092525095945050505050565b6000806040838503121561104557600080fd5b823561105081610eb3565b9150602083013561106081610eb3565b809150509250929050565b600181811c9082168061107f57607f821691505b60208210810361109f57634e487b7160e01b600052602260045260246000fd5b50919050565b602080825260149082015273191ccb585d5d1a0b5d5b985d5d1a1bdc9a5e995960621b604082015260600190565b602080825260129082015271191ccb5cdd1bdc0b5a5ccb5cdd1bdc1c195960721b604082015260600190565b601f821115610c0457600081815260208120601f850160051c810160208610156111265750805b601f850160051c820191505b8181101561114557828155600101611132565b505050505050565b815167ffffffffffffffff81111561116757611167610f6b565b61117b81611175845461106b565b846110ff565b602080601f8311600181146111b057600084156111985750858301515b600019600386901b1c1916600185901b178555611145565b600085815260208120601f198616915b828110156111df578886015182559484019460019091019084016111c0565b50858210156111fd5787850151600019600388901b60f8161c191681555b5050505050600190811b01905550565b60006020828403121561121f57600080fd5b81518015158114610bf257600080fd5b634e487b7160e01b600052601160045260246000fd5b818103818111156105305761053061122f565b808201808211156105305761053061122f56fea26469706673582212204713afdcad476597cd6caa2940e29d9206432bfc190ba3f3b1ab98324dbfda4c64736f6c63430008140033",
    "linkReferences": {}
  },
  "methodIdentifiers": {
    "allowance(address,address)": "dd62ed3e",
    "approve(address)": "daea85c5",
    "approve(address,uint256)": "095ea7b3",
    "authority()": "bf7e214f",
    "balanceOf(address)": "70a08231",
    "burn(address,uint256)": "9dc29fac",
    "burn(uint256)": "42966c68",
    "decimals()": "313ce567",
    "mint(address,uint256)": "40c10f19",
    "mint(uint256)": "a0712d68",
    "move(address,address,uint256)": "bb35783b",
    "name()": "06fdde03",
    "owner()": "8da5cb5b",
    "pull(address,uint256)": "f2d5d56b",
    "push(address,uint256)": "b753a98c",
    "setAuthority(address)": "7a9e5e4b",
    "setName(string)": "c47f0027",
    "setOwner(address)": "13af4035",
    "start()": "be9a6555",
    "stop()": "07da68f5",
    "stopped()": "75f12b21",
    "symbol()": "95d89b41",
    "totalSupply()": "18160ddd",
    "transfer(address,uint256)": "a9059cbb",
    "transferFrom(address,address,uint256)": "23b872dd"
  },
  "id": 7
}