{
  "abi": [
    {
      "inputs": [
        {
          "internalType": "contract SaiTub",
          "name": "tub_",
          "type": "address"
        }
      ],
      "stateMutability": "nonpayable",
      "type": "constructor"
    },
    {
      "anonymous": true,
      "inputs": [
        {
          "indexed": true,
          "internalType": "bytes4",
          "name": "sig",
          "type": "bytes4"
        },
        {
          "indexed": true,
          "internalType": "address",
          "name": "guy",
          "type": "address"
        },
        {
          "indexed": true,
          "internalType": "bytes32",
          "name": "foo",
          "type": "bytes32"
        },
        {
          "indexed": true,
          "internalType": "bytes32",
          "name": "bar",
          "type": "bytes32"
        },
        {
          "indexed": false,
          "internalType": "bytes",
          "name": "fax",
          "type": "bytes"
        }
      ],
      "name": "LogNote",
      "type": "event"
    },
    {
      "anonymous": false,
      "inputs": [
        {
          "indexed": true,
          "internalType": "address",
          "name": "authority",
          "type": "address"
        }
      ],
      "name": "LogSetAuthority",
      "type": "event"
    },
    {
      "anonymous": false,
      "inputs": [
        {
          "indexed": true,
          "internalType": "address",
          "name": "owner",
          "type": "address"
        }
      ],
      "name": "LogSetOwner",
      "type": "event"
    },
    {
      "inputs": [
        {
          "internalType": "uint256",
          "name": "wad",
          "type": "uint256"
        }
      ],
      "name": "ask",
      "outputs": [
        {
          "internalType": "uint256",
          "name": "",
          "type": "uint256"
        }
      ],
      "stateMutability": "nonpayable",
      "type": "function"
    },
    {
      "inputs": [],
      "name": "authority",
      "outputs": [
        {
          "internalType": "contract DSAuthority",
          "name": "",
          "type": "address"
        }
      ],
      "stateMutability": "view",
      "type": "function"
    },
    {
      "inputs": [
        {
          "internalType": "uint256",
          "name": "wad",
          "type": "uint256"
        }
      ],
      "name": "bid",
      "outputs": [
        {
          "internalType": "uint256",
          "name": "",
          "type": "uint256"
        }
      ],
      "stateMutability": "nonpayable",
      "type": "function"
    },
    {
      "inputs": [
        {
          "internalType": "uint256",
          "name": "wad",
          "type": "uint256"
        }
      ],
      "name": "boom",
      "outputs": [],
      "stateMutability": "nonpayable",
      "type": "function"
    },
    {
      "inputs": [
        {
          "internalType": "uint256",
          "name": "wad",
          "type": "uint256"
        }
      ],
      "name": "bust",
      "outputs": [],
      "stateMutability": "nonpayable",
      "type": "function"
    },
    {
      "inputs": [
        {
          "internalType": "uint256",
          "name": "fix_",
          "type": "uint256"
        }
      ],
      "name": "cage",
      "outputs": [],
      "stateMutability": "nonpayable",
      "type": "function"
    },
    {
      "inputs": [
        {
          "internalType": "uint256",
          "name": "wad",
          "type": "uint256"
        }
      ],
      "name": "cash",
      "outputs": [],
      "stateMutability": "nonpayable",
      "type": "function"
    },
    {
      "inputs": [],
      "name": "fix",
      "outputs": [
        {
          "internalType": "uint256",
          "name": "",
          "type": "uint256"
        }
      ],
      "stateMutability": "view",
      "type": "function"
    },
    {
      "inputs": [],
      "name": "fog",
      "outputs": [
        {
          "internalType": "uint256",
          "name": "",
          "type": "uint256"
        }
      ],
      "stateMutability": "view",
      "type": "function"
    },
    {
      "inputs": [],
      "name": "gap",
      "outputs": [
        {
          "internalType": "uint256",
          "name": "",
          "type": "uint256"
        }
      ],
      "stateMutability": "view",
      "type": "function"
    },
    {
      "inputs": [],
      "name": "heal",
      "outputs": [],
      "stateMutability": "nonpayable",
      "type": "function"
    },
    {
      "inputs": [],
      "name": "joy",
      "outputs": [
        {
          "internalType": "uint256",
          "name": "",
          "type": "uint256"
        }
      ],
      "stateMutability": "view",
      "type": "function"
    },
    {
      "inputs": [
        {
          "internalType": "uint256",
          "name": "wad",
          "type": "uint256"
        }
      ],
      "name": "mock",
      "outputs": [],
      "stateMutability": "nonpayable",
      "type": "function"
    },
    {
      "inputs": [
        {
          "internalType": "bytes32",
          "name": "param",
          "type": "bytes32"
        },
        {
          "internalType": "uint256",
          "name": "val",
          "type": "uint256"
        }
      ],
      "name": "mold",
      "outputs": [],
      "stateMutability": "nonpayable",
      "type": "function"
    },
    {
      "inputs": [],
      "name": "off",
      "outputs": [
        {
          "internalType": "bool",
          "name": "",
          "type": "bool"
        }
      ],
      "stateMutability": "view",
      "type": "function"
    },
    {
      "inputs": [],
      "name": "owner",
      "outputs": [
        {
          "internalType": "address",
          "name": "",
          "type": "address"
        }
      ],
      "stateMutability": "view",
      "type": "function"
    },
    {
      "inputs": [],
      "name": "s2s",
      "outputs": [
        {
          "internalType": "uint256",
          "name": "",
          "type": "uint256"
        }
      ],
      "stateMutability": "nonpayable",
      "type": "function"
    },
    {
      "inputs": [],
      "name": "sai",
      "outputs": [
        {
          "internalType": "contract DSToken",
          "name": "",
          "type": "address"
        }
      ],
      "stateMutability": "view",
      "type": "function"
    },
    {
      "inputs": [
        {
          "internalType": "contract DSAuthority",
          "name": "authority_",
          "type": "address"
        }
      ],
      "name": "setAuthority",
      "outputs": [],
      "stateMutability": "nonpayable",
      "type": "function"
    },
    {
      "inputs": [
        {
          "internalType": "address",
          "name": "owner_",
          "type": "address"
        }
      ],
      "name": "setOwner",
      "outputs": [],
      "stateMutability": "nonpayable",
      "type": "function"
    },
    {
      "inputs": [],
      "name": "sin",
      "outputs": [
        {
          "internalType": "contract DSToken",
          "name": "",
          "type": "address"
        }
      ],
      "stateMutability": "view",
      "type": "function"
    },
    {
      "inputs": [],
      "name": "skr",
      "outputs": [
        {
          "internalType": "contract DSToken",
          "name": "",
          "type": "address"
        }
      ],
      "stateMutability": "view",
      "type": "function"
    },
    {
      "inputs": [],
      "name": "tub",
      "outputs": [
        {
          "internalType": "contract SaiTub",
          "name": "",
          "type": "address"
        }
      ],
      "stateMutability": "view",
      "type": "function"
    },
    {
      "inputs": [],
      "name": "vent",
      "outputs": [],
      "stateMutability": "nonpayable",
      "type": "function"
    },
    {
      "inputs": [],
      "name": "vox",
      "outputs": [
        {
          "internalType": "contract SaiVox",
          "name": "",
          "type": "address"
        }
      ],
      "stateMutability": "view",
      "type": "function"
    },
    {
      "inputs": [],
      "name": "woe",
      "outputs": [
        {
          "internalType": "uint256",
          "name": "",
          "type": "uint256"
        }
      ],
      "stateMutability": "view",
      "type": "function"
    }
  ],
  "bytecode": {
    "object": "0x60806040523480156200001157600080fd5b5060405162001741380380620017418339810160408190526200003491620002cc565b600180546001600160a01b031916339081179091556040517fce241d7ca1f669fee44b6fc00b8eba2df3bb514eed0f6f668f8f89096e81ed9490600090a2600680546001600160a01b0319166001600160a01b03831690811790915560408051632459b2e960e21b81529051639166cba4916004808201926020929091908290030181865afa158015620000cc573d6000803e3d6000fd5b505050506040513d601f19601f82011682018060405250810190620000f29190620002cc565b600280546001600160a01b0319166001600160a01b039283161790556006546040805163071bafb560e01b81529051919092169163071bafb59160048083019260209291908290030181865afa15801562000151573d6000803e3d6000fd5b505050506040513d601f19601f82011682018060405250810190620001779190620002cc565b600380546001600160a01b0319166001600160a01b03928316179055600654604080516307c53b8f60e11b815290519190921691630f8a771e9160048083019260209291908290030181865afa158015620001d6573d6000803e3d6000fd5b505050506040513d601f19601f82011682018060405250810190620001fc9190620002cc565b600480546001600160a01b0319166001600160a01b03928316178155600654604080516367550a3560e01b8152905191909316926367550a3592818101926020929091908290030181865afa1580156200025a573d6000803e3d6000fd5b505050506040513d601f19601f82011682018060405250810190620002809190620002cc565b600580546001600160a01b0319166001600160a01b039290921691909117905550670de0b6b3a7640000600755620002f3565b6001600160a01b0381168114620002c957600080fd5b50565b600060208284031215620002df57600080fd5b8151620002ec81620002b3565b9392505050565b61143e80620003036000396000f3fe608060405234801561001057600080fd5b506004361061018e5760003560e01c806367550a35116100de57806392b0d72111610097578063af378ce511610071578063af378ce514610316578063b443a08514610329578063bf7e214f1461033c578063e47e7e661461034f57600080fd5b806392b0d721146102e7578063a2f91af2146102fa578063a551878e1461030d57600080fd5b806367550a351461028a5780636c32c0a61461029d5780637296359a146102a65780637a9e5e4b146102ae5780638da5cb5b146102c15780639166cba4146102d457600080fd5b80632da8d3e61161014b578063454a2ab311610125578063454a2ab31461024a578063465b43d01461025d57806365d1df24146102655780636626b26d1461026d57600080fd5b80632da8d3e61461020e57806334e70cc2146102245780633de377ec1461023757600080fd5b80630434fe0b14610193578063071bafb51461019d5780630f8a771e146101cd57806313af4035146101e05780631406b921146101f357806317dc92f5146101fb575b600080fd5b61019b610362565b005b6003546101b0906001600160a01b031681565b6040516001600160a01b0390911681526020015b60405180910390f35b6004546101b0906001600160a01b031681565b61019b6101ee366004611286565b610490565b61019b610515565b61019b6102093660046112a3565b6105c5565b61021661077c565b6040519081526020016101c4565b6006546101b0906001600160a01b031681565b61019b6102453660046112a3565b6107ef565b6102166102583660046112a3565b610963565b6102166109a2565b6102166109d3565b60085461027a9060ff1681565b60405190151581526020016101c4565b6005546101b0906001600160a01b031681565b61021660075481565b610216610add565b61019b6102bc366004611286565b610b13565b6001546101b0906001600160a01b031681565b6002546101b0906001600160a01b031681565b61019b6102f53660046112bc565b610b8d565b61019b6103083660046112a3565b610c0c565b61021660095481565b61019b6103243660046112a3565b610c96565b61019b6103373660046112a3565b610cfb565b6000546101b0906001600160a01b031681565b61021661035d3660046112a3565b610d48565b6040516004359060243590819083903390600080356001600160e01b0319169161038e919036906112de565b60405180910390a461039e6109a2565b15806103af57506103ad61077c565b155b61048c5760006103cd6103c06109a2565b6103c861077c565b610d61565b600254604051630852cd8d60e31b8152600481018390529192506001600160a01b0316906342966c6890602401600060405180830381600087803b15801561041457600080fd5b505af1158015610428573d6000803e3d6000fd5b5050600354604051630852cd8d60e31b8152600481018590526001600160a01b0390911692506342966c689150602401600060405180830381600087803b15801561047257600080fd5b505af1158015610486573d6000803e3d6000fd5b50505050505b5050565b6104a6336000356001600160e01b031916610d7a565b6104cb5760405162461bcd60e51b81526004016104c29061130d565b60405180910390fd5b600180546001600160a01b0319166001600160a01b0383169081179091556040517fce241d7ca1f669fee44b6fc00b8eba2df3bb514eed0f6f668f8f89096e81ed9490600090a250565b6040516004359060243590819083903390600080356001600160e01b03191691610541919036906112de565b60405180910390a460085460ff1661055857600080fd5b6004546001600160a01b03166342966c68610571610add565b6040518263ffffffff1660e01b815260040161058f91815260200190565b600060405180830381600087803b1580156105a957600080fd5b505af11580156105bd573d6000803e3d6000fd5b505050505050565b6040516004359060243590819083903390600080356001600160e01b031916916105f1919036906112de565b60405180910390a460085460ff1661060857600080fd5b600254604051632770a7eb60e21b8152336004820152602481018590526001600160a01b0390911690639dc29fac90604401600060405180830381600087803b15801561065457600080fd5b505af1158015610668573d6000803e3d6000fd5b50505050600660009054906101000a90046001600160a01b03166001600160a01b0316637bd2bea76040518163ffffffff1660e01b8152600401602060405180830381865afa1580156106bf573d6000803e3d6000fd5b505050506040513d601f19601f820116820180604052508101906106e3919061133b565b6001600160a01b031663a9059cbb336106fe86600954610e55565b6040516001600160e01b031960e085901b1681526001600160a01b03909216600483015260248201526044015b6020604051808303816000875af115801561074a573d6000803e3d6000fd5b505050506040513d601f19601f8201168201806040525081019061076e9190611358565b61077757600080fd5b505050565b6003546040516370a0823160e01b81523060048201526000916001600160a01b0316906370a08231906024015b602060405180830381865afa1580156107c6573d6000803e3d6000fd5b505050506040513d601f19601f820116820180604052508101906107ea919061137a565b905090565b6040516004359060243590819083903390600080356001600160e01b0319169161081b919036906112de565b60405180910390a460085460ff1661083257600080fd5b6002546040516340c10f1960e01b8152336004820152602481018590526001600160a01b03909116906340c10f1990604401600060405180830381600087803b15801561087e57600080fd5b505af1158015610892573d6000803e3d6000fd5b50505050600660009054906101000a90046001600160a01b03166001600160a01b0316637bd2bea76040518163ffffffff1660e01b8152600401602060405180830381865afa1580156108e9573d6000803e3d6000fd5b505050506040513d601f19601f8201168201806040525081019061090d919061133b565b6001600160a01b03166323b872dd333061092987600954610e55565b6040516001600160e01b031960e086901b1681526001600160a01b039384166004820152929091166024830152604482015260640161072b565b600061099c826109976109746109d3565b61099261098a670de0b6b3a764000060026113a9565b600754610e97565b610eed565b610e55565b92915050565b6002546040516370a0823160e01b81523060048201526000916001600160a01b0316906370a08231906024016107a9565b600080600660009054906101000a90046001600160a01b03166001600160a01b03166351f910666040518163ffffffff1660e01b8152600401602060405180830381865afa158015610a29573d6000803e3d6000fd5b505050506040513d601f19601f82011682018060405250810190610a4d919061137a565b90506000600560009054906101000a90046001600160a01b03166001600160a01b031663495d32cb6040518163ffffffff1660e01b81526004016020604051808303816000875af1158015610aa6573d6000803e3d6000fd5b505050506040513d601f19601f82011682018060405250810190610aca919061137a565b9050610ad68282610f18565b9250505090565b600480546040516370a0823160e01b815230928101929092526000916001600160a01b03909116906370a08231906024016107a9565b610b29336000356001600160e01b031916610d7a565b610b455760405162461bcd60e51b81526004016104c29061130d565b600080546001600160a01b0319166001600160a01b038316908117825560405190917f1abebea81bfa2637f28358c371278fb15ede7ea8dd28d2e03b112ff6d936ada491a250565b6040516004359060243590819083903390600080356001600160e01b03191691610bb9919036906112de565b60405180910390a4610bd7336000356001600160e01b031916610d7a565b610bf35760405162461bcd60e51b81526004016104c29061130d565b836206761760ec1b03610c065760078390555b50505050565b6040516004359060243590819083903390600080356001600160e01b03191691610c38919036906112de565b60405180910390a4610c56336000356001600160e01b031916610d7a565b610c725760405162461bcd60e51b81526004016104c29061130d565b60085460ff1615610c8257600080fd5b50506008805460ff19166001179055600955565b6040516004359060243590819083903390600080356001600160e01b03191691610cc2919036906112de565b60405180910390a460085460ff1615610cda57600080fd5b610ce2610add565b831115610cf25761077783610f3f565b61077783610fcf565b6040516004359060243590819083903390600080356001600160e01b03191691610d27919036906112de565b60405180910390a460085460ff1615610d3f57600080fd5b610777836110cc565b600061099c82610997610d596109d3565b600754610eed565b600081831115610d715781610d73565b825b9392505050565b6000306001600160a01b03841603610d945750600161099c565b6001546001600160a01b0390811690841603610db25750600161099c565b6000546001600160a01b0316610dca5750600061099c565b60005460405163b700961360e01b81526001600160a01b0385811660048301523060248301526001600160e01b0319851660448301529091169063b700961390606401602060405180830381865afa158015610e2a573d6000803e3d6000fd5b505050506040513d601f19601f82011682018060405250810190610e4e9190611358565b905061099c565b60006b033b2e3c9fd0803ce8000000610e8d610e7185856111b5565b610e8860026b033b2e3c9fd0803ce80000006113c0565b61121c565b610d7391906113c0565b600082610ea483826113e2565b915081111561099c5760405162461bcd60e51b815260206004820152601560248201527464732d6d6174682d7375622d756e646572666c6f7760581b60448201526064016104c2565b6000670de0b6b3a7640000610e8d610f0585856111b5565b610e886002670de0b6b3a76400006113c0565b600081610e8d610f34856b033b2e3c9fd0803ce80000006111b5565b610e886002866113c0565b6004546001600160a01b031663a0712d68610f6183610f5c610add565b610e97565b6040518263ffffffff1660e01b8152600401610f7f91815260200190565b600060405180830381600087803b158015610f9957600080fd5b505af1158015610fad573d6000803e3d6000fd5b50505050610fba81610fcf565b610fc26109a2565b15610fcc57600080fd5b50565b6000610fda82610d48565b11610fe457600080fd5b60048054604051632dd4ea6360e21b81523392810192909252602482018390526001600160a01b03169063b753a98c90604401600060405180830381600087803b15801561103157600080fd5b505af1158015611045573d6000803e3d6000fd5b50506002546001600160a01b0316915063f2d5d56b90503361106684610d48565b6040516001600160e01b031960e085901b1681526001600160a01b0390921660048301526024820152604401600060405180830381600087803b1580156110ac57600080fd5b505af11580156110c0573d6000803e3d6000fd5b50505050610fcc610362565b6110d4610362565b6002546001600160a01b031663b753a98c336110ef84610963565b6040516001600160e01b031960e085901b1681526001600160a01b0390921660048301526024820152604401600060405180830381600087803b15801561113557600080fd5b505af1158015611149573d6000803e3d6000fd5b505060048054604051632770a7eb60e21b81523392810192909252602482018590526001600160a01b03169250639dc29fac9150604401600060405180830381600087803b15801561119a57600080fd5b505af11580156111ae573d6000803e3d6000fd5b5050505050565b60008115806111d9575082826111cb81836113a9565b92506111d790836113c0565b145b61099c5760405162461bcd60e51b815260206004820152601460248201527364732d6d6174682d6d756c2d6f766572666c6f7760601b60448201526064016104c2565b60008261122983826113f5565b915081101561099c5760405162461bcd60e51b815260206004820152601460248201527364732d6d6174682d6164642d6f766572666c6f7760601b60448201526064016104c2565b6001600160a01b0381168114610fcc57600080fd5b60006020828403121561129857600080fd5b8135610d7381611271565b6000602082840312156112b557600080fd5b5035919050565b600080604083850312156112cf57600080fd5b50508035926020909101359150565b60208152816020820152818360408301376000818301604090810191909152601f909201601f19160101919050565b602080825260149082015273191ccb585d5d1a0b5d5b985d5d1a1bdc9a5e995960621b604082015260600190565b60006020828403121561134d57600080fd5b8151610d7381611271565b60006020828403121561136a57600080fd5b81518015158114610d7357600080fd5b60006020828403121561138c57600080fd5b5051919050565b634e487b7160e01b600052601160045260246000fd5b808202811582820484141761099c5761099c611393565b6000826113dd57634e487b7160e01b600052601260045260246000fd5b500490565b8181038181111561099c5761099c611393565b8082018082111561099c5761099c61139356fea2646970667358221220f287ead6777fb5b4e4e2d4f390ad135e79f9d05084aba53f8222f304bd7f291664736f6c63430008140033",
    "linkReferences": {}
  },
  "methodIdentifiers": {
    "ask(uint256)": "e47e7e66",
    "authority()": "bf7e214f",
    "bid(uint256)": "454a2ab3",
    "boom(uint256)": "b443a085",
    "bust(uint256)": "af378ce5",
    "cage(uint256)": "a2f91af2",
    "cash(uint256)": "17dc92f5",
    "fix()": "a551878e",
    "fog()": "7296359a",
    "gap()": "6c32c0a6",
    "heal()": "0434fe0b",
    "joy()": "465b43d0",
    "mock(uint256)": "3de377ec",
    "mold(bytes32,uint256)": "92b0d721",
    "off()": "6626b26d",
    "owner()": "8da5cb5b",
    "s2s()": "65d1df24",
    "sai()": "9166cba4",
    "setAuthority(address)": "7a9e5e4b",
    "setOwner(address)": "13af4035",
    "sin()": "071bafb5",
    "skr()": "0f8a771e",
    "tub()": "34e70cc2",
    "vent()": "1406b921",
    "vox()": "67550a35",
    "woe()": "2da8d3e6"
  },
  "id": 29
}