{
  "abi": [
    {
      "anonymous": false,
      "inputs": [
        {
          "indexed": true,
          "internalType": "address",
          "name": "authority",
          "type": "address"
        }
      ],
      "name": "LogSetAuthority",
      "type": "event"
    },
    {
      "anonymous": false,
      "inputs": [
        {
          "indexed": true,
          "internalType": "address",
          "name": "owner",
          "type": "address"
        }
      ],
      "name": "LogSetOwner",
      "type": "event"
    },
    {
      "inputs": [],
      "name": "authority",
      "outputs": [
        {
          "internalType": "contract DSAuthority",
          "name": "",
          "type": "address"
        }
      ],
      "stateMutability": "view",
      "type": "function"
    },
    {
      "inputs": [
        {
          "internalType": "address",
          "name": "caller",
          "type": "address"
        },
        {
          "internalType": "address",
          "name": "code",
          "type": "address"
        },
        {
          "internalType": "bytes4",
          "name": "sig",
          "type": "bytes4"
        }
      ],
      "name": "canCall",
      "outputs": [
        {
          "internalType": "bool",
          "name": "",
          "type": "bool"
        }
      ],
      "stateMutability": "view",
      "type": "function"
    },
    {
      "inputs": [
        {
          "internalType": "address",
          "name": "code",
          "type": "address"
        },
        {
          "internalType": "bytes4",
          "name": "sig",
          "type": "bytes4"
        }
      ],
      "name": "getCapabilityRoles",
      "outputs": [
        {
          "internalType": "bytes32",
          "name": "",
          "type": "bytes32"
        }
      ],
      "stateMutability": "view",
      "type": "function"
    },
    {
      "inputs": [
        {
          "internalType": "address",
          "name": "who",
          "type": "address"
        }
      ],
      "name": "getUserRoles",
      "outputs": [
        {
          "internalType": "bytes32",
          "name": "",
          "type": "bytes32"
        }
      ],
      "stateMutability": "view",
      "type": "function"
    },
    {
      "inputs": [
        {
          "internalType": "address",
          "name": "who",
          "type": "address"
        },
        {
          "internalType": "uint8",
          "name": "role",
          "type": "uint8"
        }
      ],
      "name": "hasUserRole",
      "outputs": [
        {
          "internalType": "bool",
          "name": "",
          "type": "bool"
        }
      ],
      "stateMutability": "view",
      "type": "function"
    },
    {
      "inputs": [
        {
          "internalType": "address",
          "name": "code",
          "type": "address"
        },
        {
          "internalType": "bytes4",
          "name": "sig",
          "type": "bytes4"
        }
      ],
      "name": "isCapabilityPublic",
      "outputs": [
        {
          "internalType": "bool",
          "name": "",
          "type": "bool"
        }
      ],
      "stateMutability": "view",
      "type": "function"
    },
    {
      "inputs": [
        {
          "internalType": "address",
          "name": "who",
          "type": "address"
        }
      ],
      "name": "isUserRoot",
      "outputs": [
        {
          "internalType": "bool",
          "name": "",
          "type": "bool"
        }
      ],
      "stateMutability": "view",
      "type": "function"
    },
    {
      "inputs": [],
      "name": "owner",
      "outputs": [
        {
          "internalType": "address",
          "name": "",
          "type": "address"
        }
      ],
      "stateMutability": "view",
      "type": "function"
    },
    {
      "inputs": [
        {
          "internalType": "contract DSAuthority",
          "name": "authority_",
          "type": "address"
        }
      ],
      "name": "setAuthority",
      "outputs": [],
      "stateMutability": "nonpayable",
      "type": "function"
    },
    {
      "inputs": [
        {
          "internalType": "address",
          "name": "owner_",
          "type": "address"
        }
      ],
      "name": "setOwner",
      "outputs": [],
      "stateMutability": "nonpayable",
      "type": "function"
    },
    {
      "inputs": [
        {
          "internalType": "address",
          "name": "code",
          "type": "address"
        },
        {
          "internalType": "bytes4",
          "name": "sig",
          "type": "bytes4"
        },
        {
          "internalType": "bool",
          "name": "enabled",
          "type": "bool"
        }
      ],
      "name": "setPublicCapability",
      "outputs": [],
      "stateMutability": "nonpayable",
      "type": "function"
    },
    {
      "inputs": [
        {
          "internalType": "uint8",
          "name": "role",
          "type": "uint8"
        },
        {
          "internalType": "address",
          "name": "code",
          "type": "address"
        },
        {
          "internalType": "bytes4",
          "name": "sig",
          "type": "bytes4"
        },
        {
          "internalType": "bool",
          "name": "enabled",
          "type": "bool"
        }
      ],
      "name": "setRoleCapability",
      "outputs": [],
      "stateMutability": "nonpayable",
      "type": "function"
    },
    {
      "inputs": [
        {
          "internalType": "address",
          "name": "who",
          "type": "address"
        },
        {
          "internalType": "bool",
          "name": "enabled",
          "type": "bool"
        }
      ],
      "name": "setRootUser",
      "outputs": [],
      "stateMutability": "nonpayable",
      "type": "function"
    },
    {
      "inputs": [
        {
          "internalType": "address",
          "name": "who",
          "type": "address"
        },
        {
          "internalType": "uint8",
          "name": "role",
          "type": "uint8"
        },
        {
          "internalType": "bool",
          "name": "enabled",
          "type": "bool"
        }
      ],
      "name": "setUserRole",
      "outputs": [],
      "stateMutability": "nonpayable",
      "type": "function"
    }
  ],
  "bytecode": {
    "object": "0x608060405234801561001057600080fd5b50600180546001600160a01b031916339081179091556040517fce241d7ca1f669fee44b6fc00b8eba2df3bb514eed0f6f668f8f89096e81ed9490600090a2610b678061005e6000396000f3fe608060405234801561001057600080fd5b50600436106100ea5760003560e01c80638da5cb5b1161008c578063bf7e214f11610066578063bf7e214f14610200578063c6b0263e14610213578063d381ba7c14610226578063fbf807731461023957600080fd5b80638da5cb5b146101af578063a078f737146101da578063b7009613146101ed57600080fd5b80632f47571f116100c85780632f47571f1461015357806367aff484146101765780637a9e5e4b146101895780637d40583d1461019c57600080fd5b806306a36aee146100ef57806313af40351461012b57806327538e9014610140575b600080fd5b6101186100fd3660046107d7565b6001600160a01b031660009081526003602052604090205490565b6040519081526020015b60405180910390f35b61013e6101393660046107d7565b610265565b005b61011861014e366004610811565b6102ea565b610166610161366004610811565b61031f565b6040519015158152602001610122565b61013e610184366004610865565b610356565b61013e6101973660046107d7565b610403565b61013e6101aa3660046108ae565b61047d565b6001546101c2906001600160a01b031681565b6040516001600160a01b039091168152602001610122565b6101666101e8366004610906565b61056a565b6101666101fb366004610932565b6105a1565b6000546101c2906001600160a01b031681565b61013e610221366004610979565b610614565b61013e6102343660046109a7565b610687565b6101666102473660046107d7565b6001600160a01b031660009081526002602052604090205460ff1690565b61027b336000356001600160e01b0319166106e4565b6102a05760405162461bcd60e51b8152600401610297906109e0565b60405180910390fd5b600180546001600160a01b0319166001600160a01b0383169081179091556040517fce241d7ca1f669fee44b6fc00b8eba2df3bb514eed0f6f668f8f89096e81ed9490600090a250565b6001600160a01b03821660009081526004602090815260408083206001600160e01b0319851684529091529020545b92915050565b6001600160a01b03821660009081526005602090815260408083206001600160e01b03198516845290915290205460ff1692915050565b61036c336000356001600160e01b0319166106e4565b6103885760405162461bcd60e51b8152600401610297906109e0565b6001600160a01b038316600090815260036020526040812054906103b060ff85166002610b08565b905082156103da576001600160a01b038516600090815260036020526040902082821790556103fc565b6001600160a01b03851660009081526003602052604090206000198218831690555b5050505050565b610419336000356001600160e01b0319166106e4565b6104355760405162461bcd60e51b8152600401610297906109e0565b600080546001600160a01b0319166001600160a01b038316908117825560405190917f1abebea81bfa2637f28358c371278fb15ede7ea8dd28d2e03b112ff6d936ada491a250565b610493336000356001600160e01b0319166106e4565b6104af5760405162461bcd60e51b8152600401610297906109e0565b6001600160a01b03831660009081526004602090815260408083206001600160e01b031986168452909152812054906104ec60ff87166002610b08565b9050821561052b576001600160a01b03851660009081526004602090815260408083206001600160e01b03198816845290915290208282179055610562565b6001600160a01b03851660009081526004602090815260408083206001600160e01b03198816845290915290206000198218831690555b505050505050565b6001600160a01b038216600090815260036020526040812054600061059360ff85166002610b08565b919091161515949350505050565b6001600160a01b03831660009081526002602052604081205460ff16806105cd57506105cd838361031f565b156105da5750600161060d565b6001600160a01b038416600090815260036020526040812054906105fe85856102ea565b919091161515915061060d9050565b9392505050565b61062a336000356001600160e01b0319166106e4565b6106465760405162461bcd60e51b8152600401610297906109e0565b6001600160a01b0390921660009081526005602090815260408083206001600160e01b0319909416835292905220805491151560ff19909216919091179055565b61069d336000356001600160e01b0319166106e4565b6106b95760405162461bcd60e51b8152600401610297906109e0565b6001600160a01b03919091166000908152600260205260409020805460ff1916911515919091179055565b6000306001600160a01b038416036106fe57506001610319565b6001546001600160a01b039081169084160361071c57506001610319565b6000546001600160a01b031661073457506000610319565b60005460405163b700961360e01b81526001600160a01b0385811660048301523060248301526001600160e01b0319851660448301529091169063b700961390606401602060405180830381865afa158015610794573d6000803e3d6000fd5b505050506040513d601f19601f820116820180604052508101906107b89190610b14565b9050610319565b6001600160a01b03811681146107d457600080fd5b50565b6000602082840312156107e957600080fd5b813561060d816107bf565b80356001600160e01b03198116811461080c57600080fd5b919050565b6000806040838503121561082457600080fd5b823561082f816107bf565b915061083d602084016107f4565b90509250929050565b803560ff8116811461080c57600080fd5b80151581146107d457600080fd5b60008060006060848603121561087a57600080fd5b8335610885816107bf565b925061089360208501610846565b915060408401356108a381610857565b809150509250925092565b600080600080608085870312156108c457600080fd5b6108cd85610846565b935060208501356108dd816107bf565b92506108eb604086016107f4565b915060608501356108fb81610857565b939692955090935050565b6000806040838503121561091957600080fd5b8235610924816107bf565b915061083d60208401610846565b60008060006060848603121561094757600080fd5b8335610952816107bf565b92506020840135610962816107bf565b9150610970604085016107f4565b90509250925092565b60008060006060848603121561098e57600080fd5b8335610999816107bf565b9250610893602085016107f4565b600080604083850312156109ba57600080fd5b82356109c5816107bf565b915060208301356109d581610857565b809150509250929050565b602080825260149082015273191ccb585d5d1a0b5d5b985d5d1a1bdc9a5e995960621b604082015260600190565b634e487b7160e01b600052601160045260246000fd5b600181815b80851115610a5f578160001904821115610a4557610a45610a0e565b80851615610a5257918102915b93841c9390800290610a29565b509250929050565b600082610a7657506001610319565b81610a8357506000610319565b8160018114610a995760028114610aa357610abf565b6001915050610319565b60ff841115610ab457610ab4610a0e565b50506001821b610319565b5060208310610133831016604e8410600b8410161715610ae2575081810a610319565b610aec8383610a24565b8060001904821115610b0057610b00610a0e565b029392505050565b600061060d8383610a67565b600060208284031215610b2657600080fd5b815161060d8161085756fea2646970667358221220fa4f0d1f9382e32b9a111b73b08edd808023071cb2f50b75a2a6aafb7db3317e64736f6c63430008140033",
    "linkReferences": {}
  },
  "methodIdentifiers": {
    "authority()": "bf7e214f",
    "canCall(address,address,bytes4)": "b7009613",
    "getCapabilityRoles(address,bytes4)": "27538e90",
    "getUserRoles(address)": "06a36aee",
    "hasUserRole(address,uint8)": "a078f737",
    "isCapabilityPublic(address,bytes4)": "2f47571f",
    "isUserRoot(address)": "fbf80773",
    "owner()": "8da5cb5b",
    "setAuthority(address)": "7a9e5e4b",
    "setOwner(address)": "13af4035",
    "setPublicCapability(address,bytes4,bool)": "c6b0263e",
    "setRoleCapability(uint8,address,bytes4,bool)": "7d40583d",
    "setRootUser(address,bool)": "d381ba7c",
    "setUserRole(address,uint8,bool)": "67aff484"
  },
  "id": 5
}