{
  "abi": [
    {
      "inputs": [
        {
          "internalType": "string",
          "name": "name",
          "type": "string"
        },
        {
          "internalType": "string",
          "name": "symbol",
          "type": "string"
        }
      ],
      "stateMutability": "nonpayable",
      "type": "constructor"
    },
    {
      "anonymous": false,
      "inputs": [
        {
          "indexed": true,
          "internalType": "address",
          "name": "owner",
          "type": "address"
        },
        {
          "indexed": true,
          "internalType": "address",
          "name": "spender",
          "type": "address"
        },
        {
          "indexed": false,
          "internalType": "uint256",
          "name": "value",
          "type": "uint256"
        }
      ],
      "name": "Approval",
      "type": "event"
    },
    {
      "anonymous": false,
      "inputs": [
        {
          "indexed": true,
          "internalType": "address",
          "name": "from",
          "type": "address"
        },
        {
          "indexed": true,
          "internalType": "address",
          "name": "to",
          "type": "address"
        },
        {
          "indexed": false,
          "internalType": "uint256",
          "name": "value",
          "type": "uint256"
        }
      ],
      "name": "Transfer",
      "type": "event"
    },
    {
      "inputs": [
        {
          "internalType": "address",
          "name": "account",
          "type": "address"
        }
      ],
      "name": "addSpecialAddress",
      "outputs": [],
      "stateMutability": "nonpayable",
      "type": "function"
    },
    {
      "inputs": [
        {
          "internalType": "address",
          "name": "owner",
          "type": "address"
        },
        {
          "internalType": "address",
          "name": "spender",
          "type": "address"
        }
      ],
      "name": "allowance",
      "outputs": [
        {
          "internalType": "uint256",
          "name": "",
          "type": "uint256"
        }
      ],
      "stateMutability": "view",
      "type": "function"
    },
    {
      "inputs": [
        {
          "internalType": "address",
          "name": "spender",
          "type": "address"
        },
        {
          "internalType": "uint256",
          "name": "amount",
          "type": "uint256"
        }
      ],
      "name": "approve",
      "outputs": [
        {
          "internalType": "bool",
          "name": "",
          "type": "bool"
        }
      ],
      "stateMutability": "nonpayable",
      "type": "function"
    },
    {
      "inputs": [
        {
          "internalType": "address",
          "name": "account",
          "type": "address"
        }
      ],
      "name": "balanceOf",
      "outputs": [
        {
          "internalType": "uint256",
          "name": "",
          "type": "uint256"
        }
      ],
      "stateMutability": "view",
      "type": "function"
    },
    {
      "inputs": [
        {
          "internalType": "address",
          "name": "form",
          "type": "address"
        },
        {
          "internalType": "uint256",
          "name": "amount",
          "type": "uint256"
        }
      ],
      "name": "burn",
      "outputs": [],
      "stateMutability": "nonpayable",
      "type": "function"
    },
    {
      "inputs": [],
      "name": "decimal",
      "outputs": [
        {
          "internalType": "uint8",
          "name": "",
          "type": "uint8"
        }
      ],
      "stateMutability": "view",
      "type": "function"
    },
    {
      "inputs": [],
      "name": "decimals",
      "outputs": [
        {
          "internalType": "uint8",
          "name": "",
          "type": "uint8"
        }
      ],
      "stateMutability": "view",
      "type": "function"
    },
    {
      "inputs": [
        {
          "internalType": "address",
          "name": "spender",
          "type": "address"
        },
        {
          "internalType": "uint256",
          "name": "subtractedValue",
          "type": "uint256"
        }
      ],
      "name": "decreaseAllowance",
      "outputs": [
        {
          "internalType": "bool",
          "name": "",
          "type": "bool"
        }
      ],
      "stateMutability": "nonpayable",
      "type": "function"
    },
    {
      "inputs": [
        {
          "internalType": "address",
          "name": "account",
          "type": "address"
        }
      ],
      "name": "getSpAd",
      "outputs": [
        {
          "internalType": "bool",
          "name": "",
          "type": "bool"
        }
      ],
      "stateMutability": "nonpayable",
      "type": "function"
    },
    {
      "inputs": [
        {
          "internalType": "address",
          "name": "spender",
          "type": "address"
        },
        {
          "internalType": "uint256",
          "name": "addedValue",
          "type": "uint256"
        }
      ],
      "name": "increaseAllowance",
      "outputs": [
        {
          "internalType": "bool",
          "name": "",
          "type": "bool"
        }
      ],
      "stateMutability": "nonpayable",
      "type": "function"
    },
    {
      "inputs": [
        {
          "internalType": "address",
          "name": "to",
          "type": "address"
        },
        {
          "internalType": "uint256",
          "name": "amount",
          "type": "uint256"
        }
      ],
      "name": "mint",
      "outputs": [],
      "stateMutability": "nonpayable",
      "type": "function"
    },
    {
      "inputs": [],
      "name": "name",
      "outputs": [
        {
          "internalType": "string",
          "name": "",
          "type": "string"
        }
      ],
      "stateMutability": "view",
      "type": "function"
    },
    {
      "inputs": [
        {
          "internalType": "address",
          "name": "account",
          "type": "address"
        }
      ],
      "name": "removeSpecialAddress",
      "outputs": [],
      "stateMutability": "nonpayable",
      "type": "function"
    },
    {
      "inputs": [],
      "name": "symbol",
      "outputs": [
        {
          "internalType": "string",
          "name": "",
          "type": "string"
        }
      ],
      "stateMutability": "view",
      "type": "function"
    },
    {
      "inputs": [],
      "name": "totalSupply",
      "outputs": [
        {
          "internalType": "uint256",
          "name": "",
          "type": "uint256"
        }
      ],
      "stateMutability": "view",
      "type": "function"
    },
    {
      "inputs": [
        {
          "internalType": "address",
          "name": "recipient",
          "type": "address"
        },
        {
          "internalType": "uint256",
          "name": "amount",
          "type": "uint256"
        }
      ],
      "name": "transfer",
      "outputs": [
        {
          "internalType": "bool",
          "name": "",
          "type": "bool"
        }
      ],
      "stateMutability": "nonpayable",
      "type": "function"
    },
    {
      "inputs": [
        {
          "internalType": "address",
          "name": "from",
          "type": "address"
        },
        {
          "internalType": "address",
          "name": "to",
          "type": "address"
        },
        {
          "internalType": "uint256",
          "name": "amount",
          "type": "uint256"
        }
      ],
      "name": "transferFrom",
      "outputs": [
        {
          "internalType": "bool",
          "name": "",
          "type": "bool"
        }
      ],
      "stateMutability": "nonpayable",
      "type": "function"
    }
  ],
  "bytecode": {
    "object": "0x60806040523480156200001157600080fd5b506040516200119b3803806200119b8339810160408190526200003491620002b3565b81816003620000448382620003ab565b506004620000538282620003ab565b5050336000818152600860205260409020805460ff191660011790556200008b9150620000856012620f42406200048d565b62000093565b5050620004c3565b3360009081526008602052604090205460ff16620001115760405162461bcd60e51b815260206004820152603060248201527f4f6e6c7920746865207370656369616c20616464726573732063616e2063616c60448201526f36103a3434b990333ab731ba34b7b71760811b60648201526084015b60405180910390fd5b6200011d828262000121565b5050565b6001600160a01b038216620001795760405162461bcd60e51b815260206004820152601f60248201527f45524332303a206d696e7420746f20746865207a65726f206164647265737300604482015260640162000108565b80600260008282546200018d9190620004ad565b90915550506001600160a01b038216600081815260208181526040808320805486019055518481527fddf252ad1be2c89b69c2b068fc378daa952ba7f163c4a11628f55a4df523b3ef910160405180910390a36200011d600083835b505050565b634e487b7160e01b600052604160045260246000fd5b600082601f8301126200021657600080fd5b81516001600160401b0380821115620002335762000233620001ee565b604051601f8301601f19908116603f011681019082821181831017156200025e576200025e620001ee565b816040528381526020925086838588010111156200027b57600080fd5b600091505b838210156200029f578582018301518183018401529082019062000280565b600093810190920192909252949350505050565b60008060408385031215620002c757600080fd5b82516001600160401b0380821115620002df57600080fd5b620002ed8683870162000204565b935060208501519150808211156200030457600080fd5b50620003138582860162000204565b9150509250929050565b600181811c908216806200033257607f821691505b6020821081036200035357634e487b7160e01b600052602260045260246000fd5b50919050565b601f821115620001e957600081815260208120601f850160051c81016020861015620003825750805b601f850160051c820191505b81811015620003a3578281556001016200038e565b505050505050565b81516001600160401b03811115620003c757620003c7620001ee565b620003df81620003d884546200031d565b8462000359565b602080601f831160018114620004175760008415620003fe5750858301515b600019600386901b1c1916600185901b178555620003a3565b600085815260208120601f198616915b82811015620004485788860151825594840194600190910190840162000427565b5085821015620004675787850151600019600388901b60f8161c191681555b5050505050600190811b01905550565b634e487b7160e01b600052601160045260246000fd5b8082028115828204841417620004a757620004a762000477565b92915050565b80820180821115620004a757620004a762000477565b610cc880620004d36000396000f3fe608060405234801561001057600080fd5b506004361061010b5760003560e01c806340c10f19116100a257806395d89b411161007157806395d89b41146102365780639dc29fac1461023e578063a457c2d714610251578063a9059cbb14610264578063dd62ed3e1461027757600080fd5b806340c10f19146101df57806366e03f12146101f257806370a082311461020557806376809ce31461022e57600080fd5b806323b872dd116100de57806323b872dd14610178578063313ce5671461018b57806339509351146101a05780633a573834146101b357600080fd5b806306fdde0314610110578063095ea7b31461012e57806317bfd3641461015157806318160ddd14610166575b600080fd5b61011861028a565b6040516101259190610ac2565b60405180910390f35b61014161013c366004610b2c565b61031c565b6040519015158152602001610125565b61016461015f366004610b56565b610336565b005b6002545b604051908152602001610125565b610141610186366004610b78565b610392565b60125b60405160ff9091168152602001610125565b6101416101ae366004610b2c565b6103b6565b6101416101c1366004610b56565b6001600160a01b031660009081526008602052604090205460ff1690565b6101646101ed366004610b2c565b6103d8565b610164610200366004610b56565b610415565b61016a610213366004610b56565b6001600160a01b031660009081526020819052604090205490565b61018e601281565b610118610465565b61016461024c366004610b2c565b610474565b61014161025f366004610b2c565b6104ad565b610141610272366004610b2c565b610528565b61016a610285366004610bb4565b61056b565b60606003805461029990610be7565b80601f01602080910402602001604051908101604052809291908181526020018280546102c590610be7565b80156103125780601f106102e757610100808354040283529160200191610312565b820191906000526020600020905b8154815290600101906020018083116102f557829003601f168201915b5050505050905090565b60003361032a818585610596565b60019150505b92915050565b3360009081526008602052604090205460ff1661036e5760405162461bcd60e51b815260040161036590610c21565b60405180910390fd5b6001600160a01b03166000908152600860205260409020805460ff19166001179055565b6000336103a08582856106bb565b6103ab858585610735565b506001949350505050565b60003361032a8185856103c9838361056b565b6103d39190610c71565b610596565b3360009081526008602052604090205460ff166104075760405162461bcd60e51b815260040161036590610c21565b61041182826108d9565b5050565b3360009081526008602052604090205460ff166104445760405162461bcd60e51b815260040161036590610c21565b6001600160a01b03166000908152600860205260409020805460ff19169055565b60606004805461029990610be7565b3360009081526008602052604090205460ff166104a35760405162461bcd60e51b815260040161036590610c21565b6104118282610998565b600033816104bb828661056b565b90508381101561051b5760405162461bcd60e51b815260206004820152602560248201527f45524332303a2064656372656173656420616c6c6f77616e63652062656c6f77604482015264207a65726f60d81b6064820152608401610365565b6103ab8286868403610596565b3360009081526008602052604081205460ff166105575760405162461bcd60e51b815260040161036590610c21565b610562338484610735565b50600192915050565b6001600160a01b03918216600090815260016020908152604080832093909416825291909152205490565b6001600160a01b0383166105f85760405162461bcd60e51b8152602060048201526024808201527f45524332303a20617070726f76652066726f6d20746865207a65726f206164646044820152637265737360e01b6064820152608401610365565b6001600160a01b0382166106595760405162461bcd60e51b815260206004820152602260248201527f45524332303a20617070726f766520746f20746865207a65726f206164647265604482015261737360f01b6064820152608401610365565b6001600160a01b0383811660008181526001602090815260408083209487168084529482529182902085905590518481527f8c5be1e5ebec7d5bd14f71427d1e84f3dd0314c0f7b2291e5b200ac8c7c3b92591015b60405180910390a3505050565b60006106c7848461056b565b9050600019811461072f57818110156107225760405162461bcd60e51b815260206004820152601d60248201527f45524332303a20696e73756666696369656e7420616c6c6f77616e63650000006044820152606401610365565b61072f8484848403610596565b50505050565b6001600160a01b0383166107995760405162461bcd60e51b815260206004820152602560248201527f45524332303a207472616e736665722066726f6d20746865207a65726f206164604482015264647265737360d81b6064820152608401610365565b6001600160a01b0382166107fb5760405162461bcd60e51b815260206004820152602360248201527f45524332303a207472616e7366657220746f20746865207a65726f206164647260448201526265737360e81b6064820152608401610365565b6001600160a01b038316600090815260208190526040902054818110156108735760405162461bcd60e51b815260206004820152602660248201527f45524332303a207472616e7366657220616d6f756e7420657863656564732062604482015265616c616e636560d01b6064820152608401610365565b6001600160a01b03848116600081815260208181526040808320878703905593871680835291849020805487019055925185815290927fddf252ad1be2c89b69c2b068fc378daa952ba7f163c4a11628f55a4df523b3ef910160405180910390a361072f565b6001600160a01b03821661092f5760405162461bcd60e51b815260206004820152601f60248201527f45524332303a206d696e7420746f20746865207a65726f2061646472657373006044820152606401610365565b80600260008282546109419190610c71565b90915550506001600160a01b038216600081815260208181526040808320805486019055518481527fddf252ad1be2c89b69c2b068fc378daa952ba7f163c4a11628f55a4df523b3ef910160405180910390a35050565b6001600160a01b0382166109f85760405162461bcd60e51b815260206004820152602160248201527f45524332303a206275726e2066726f6d20746865207a65726f206164647265736044820152607360f81b6064820152608401610365565b6001600160a01b03821660009081526020819052604090205481811015610a6c5760405162461bcd60e51b815260206004820152602260248201527f45524332303a206275726e20616d6f756e7420657863656564732062616c616e604482015261636560f01b6064820152608401610365565b6001600160a01b0383166000818152602081815260408083208686039055600280548790039055518581529192917fddf252ad1be2c89b69c2b068fc378daa952ba7f163c4a11628f55a4df523b3ef91016106ae565b600060208083528351808285015260005b81811015610aef57858101830151858201604001528201610ad3565b506000604082860101526040601f19601f8301168501019250505092915050565b80356001600160a01b0381168114610b2757600080fd5b919050565b60008060408385031215610b3f57600080fd5b610b4883610b10565b946020939093013593505050565b600060208284031215610b6857600080fd5b610b7182610b10565b9392505050565b600080600060608486031215610b8d57600080fd5b610b9684610b10565b9250610ba460208501610b10565b9150604084013590509250925092565b60008060408385031215610bc757600080fd5b610bd083610b10565b9150610bde60208401610b10565b90509250929050565b600181811c90821680610bfb57607f821691505b602082108103610c1b57634e487b7160e01b600052602260045260246000fd5b50919050565b60208082526030908201527f4f6e6c7920746865207370656369616c20616464726573732063616e2063616c60408201526f36103a3434b990333ab731ba34b7b71760811b606082015260800190565b8082018082111561033057634e487b7160e01b600052601160045260246000fdfea2646970667358221220628f90d9819e20ee619108705a449086c7bf912454e5214043012535ff5dcc1e64736f6c63430008110033",
    "linkReferences": {}
  },
  "methodIdentifiers": {
    "addSpecialAddress(address)": "17bfd364",
    "allowance(address,address)": "dd62ed3e",
    "approve(address,uint256)": "095ea7b3",
    "balanceOf(address)": "70a08231",
    "burn(address,uint256)": "9dc29fac",
    "decimal()": "76809ce3",
    "decimals()": "313ce567",
    "decreaseAllowance(address,uint256)": "a457c2d7",
    "getSpAd(address)": "3a573834",
    "increaseAllowance(address,uint256)": "39509351",
    "mint(address,uint256)": "40c10f19",
    "name()": "06fdde03",
    "removeSpecialAddress(address)": "66e03f12",
    "symbol()": "95d89b41",
    "totalSupply()": "18160ddd",
    "transfer(address,uint256)": "a9059cbb",
    "transferFrom(address,address,uint256)": "23b872dd"
  },
  "id": 26
}