{
  "abi": [
    {
      "inputs": [
        {
          "internalType": "contract GemFab",
          "name": "gemFab_",
          "type": "address"
        },
        {
          "internalType": "contract VoxFab",
          "name": "voxFab_",
          "type": "address"
        },
        {
          "internalType": "contract TubFab",
          "name": "tubFab_",
          "type": "address"
        },
        {
          "internalType": "contract TapFab",
          "name": "tapFab_",
          "type": "address"
        },
        {
          "internalType": "contract TopFab",
          "name": "topFab_",
          "type": "address"
        },
        {
          "internalType": "contract MomFab",
          "name": "momFab_",
          "type": "address"
        },
        {
          "internalType": "contract DadFab",
          "name": "dadFab_",
          "type": "address"
        }
      ],
      "stateMutability": "nonpayable",
      "type": "constructor"
    },
    {
      "anonymous": false,
      "inputs": [
        {
          "indexed": true,
          "internalType": "address",
          "name": "authority",
          "type": "address"
        }
      ],
      "name": "LogSetAuthority",
      "type": "event"
    },
    {
      "anonymous": false,
      "inputs": [
        {
          "indexed": true,
          "internalType": "address",
          "name": "owner",
          "type": "address"
        }
      ],
      "name": "LogSetOwner",
      "type": "event"
    },
    {
      "inputs": [],
      "name": "authority",
      "outputs": [
        {
          "internalType": "contract DSAuthority",
          "name": "",
          "type": "address"
        }
      ],
      "stateMutability": "view",
      "type": "function"
    },
    {
      "inputs": [
        {
          "internalType": "contract DSAuthority",
          "name": "authority",
          "type": "address"
        }
      ],
      "name": "configAuth",
      "outputs": [],
      "stateMutability": "nonpayable",
      "type": "function"
    },
    {
      "inputs": [],
      "name": "configParams",
      "outputs": [],
      "stateMutability": "nonpayable",
      "type": "function"
    },
    {
      "inputs": [],
      "name": "dad",
      "outputs": [
        {
          "internalType": "contract DSGuard",
          "name": "",
          "type": "address"
        }
      ],
      "stateMutability": "view",
      "type": "function"
    },
    {
      "inputs": [],
      "name": "dadFab",
      "outputs": [
        {
          "internalType": "contract DadFab",
          "name": "",
          "type": "address"
        }
      ],
      "stateMutability": "view",
      "type": "function"
    },
    {
      "inputs": [],
      "name": "gemFab",
      "outputs": [
        {
          "internalType": "contract GemFab",
          "name": "",
          "type": "address"
        }
      ],
      "stateMutability": "view",
      "type": "function"
    },
    {
      "inputs": [],
      "name": "makeTapTop",
      "outputs": [],
      "stateMutability": "nonpayable",
      "type": "function"
    },
    {
      "inputs": [],
      "name": "makeTokens",
      "outputs": [],
      "stateMutability": "nonpayable",
      "type": "function"
    },
    {
      "inputs": [
        {
          "internalType": "contract ERC20",
          "name": "gem",
          "type": "address"
        },
        {
          "internalType": "contract DSToken",
          "name": "gov",
          "type": "address"
        },
        {
          "internalType": "contract DSValue",
          "name": "pip",
          "type": "address"
        },
        {
          "internalType": "contract DSValue",
          "name": "pep",
          "type": "address"
        },
        {
          "internalType": "contract GemPit",
          "name": "pit",
          "type": "address"
        }
      ],
      "name": "makeVoxTub",
      "outputs": [],
      "stateMutability": "nonpayable",
      "type": "function"
    },
    {
      "inputs": [],
      "name": "mom",
      "outputs": [
        {
          "internalType": "contract SaiMom",
          "name": "",
          "type": "address"
        }
      ],
      "stateMutability": "view",
      "type": "function"
    },
    {
      "inputs": [],
      "name": "momFab",
      "outputs": [
        {
          "internalType": "contract MomFab",
          "name": "",
          "type": "address"
        }
      ],
      "stateMutability": "view",
      "type": "function"
    },
    {
      "inputs": [],
      "name": "owner",
      "outputs": [
        {
          "internalType": "address",
          "name": "",
          "type": "address"
        }
      ],
      "stateMutability": "view",
      "type": "function"
    },
    {
      "inputs": [],
      "name": "sai",
      "outputs": [
        {
          "internalType": "contract DSToken",
          "name": "",
          "type": "address"
        }
      ],
      "stateMutability": "view",
      "type": "function"
    },
    {
      "inputs": [
        {
          "internalType": "contract DSAuthority",
          "name": "authority_",
          "type": "address"
        }
      ],
      "name": "setAuthority",
      "outputs": [],
      "stateMutability": "nonpayable",
      "type": "function"
    },
    {
      "inputs": [
        {
          "internalType": "address",
          "name": "owner_",
          "type": "address"
        }
      ],
      "name": "setOwner",
      "outputs": [],
      "stateMutability": "nonpayable",
      "type": "function"
    },
    {
      "inputs": [],
      "name": "sin",
      "outputs": [
        {
          "internalType": "contract DSToken",
          "name": "",
          "type": "address"
        }
      ],
      "stateMutability": "view",
      "type": "function"
    },
    {
      "inputs": [],
      "name": "skr",
      "outputs": [
        {
          "internalType": "contract DSToken",
          "name": "",
          "type": "address"
        }
      ],
      "stateMutability": "view",
      "type": "function"
    },
    {
      "inputs": [],
      "name": "step",
      "outputs": [
        {
          "internalType": "uint8",
          "name": "",
          "type": "uint8"
        }
      ],
      "stateMutability": "view",
      "type": "function"
    },
    {
      "inputs": [],
      "name": "tap",
      "outputs": [
        {
          "internalType": "contract SaiTap",
          "name": "",
          "type": "address"
        }
      ],
      "stateMutability": "view",
      "type": "function"
    },
    {
      "inputs": [],
      "name": "tapFab",
      "outputs": [
        {
          "internalType": "contract TapFab",
          "name": "",
          "type": "address"
        }
      ],
      "stateMutability": "view",
      "type": "function"
    },
    {
      "inputs": [],
      "name": "top",
      "outputs": [
        {
          "internalType": "contract SaiTop",
          "name": "",
          "type": "address"
        }
      ],
      "stateMutability": "view",
      "type": "function"
    },
    {
      "inputs": [],
      "name": "topFab",
      "outputs": [
        {
          "internalType": "contract TopFab",
          "name": "",
          "type": "address"
        }
      ],
      "stateMutability": "view",
      "type": "function"
    },
    {
      "inputs": [],
      "name": "tub",
      "outputs": [
        {
          "internalType": "contract SaiTub",
          "name": "",
          "type": "address"
        }
      ],
      "stateMutability": "view",
      "type": "function"
    },
    {
      "inputs": [],
      "name": "tubFab",
      "outputs": [
        {
          "internalType": "contract TubFab",
          "name": "",
          "type": "address"
        }
      ],
      "stateMutability": "view",
      "type": "function"
    },
    {
      "inputs": [],
      "name": "verifyParams",
      "outputs": [],
      "stateMutability": "nonpayable",
      "type": "function"
    },
    {
      "inputs": [],
      "name": "vox",
      "outputs": [
        {
          "internalType": "contract SaiVox",
          "name": "",
          "type": "address"
        }
      ],
      "stateMutability": "view",
      "type": "function"
    },
    {
      "inputs": [],
      "name": "voxFab",
      "outputs": [
        {
          "internalType": "contract VoxFab",
          "name": "",
          "type": "address"
        }
      ],
      "stateMutability": "view",
      "type": "function"
    }
  ],
  "bytecode": {
    "object": "0x60806040526011805460ff60a01b191690553480156200001e57600080fd5b506040516200314e3803806200314e83398101604081905262000041916200011a565b600180546001600160a01b031916339081179091556040517fce241d7ca1f669fee44b6fc00b8eba2df3bb514eed0f6f668f8f89096e81ed9490600090a2600280546001600160a01b03199081166001600160a01b03998a1617909155600380548216978916979097179096556005805487169588169590951790945560048054861693871693909317909255600680548516918616919091179055600780548416918516919091179055600880549092169216919091179055620001c5565b6001600160a01b03811681146200011757600080fd5b50565b600080600080600080600060e0888a0312156200013657600080fd5b8751620001438162000101565b6020890151909750620001568162000101565b6040890151909650620001698162000101565b60608901519095506200017c8162000101565b60808901519094506200018f8162000101565b60a0890151909350620001a28162000101565b60c0890151909250620001b58162000101565b8091505092959891949750929550565b612f7980620001d56000396000f3fe608060405234801561001057600080fd5b50600436106101a95760003560e01c80637a9e5e4b116100f9578063be28f5db11610097578063e3dac95911610071578063e3dac95914610374578063f55a17261461037c578063fd2210311461038f578063fe6dcdba146103a257600080fd5b8063be28f5db14610333578063bf7e214f1461033b578063e25fe1751461034e57600080fd5b80638da5cb5b116100d35780638da5cb5b146102e75780639166cba4146102fa57806395f6f2b21461030d578063ab6d8a9a1461032057600080fd5b80637a9e5e4b146102b95780637f3ded93146102cc57806388ec838f146102df57600080fd5b806334e70cc21161016657806367550a351161014057806367550a351461026d578063689da08e146102805780636e97786514610293578063768433c2146102a657600080fd5b806334e70cc2146102345780633df7c86d146102475780636411273f1461025a57600080fd5b80630253fbd1146101ae578063071bafb5146101de5780630f8a771e146101f157806313af4035146102045780631cb6adec146102195780632592e9211461022c575b600080fd5b6007546101c1906001600160a01b031681565b6040516001600160a01b0390911681526020015b60405180910390f35b600a546101c1906001600160a01b031681565b600b546101c1906001600160a01b031681565b610217610212366004612d7e565b6103b5565b005b6005546101c1906001600160a01b031681565b61021761043a565b600d546101c1906001600160a01b031681565b6010546101c1906001600160a01b031681565b6004546101c1906001600160a01b031681565b600c546101c1906001600160a01b031681565b6011546101c1906001600160a01b031681565b6008546101c1906001600160a01b031681565b6006546101c1906001600160a01b031681565b6102176102c7366004612d7e565b61099c565b6003546101c1906001600160a01b031681565b610217610a16565b6001546101c1906001600160a01b031681565b6009546101c1906001600160a01b031681565b61021761031b366004612d7e565b610dc5565b6002546101c1906001600160a01b031681565b6102176124ea565b6000546101c1906001600160a01b031681565b60115461036290600160a01b900460ff1681565b60405160ff90911681526020016101d5565b610217612834565b61021761038a366004612da2565b612a26565b600e546101c1906001600160a01b031681565b600f546101c1906001600160a01b031681565b6103cb336000356001600160e01b031916612c79565b6103f05760405162461bcd60e51b81526004016103e790612e13565b60405180910390fd5b600180546001600160a01b0319166001600160a01b0383169081179091556040517fce241d7ca1f669fee44b6fc00b8eba2df3bb514eed0f6f668f8f89096e81ed9490600090a250565b610450336000356001600160e01b031916612c79565b61046c5760405162461bcd60e51b81526004016103e790612e13565b601154600160a01b900460ff1660041461048557600080fd5b600d60009054906101000a90046001600160a01b03166001600160a01b031663355274ea6040518163ffffffff1660e01b8152600401602060405180830381865afa1580156104d8573d6000803e3d6000fd5b505050506040513d601f19601f820116820180604052508101906104fc9190612e41565b1561050657600080fd5b600d60009054906101000a90046001600160a01b03166001600160a01b031663ab0783da6040518163ffffffff1660e01b8152600401602060405180830381865afa158015610559573d6000803e3d6000fd5b505050506040513d601f19601f8201168201806040525081019061057d9190612e41565b6b04d8c55aefb8c05b5c0000001461059457600080fd5b600d60009054906101000a90046001600160a01b03166001600160a01b031663509bf2bf6040518163ffffffff1660e01b8152600401602060405180830381865afa1580156105e7573d6000803e3d6000fd5b505050506040513d601f19601f8201168201806040525081019061060b9190612e41565b6b03a6b6cebed490e8aa0000001461062257600080fd5b600d60009054906101000a90046001600160a01b03166001600160a01b031663ddca3f436040518163ffffffff1660e01b8152600401602060405180830381865afa158015610675573d6000803e3d6000fd5b505050506040513d601f19601f820116820180604052508101906106999190612e41565b6b033b2e3ca2026060221a2191146106b057600080fd5b600d60009054906101000a90046001600160a01b03166001600160a01b03166399c8d5566040518163ffffffff1660e01b8152600401602060405180830381865afa158015610703573d6000803e3d6000fd5b505050506040513d601f19601f820116820180604052508101906107279190612e41565b6b033b2e3c9fd0803ce80000001461073e57600080fd5b600d60009054906101000a90046001600160a01b03166001600160a01b0316636c32c0a66040518163ffffffff1660e01b8152600401602060405180830381865afa158015610791573d6000803e3d6000fd5b505050506040513d601f19601f820116820180604052508101906107b59190612e41565b670de0b6b3a7640000146107c857600080fd5b600e60009054906101000a90046001600160a01b03166001600160a01b0316636c32c0a66040518163ffffffff1660e01b8152600401602060405180830381865afa15801561081b573d6000803e3d6000fd5b505050506040513d601f19601f8201168201806040525081019061083f9190612e41565b670d7621dc582100001461085257600080fd5b600c60009054906101000a90046001600160a01b03166001600160a01b031663495d32cb6040518163ffffffff1660e01b81526004016020604051808303816000875af11580156108a7573d6000803e3d6000fd5b505050506040513d601f19601f820116820180604052508101906108cb9190612e41565b6b033b2e3c9fd0803ce8000000146108e257600080fd5b600c60009054906101000a90046001600160a01b03166001600160a01b0316633a4a42336040518163ffffffff1660e01b8152600401602060405180830381865afa158015610935573d6000803e3d6000fd5b505050506040513d601f19601f820116820180604052508101906109599190612e41565b1561096357600080fd5b6001601160148282829054906101000a900460ff166109829190612e70565b92506101000a81548160ff021916908360ff160217905550565b6109b2336000356001600160e01b031916612c79565b6109ce5760405162461bcd60e51b81526004016103e790612e13565b600080546001600160a01b0319166001600160a01b038316908117825560405190917f1abebea81bfa2637f28358c371278fb15ede7ea8dd28d2e03b112ff6d936ada491a250565b610a2c336000356001600160e01b031916612c79565b610a485760405162461bcd60e51b81526004016103e790612e13565b601154600160a01b900460ff16600314610a6157600080fd5b600d546040516392b0d72160e01b81526206361760ec1b6004820152600060248201526001600160a01b03909116906392b0d72190604401600060405180830381600087803b158015610ab357600080fd5b505af1158015610ac7573d6000803e3d6000fd5b5050600d546001600160a01b031691506392b0d7219050610aef6714d1120d7b160000612d56565b6040516001600160e01b031960e084901b168152621b585d60ea1b60048201526024810191909152604401600060405180830381600087803b158015610b3457600080fd5b505af1158015610b48573d6000803e3d6000fd5b5050600d546001600160a01b031691506392b0d7219050610b70670fae910354310000612d56565b6040516001600160e01b031960e084901b1681526261786560e81b60048201526024810191909152604401600060405180830381600087803b158015610bb557600080fd5b505af1158015610bc9573d6000803e3d6000fd5b5050600d546040516392b0d72160e01b81526266656560e81b60048201526b033b2e3ca2026060221a219160248201526001600160a01b0390911692506392b0d7219150604401600060405180830381600087803b158015610c2a57600080fd5b505af1158015610c3e573d6000803e3d6000fd5b5050600d546001600160a01b031691506392b0d7219050610c66670de0b6b3a7640000612d56565b6040516001600160e01b031960e084901b168152620e8c2f60eb1b60048201526024810191909152604401600060405180830381600087803b158015610cab57600080fd5b505af1158015610cbf573d6000803e3d6000fd5b5050600d546040516392b0d72160e01b81526206761760ec1b6004820152670de0b6b3a764000060248201526001600160a01b0390911692506392b0d7219150604401600060405180830381600087803b158015610d1c57600080fd5b505af1158015610d30573d6000803e3d6000fd5b5050600e546040516392b0d72160e01b81526206761760ec1b6004820152670d7621dc5821000060248201526001600160a01b0390911692506392b0d72191506044015b600060405180830381600087803b158015610d8e57600080fd5b505af1158015610da2573d6000803e3d6000fd5b505050506001601160148282829054906101000a900460ff166109829190612e70565b610ddb336000356001600160e01b031916612c79565b610df75760405162461bcd60e51b81526004016103e790612e13565b601154600160a01b900460ff16600514610e1057600080fd5b6001600160a01b038116610e2357600080fd5b600754600d54600e54600c54604051630cf691ed60e31b81526001600160a01b0393841660048201529183166024830152821660448201529116906367b48f68906064016020604051808303816000875af1158015610e86573d6000803e3d6000fd5b505050506040513d601f19601f82011682018060405250810190610eaa9190612e89565b601080546001600160a01b0319166001600160a01b0392831617905560085460408051632853baaf60e11b8152905191909216916350a7755e91600480830192602092919082900301816000875af1158015610f0a573d6000803e3d6000fd5b505050506040513d601f19601f82011682018060405250810190610f2e9190612e89565b601180546001600160a01b0319166001600160a01b03928316908117909155600c54604051637a9e5e4b60e01b8152600481019290925290911690637a9e5e4b90602401600060405180830381600087803b158015610f8c57600080fd5b505af1158015610fa0573d6000803e3d6000fd5b5050600c546040516313af403560e01b8152600060048201526001600160a01b0390911692506313af40359150602401600060405180830381600087803b158015610fea57600080fd5b505af1158015610ffe573d6000803e3d6000fd5b5050600d54601154604051637a9e5e4b60e01b81526001600160a01b03918216600482015291169250637a9e5e4b9150602401600060405180830381600087803b15801561104b57600080fd5b505af115801561105f573d6000803e3d6000fd5b5050600d546040516313af403560e01b8152600060048201526001600160a01b0390911692506313af40359150602401600060405180830381600087803b1580156110a957600080fd5b505af11580156110bd573d6000803e3d6000fd5b5050600e54601154604051637a9e5e4b60e01b81526001600160a01b03918216600482015291169250637a9e5e4b9150602401600060405180830381600087803b15801561110a57600080fd5b505af115801561111e573d6000803e3d6000fd5b5050600e546040516313af403560e01b8152600060048201526001600160a01b0390911692506313af40359150602401600060405180830381600087803b15801561116857600080fd5b505af115801561117c573d6000803e3d6000fd5b5050600954601154604051637a9e5e4b60e01b81526001600160a01b03918216600482015291169250637a9e5e4b9150602401600060405180830381600087803b1580156111c957600080fd5b505af11580156111dd573d6000803e3d6000fd5b50506009546040516313af403560e01b8152600060048201526001600160a01b0390911692506313af40359150602401600060405180830381600087803b15801561122757600080fd5b505af115801561123b573d6000803e3d6000fd5b5050600a54601154604051637a9e5e4b60e01b81526001600160a01b03918216600482015291169250637a9e5e4b9150602401600060405180830381600087803b15801561128857600080fd5b505af115801561129c573d6000803e3d6000fd5b5050600a546040516313af403560e01b8152600060048201526001600160a01b0390911692506313af40359150602401600060405180830381600087803b1580156112e657600080fd5b505af11580156112fa573d6000803e3d6000fd5b5050600b54601154604051637a9e5e4b60e01b81526001600160a01b03918216600482015291169250637a9e5e4b9150602401600060405180830381600087803b15801561134757600080fd5b505af115801561135b573d6000803e3d6000fd5b5050600b546040516313af403560e01b8152600060048201526001600160a01b0390911692506313af40359150602401600060405180830381600087803b1580156113a557600080fd5b505af11580156113b9573d6000803e3d6000fd5b5050600f54604051637a9e5e4b60e01b81526001600160a01b0385811660048301529091169250637a9e5e4b9150602401600060405180830381600087803b15801561140457600080fd5b505af1158015611418573d6000803e3d6000fd5b5050600f546040516313af403560e01b8152600060048201526001600160a01b0390911692506313af40359150602401600060405180830381600087803b15801561146257600080fd5b505af1158015611476573d6000803e3d6000fd5b5050601054604051637a9e5e4b60e01b81526001600160a01b0385811660048301529091169250637a9e5e4b9150602401600060405180830381600087803b1580156114c157600080fd5b505af11580156114d5573d6000803e3d6000fd5b50506010546040516313af403560e01b8152600060048201526001600160a01b0390911692506313af40359150602401600060405180830381600087803b15801561151f57600080fd5b505af1158015611533573d6000803e3d6000fd5b5050601154600f54600d546040805180820182526015815274636167652875696e743235362c75696e743235362960581b602090910152516332fba9a360e21b81526001600160a01b03938416955063cbeea68c94506115bf9392831692909116907f8ceedb47b1d9eec3927ac7937ab22c21f67f449fba2fdd2e4732f533ceef686a90600401612ea6565b600060405180830381600087803b1580156115d957600080fd5b505af11580156115ed573d6000803e3d6000fd5b5050601154600f54600d546040805180820182526006815265666c6f77282960d01b602090910152516332fba9a360e21b81526001600160a01b03938416955063cbeea68c945061166a9392831692909116907f343aad825c6fb819ea10ef18525640bf84956d3f21fa45919077198e096a450090600401612ea6565b600060405180830381600087803b15801561168457600080fd5b505af1158015611698573d6000803e3d6000fd5b5050601154600f54600e54604080518082018252600d81526c636167652875696e743235362960981b602090910152516332fba9a360e21b81526001600160a01b03938416955063cbeea68c945061171c9392831692909116907fa2f91af22b2539ae0acd50b18f6756687d2601e93c3627c3b0ea1e84f42c953190600401612ea6565b600060405180830381600087803b15801561173657600080fd5b505af115801561174a573d6000803e3d6000fd5b5050601154600d54600b5460408051808201825260158152746d696e7428616464726573732c75696e743235362960581b602090910152516332fba9a360e21b81526001600160a01b03938416955063cbeea68c94506117c4939283169290911690600080516020612f0483398151915290600401612ea6565b600060405180830381600087803b1580156117de57600080fd5b505af11580156117f2573d6000803e3d6000fd5b5050601154600d54600b5460408051808201825260158152746275726e28616464726573732c75696e743235362960581b602090910152516332fba9a360e21b81526001600160a01b03938416955063cbeea68c945061186c939283169290911690600080516020612f2483398151915290600401612ea6565b600060405180830381600087803b15801561188657600080fd5b505af115801561189a573d6000803e3d6000fd5b5050601154600d5460095460408051808201825260158152746d696e7428616464726573732c75696e743235362960581b602090910152516332fba9a360e21b81526001600160a01b03938416955063cbeea68c9450611914939283169290911690600080516020612f0483398151915290600401612ea6565b600060405180830381600087803b15801561192e57600080fd5b505af1158015611942573d6000803e3d6000fd5b5050601154600d5460095460408051808201825260158152746275726e28616464726573732c75696e743235362960581b602090910152516332fba9a360e21b81526001600160a01b03938416955063cbeea68c94506119bc939283169290911690600080516020612f2483398151915290600401612ea6565b600060405180830381600087803b1580156119d657600080fd5b505af11580156119ea573d6000803e3d6000fd5b5050601154600d54600a5460408051808201825260158152746d696e7428616464726573732c75696e743235362960581b602090910152516332fba9a360e21b81526001600160a01b03938416955063cbeea68c9450611a64939283169290911690600080516020612f0483398151915290600401612ea6565b600060405180830381600087803b158015611a7e57600080fd5b505af1158015611a92573d6000803e3d6000fd5b5050601154600e5460095460408051808201825260158152746d696e7428616464726573732c75696e743235362960581b602090910152516332fba9a360e21b81526001600160a01b03938416955063cbeea68c9450611b0c939283169290911690600080516020612f0483398151915290600401612ea6565b600060405180830381600087803b158015611b2657600080fd5b505af1158015611b3a573d6000803e3d6000fd5b5050601154600e5460095460408051808201825260158152746275726e28616464726573732c75696e743235362960581b602090910152516332fba9a360e21b81526001600160a01b03938416955063cbeea68c9450611bb4939283169290911690600080516020612f2483398151915290600401612ea6565b600060405180830381600087803b158015611bce57600080fd5b505af1158015611be2573d6000803e3d6000fd5b5050601154600e54600954604080518082018252600d81526c6275726e2875696e743235362960981b602090910152516332fba9a360e21b81526001600160a01b03938416955063cbeea68c9450611c669392831692909116907f42966c689b5afe9b9b3f8a7103b2a19980d59629bfd6a20a60972312ed41d83690600401612ea6565b600060405180830381600087803b158015611c8057600080fd5b505af1158015611c94573d6000803e3d6000fd5b5050601154600e54600a54604080518082018252600d81526c6275726e2875696e743235362960981b602090910152516332fba9a360e21b81526001600160a01b03938416955063cbeea68c9450611d189392831692909116907f42966c689b5afe9b9b3f8a7103b2a19980d59629bfd6a20a60972312ed41d83690600401612ea6565b600060405180830381600087803b158015611d3257600080fd5b505af1158015611d46573d6000803e3d6000fd5b5050601154600e54600b54604080518082018252600d81526c6d696e742875696e743235362960981b602090910152516332fba9a360e21b81526001600160a01b03938416955063cbeea68c9450611dca9392831692909116907fa0712d680358d64f694230b7cc0b277c73686bdf768385d55cd7c547d0ffd30e90600401612ea6565b600060405180830381600087803b158015611de457600080fd5b505af1158015611df8573d6000803e3d6000fd5b5050601154600e54600b54604080518082018252600d81526c6275726e2875696e743235362960981b602090910152516332fba9a360e21b81526001600160a01b03938416955063cbeea68c9450611e7c9392831692909116907f42966c689b5afe9b9b3f8a7103b2a19980d59629bfd6a20a60972312ed41d83690600401612ea6565b600060405180830381600087803b158015611e9657600080fd5b505af1158015611eaa573d6000803e3d6000fd5b5050601154600e54600b5460408051808201825260158152746275726e28616464726573732c75696e743235362960581b602090910152516332fba9a360e21b81526001600160a01b03938416955063cbeea68c9450611f24939283169290911690600080516020612f2483398151915290600401612ea6565b600060405180830381600087803b158015611f3e57600080fd5b505af1158015611f52573d6000803e3d6000fd5b5050601154601054600c5460408051808201825260158152746d6f6c6428627974657333322c75696e743235362960581b602090910152516332fba9a360e21b81526001600160a01b03938416955063cbeea68c9450611fde9392831692909116907f92b0d7216f4d5a5fce14323bd1dcf6c326e7484c3f44bdabdbc72be950ec26f790600401612ea6565b600060405180830381600087803b158015611ff857600080fd5b505af115801561200c573d6000803e3d6000fd5b5050601154601054600c54604080518082018252600d81526c74756e652875696e743235362960981b602090910152516332fba9a360e21b81526001600160a01b03938416955063cbeea68c94506120909392831692909116907fbecda0ea64e2b66cde865545ed2700e95b116dd0c5113226773fd42ccdb0933c90600401612ea6565b600060405180830381600087803b1580156120aa57600080fd5b505af11580156120be573d6000803e3d6000fd5b5050601154601054600d5460408051808201825260158152746d6f6c6428627974657333322c75696e743235362960581b602090910152516332fba9a360e21b81526001600160a01b03938416955063cbeea68c945061214a9392831692909116907f92b0d7216f4d5a5fce14323bd1dcf6c326e7484c3f44bdabdbc72be950ec26f790600401612ea6565b600060405180830381600087803b15801561216457600080fd5b505af1158015612178573d6000803e3d6000fd5b5050601154601054600e5460408051808201825260158152746d6f6c6428627974657333322c75696e743235362960581b602090910152516332fba9a360e21b81526001600160a01b03938416955063cbeea68c94506122049392831692909116907f92b0d7216f4d5a5fce14323bd1dcf6c326e7484c3f44bdabdbc72be950ec26f790600401612ea6565b600060405180830381600087803b15801561221e57600080fd5b505af1158015612232573d6000803e3d6000fd5b5050601154601054600d54604080518082018252600f81526e73657450697028616464726573732960881b602090910152516332fba9a360e21b81526001600160a01b03938416955063cbeea68c94506122b89392831692909116907f82bf9a75947caedf51e99afd64964168f16c120ed8c1b0286a852a6ba6c8e71790600401612ea6565b600060405180830381600087803b1580156122d257600080fd5b505af11580156122e6573d6000803e3d6000fd5b5050601154601054600d54604080518082018252600f81526e73657450657028616464726573732960881b602090910152516332fba9a360e21b81526001600160a01b03938416955063cbeea68c945061236c9392831692909116907fd9c27cc6744852202e007585b0ea2af2ddf30f931451d5ff055aba81d4c1903990600401612ea6565b600060405180830381600087803b15801561238657600080fd5b505af115801561239a573d6000803e3d6000fd5b5050601154601054600d54604080518082018252600f81526e736574566f7828616464726573732960881b602090910152516332fba9a360e21b81526001600160a01b03938416955063cbeea68c94506124209392831692909116907fcf48d1a672f1c7c662f5b6a2e4e7b28ae01fc5e771c3e307fa64680f88f23c9490600401612ea6565b600060405180830381600087803b15801561243a57600080fd5b505af115801561244e573d6000803e3d6000fd5b50506011546040516313af403560e01b8152600060048201526001600160a01b0390911692506313af40359150602401600060405180830381600087803b15801561249857600080fd5b505af11580156124ac573d6000803e3d6000fd5b505050506001601160148282829054906101000a900460ff166124cf9190612e70565b92506101000a81548160ff021916908360ff16021790555050565b612500336000356001600160e01b031916612c79565b61251c5760405162461bcd60e51b81526004016103e790612e13565b601154600160a01b900460ff161561253357600080fd5b60025460405163fe3f85fd60e01b815260206004820152600360248201526244414960e81b60448201526001600160a01b039091169063fe3f85fd906064016020604051808303816000875af1158015612591573d6000803e3d6000fd5b505050506040513d601f19601f820116820180604052508101906125b59190612e89565b600980546001600160a01b0319166001600160a01b0392831617905560025460405163fe3f85fd60e01b815260206004820152600360248201526229a4a760e91b604482015291169063fe3f85fd906064016020604051808303816000875af1158015612626573d6000803e3d6000fd5b505050506040513d601f19601f8201168201806040525081019061264a9190612e89565b600a80546001600160a01b0319166001600160a01b0392831617905560025460405163fe3f85fd60e01b815260206004808301919091526024820152630a08aa8960e31b604482015291169063fe3f85fd906064016020604051808303816000875af11580156126be573d6000803e3d6000fd5b505050506040513d601f19601f820116820180604052508101906126e29190612e89565b600b80546001600160a01b0319166001600160a01b0392831617905560095460405163c47f002760e01b8152602060048201526013602482015272044616920537461626c65636f696e2076312e3606c1b604482015291169063c47f002790606401600060405180830381600087803b15801561275e57600080fd5b505af1158015612772573d6000803e3d6000fd5b5050600a5460405163c47f002760e01b815260206004820152600360248201526229a4a760e91b60448201526001600160a01b03909116925063c47f00279150606401600060405180830381600087803b1580156127cf57600080fd5b505af11580156127e3573d6000803e3d6000fd5b5050600b5460405163c47f002760e01b815260206004820152600c60248201526b2837b7b632b21022ba3432b960a11b60448201526001600160a01b03909116925063c47f00279150606401610d74565b61284a336000356001600160e01b031916612c79565b6128665760405162461bcd60e51b81526004016103e790612e13565b601154600160a01b900460ff1660021461287f57600080fd5b60048054600d5460405163072239db60e41b81526001600160a01b039182169381019390935216906372239db0906024016020604051808303816000875af11580156128cf573d6000803e3d6000fd5b505050506040513d601f19601f820116820180604052508101906128f39190612e89565b600e80546001600160a01b0319166001600160a01b03928316908117909155600d54604051637e74325f60e01b8152600481019290925290911690637e74325f90602401600060405180830381600087803b15801561295157600080fd5b505af1158015612965573d6000803e3d6000fd5b5050600654600d54600e54604051635c82206960e11b81526001600160a01b03928316600482015290821660248201529116925063b90440d291506044016020604051808303816000875af11580156129c2573d6000803e3d6000fd5b505050506040513d601f19601f820116820180604052508101906129e69190612e89565b600f80546001600160a01b0319166001600160a01b03929092169190911790556011805460019190601490610982908490600160a01b900460ff16612e70565b612a3c336000356001600160e01b031916612c79565b612a585760405162461bcd60e51b81526004016103e790612e13565b601154600160a01b900460ff16600114612a7157600080fd5b6001600160a01b038516612a8457600080fd5b6001600160a01b038416612a9757600080fd5b6001600160a01b038316612aaa57600080fd5b6001600160a01b038216612abd57600080fd5b6001600160a01b038116612ad057600080fd5b600360009054906101000a90046001600160a01b03166001600160a01b03166369d3b2526040518163ffffffff1660e01b81526004016020604051808303816000875af1158015612b25573d6000803e3d6000fd5b505050506040513d601f19601f82011682018060405250810190612b499190612e89565b600c80546001600160a01b0319166001600160a01b03928316908117909155600554600954600a54600b54604051631e81440d60e31b815292861660048401529085166024830152841660448201528884166064820152878416608482015286841660a482015285841660c482015260e48101929092528383166101048301529091169063f40a206890610124016020604051808303816000875af1158015612bf6573d6000803e3d6000fd5b505050506040513d601f19601f82011682018060405250810190612c1a9190612e89565b600d80546001600160a01b0319166001600160a01b03929092169190911790556011805460019190601490612c5a908490600160a01b900460ff16612e70565b92506101000a81548160ff021916908360ff1602179055505050505050565b6000306001600160a01b03841603612c9357506001612d50565b6001546001600160a01b0390811690841603612cb157506001612d50565b6000546001600160a01b0316612cc957506000612d50565b60005460405163b700961360e01b81526001600160a01b0385811660048301523060248301526001600160e01b0319851660448301529091169063b700961390606401602060405180830381865afa158015612d29573d6000803e3d6000fd5b505050506040513d601f19601f82011682018060405250810190612d4d9190612eca565b90505b92915050565b6000612d5082633b9aca00612eec565b6001600160a01b0381168114612d7b57600080fd5b50565b600060208284031215612d9057600080fd5b8135612d9b81612d66565b9392505050565b600080600080600060a08688031215612dba57600080fd5b8535612dc581612d66565b94506020860135612dd581612d66565b93506040860135612de581612d66565b92506060860135612df581612d66565b91506080860135612e0581612d66565b809150509295509295909350565b602080825260149082015273191ccb585d5d1a0b5d5b985d5d1a1bdc9a5e995960621b604082015260600190565b600060208284031215612e5357600080fd5b5051919050565b634e487b7160e01b600052601160045260246000fd5b60ff8181168382160190811115612d5057612d50612e5a565b600060208284031215612e9b57600080fd5b8151612d9b81612d66565b6001600160a01b039384168152919092166020820152604081019190915260600190565b600060208284031215612edc57600080fd5b81518015158114612d9b57600080fd5b8082028115828204841417612d5057612d50612e5a56fe40c10f19c047ae7dfa66d6312b683d2ea3dfbcb4159e96b967c5f4b0a86f28429dc29fac0ba6d4fc521c69c2b0c636d612e3343bc39ed934429b8876b0d12cbaa264697066735822122056ed782156c4bb21b1aa31bc88165528be4aefe344a88a9196b7fbe2d1d4a20b64736f6c63430008140033",
    "linkReferences": {}
  },
  "methodIdentifiers": {
    "authority()": "bf7e214f",
    "configAuth(address)": "95f6f2b2",
    "configParams()": "88ec838f",
    "dad()": "689da08e",
    "dadFab()": "6e977865",
    "gemFab()": "ab6d8a9a",
    "makeTapTop()": "e3dac959",
    "makeTokens()": "be28f5db",
    "makeVoxTub(address,address,address,address,address)": "f55a1726",
    "mom()": "3df7c86d",
    "momFab()": "0253fbd1",
    "owner()": "8da5cb5b",
    "sai()": "9166cba4",
    "setAuthority(address)": "7a9e5e4b",
    "setOwner(address)": "13af4035",
    "sin()": "071bafb5",
    "skr()": "0f8a771e",
    "step()": "e25fe175",
    "tap()": "fd221031",
    "tapFab()": "6411273f",
    "top()": "fe6dcdba",
    "topFab()": "768433c2",
    "tub()": "34e70cc2",
    "tubFab()": "1cb6adec",
    "verifyParams()": "2592e921",
    "vox()": "67550a35",
    "voxFab()": "7f3ded93"
  },
  "id": 26
}