{
  "abi": [
    {
      "inputs": [],
      "name": "newVox",
      "outputs": [
        {
          "internalType": "contract SaiVox",
          "name": "vox",
          "type": "address"
        }
      ],
      "stateMutability": "nonpayable",
      "type": "function"
    }
  ],
  "bytecode": {
    "object": "0x608060405234801561001057600080fd5b50610c94806100206000396000f3fe608060405234801561001057600080fd5b506004361061002b5760003560e01c806369d3b25214610030575b600080fd5b610038610054565b6040516001600160a01b03909116815260200160405180910390f35b60006b033b2e3c9fd0803ce800000060405161006f906100f1565b908152602001604051809103906000f080158015610091573d6000803e3d6000fd5b506040516313af403560e01b81523360048201529091506001600160a01b038216906313af403590602401600060405180830381600087803b1580156100d657600080fd5b505af11580156100ea573d6000803e3d6000fd5b5050505090565b610b60806100ff8339019056fe608060405234801561001057600080fd5b50604051610b60380380610b6083398101604081905261002f9161008e565b600180546001600160a01b031916339081179091556040517fce241d7ca1f669fee44b6fc00b8eba2df3bb514eed0f6f668f8f89096e81ed9490600090a260048190556002556b033b2e3c9fd0803ce8000000600355426006556100a7565b6000602082840312156100a057600080fd5b5051919050565b610aaa806100b66000396000f3fe608060405234801561001057600080fd5b50600436106100ea5760003560e01c80637a9e5e4b1161008c578063a551878e11610066578063a551878e1461019e578063becda0ea146101a7578063bf7e214f146101ba578063cfc4af55146101cd57600080fd5b80637a9e5e4b1461014d5780638da5cb5b1461016057806392b0d7211461018b57600080fd5b80633a4a4233116100c85780633a4a423314610121578063495d32cb1461012a57806355deb8fc146101325780635d6542af1461014557600080fd5b80630302c688146100ef57806313af4035146100f9578063143e55e01461010c575b600080fd5b6100f76101d6565b005b6100f761010736600461088c565b6102c4565b425b6040519081526020015b60405180910390f35b61010e60055481565b61010e610349565b6100f76101403660046108a9565b61035a565b61010e6103c7565b6100f761015b36600461088c565b6103d8565b600154610173906001600160a01b031681565b6040516001600160a01b039091168152602001610118565b6100f76101993660046108c2565b610452565b61010e60045481565b6100f76101b53660046108a9565b6104d1565b600054610173906001600160a01b031681565b61010e60065481565b6040516004359060243590819083903390600080356001600160e01b03191691610202919036906108e4565b60405180910390a460006006546102164290565b6102209190610929565b90508060000361022f57505050565b42600655600354676765c793fa10079d601b1b146102625761025e6002546102596003548461053e565b6105bc565b6002555b60055460000361027157505050565b600081600554610281919061093c565b90506102bb6002546004541061029f5761029a82610953565b6102a1565b815b6102ac600354610603565b6102b69190610979565b61065c565b60035550505050565b6102da336000356001600160e01b0319166106b7565b6102ff5760405162461bcd60e51b81526004016102f6906109a6565b60405180910390fd5b600180546001600160a01b0319166001600160a01b0383169081179091556040517fce241d7ca1f669fee44b6fc00b8eba2df3bb514eed0f6f668f8f89096e81ed9490600090a250565b60006103536101d6565b5060025490565b6040516004359060243590819083903390600080356001600160e01b03191691610386919036906108e4565b60405180910390a46103a4336000356001600160e01b0319166106b7565b6103c05760405162461bcd60e51b81526004016102f6906109a6565b5050600455565b60006103d16101d6565b5060035490565b6103ee336000356001600160e01b0319166106b7565b61040a5760405162461bcd60e51b81526004016102f6906109a6565b600080546001600160a01b0319166001600160a01b038316908117825560405190917f1abebea81bfa2637f28358c371278fb15ede7ea8dd28d2e03b112ff6d936ada491a250565b6040516004359060243590819083903390600080356001600160e01b0319169161047e919036906108e4565b60405180910390a461049c336000356001600160e01b0319166106b7565b6104b85760405162461bcd60e51b81526004016102f6906109a6565b836277617960e81b036104cb5760038390555b50505050565b6040516004359060243590819083903390600080356001600160e01b031916916104fd919036906108e4565b60405180910390a461051b336000356001600160e01b0319166106b7565b6105375760405162461bcd60e51b81526004016102f6906109a6565b5050600555565b600061054b6002836109ea565b60000361056357676765c793fa10079d601b1b610565565b825b90506105726002836109fe565b91505b81156105b65761058583846105bc565b92506105926002836109ea565b156105a4576105a181846105bc565b90505b6105af6002836109fe565b9150610575565b92915050565b6000676765c793fa10079d601b1b6105f26105d78585610792565b6105ed6002676765c793fa10079d601b1b6109fe565b6107f9565b6105fc91906109fe565b9392505050565b6000676765c793fa10079d601b1b8210156106475761062d676765c793fa10079d601b1b8361084e565b61064290676765c793fa10079d601b1b610a12565b6105b6565b6105b6676765c793fa10079d601b1b83610929565b60008082600f0b121561069e57610642676765c793fa10079d601b1b61068184610953565b61069990600f0b676765c793fa10079d601b1b610a3f565b61084e565b6105b6676765c793fa10079d601b1b600f84900b610a3f565b6000306001600160a01b038416036106d1575060016105b6565b6001546001600160a01b03908116908416036106ef575060016105b6565b6000546001600160a01b0316610707575060006105b6565b60005460405163b700961360e01b81526001600160a01b0385811660048301523060248301526001600160e01b0319851660448301529091169063b700961390606401602060405180830381865afa158015610767573d6000803e3d6000fd5b505050506040513d601f19601f8201168201806040525081019061078b9190610a52565b90506105b6565b60008115806107b6575082826107a8818361093c565b92506107b490836109fe565b145b6105b65760405162461bcd60e51b815260206004820152601460248201527364732d6d6174682d6d756c2d6f766572666c6f7760601b60448201526064016102f6565b6000826108068382610a3f565b91508110156105b65760405162461bcd60e51b815260206004820152601460248201527364732d6d6174682d6164642d6f766572666c6f7760601b60448201526064016102f6565b6000816105f261086985676765c793fa10079d601b1b610792565b6105ed6002866109fe565b6001600160a01b038116811461088957600080fd5b50565b60006020828403121561089e57600080fd5b81356105fc81610874565b6000602082840312156108bb57600080fd5b5035919050565b600080604083850312156108d557600080fd5b50508035926020909101359150565b60208152816020820152818360408301376000818301604090810191909152601f909201601f19160101919050565b634e487b7160e01b600052601160045260246000fd5b818103818111156105b6576105b6610913565b80820281158282048414176105b6576105b6610913565b600081600f0b60016001607f1b0319810361097057610970610913565b60000392915050565b600f81810b9083900b0160016001607f1b03811360016001607f1b0319821217156105b6576105b6610913565b602080825260149082015273191ccb585d5d1a0b5d5b985d5d1a1bdc9a5e995960621b604082015260600190565b634e487b7160e01b600052601260045260246000fd5b6000826109f9576109f96109d4565b500690565b600082610a0d57610a0d6109d4565b500490565b600f82810b9082900b0360016001607f1b0319811260016001607f1b03821317156105b6576105b6610913565b808201808211156105b6576105b6610913565b600060208284031215610a6457600080fd5b815180151581146105fc57600080fdfea26469706673582212204e1105489d0476148be698f0de1910bb52478387b9702afbcc74951679e362b664736f6c63430008140033a26469706673582212204bcbd921d4fe8bf75398952d9767bb3f0729a9a63edc29a91b6c96f5a484652464736f6c63430008140033",
    "linkReferences": {}
  },
  "methodIdentifiers": {
    "newVox()": "69d3b252"
  },
  "id": 26
}