{
  "abi": [
    {
      "inputs": [
        {
          "internalType": "address",
          "name": "_token0",
          "type": "address"
        },
        {
          "internalType": "address",
          "name": "_token1",
          "type": "address"
        }
      ],
      "stateMutability": "nonpayable",
      "type": "constructor"
    },
    {
      "inputs": [
        {
          "internalType": "uint256",
          "name": "_amount0",
          "type": "uint256"
        },
        {
          "internalType": "uint256",
          "name": "_amount1",
          "type": "uint256"
        }
      ],
      "name": "addLiquidity",
      "outputs": [
        {
          "internalType": "uint256",
          "name": "shares",
          "type": "uint256"
        }
      ],
      "stateMutability": "nonpayable",
      "type": "function"
    },
    {
      "inputs": [
        {
          "internalType": "address",
          "name": "",
          "type": "address"
        }
      ],
      "name": "balanceOf",
      "outputs": [
        {
          "internalType": "uint256",
          "name": "",
          "type": "uint256"
        }
      ],
      "stateMutability": "view",
      "type": "function"
    },
    {
      "inputs": [
        {
          "internalType": "address",
          "name": "_from",
          "type": "address"
        },
        {
          "internalType": "uint256",
          "name": "_amount",
          "type": "uint256"
        }
      ],
      "name": "burn",
      "outputs": [],
      "stateMutability": "nonpayable",
      "type": "function"
    },
    {
      "inputs": [],
      "name": "count",
      "outputs": [
        {
          "internalType": "uint256",
          "name": "",
          "type": "uint256"
        }
      ],
      "stateMutability": "view",
      "type": "function"
    },
    {
      "inputs": [],
      "name": "increment",
      "outputs": [],
      "stateMutability": "nonpayable",
      "type": "function"
    },
    {
      "inputs": [
        {
          "internalType": "address",
          "name": "_to",
          "type": "address"
        },
        {
          "internalType": "uint256",
          "name": "_amount",
          "type": "uint256"
        }
      ],
      "name": "mint",
      "outputs": [],
      "stateMutability": "nonpayable",
      "type": "function"
    },
    {
      "inputs": [
        {
          "internalType": "uint256",
          "name": "_shares",
          "type": "uint256"
        }
      ],
      "name": "removeLiquidity",
      "outputs": [
        {
          "internalType": "uint256",
          "name": "amount0",
          "type": "uint256"
        },
        {
          "internalType": "uint256",
          "name": "amount1",
          "type": "uint256"
        }
      ],
      "stateMutability": "nonpayable",
      "type": "function"
    },
    {
      "inputs": [],
      "name": "reserve0",
      "outputs": [
        {
          "internalType": "uint256",
          "name": "",
          "type": "uint256"
        }
      ],
      "stateMutability": "view",
      "type": "function"
    },
    {
      "inputs": [],
      "name": "reserve1",
      "outputs": [
        {
          "internalType": "uint256",
          "name": "",
          "type": "uint256"
        }
      ],
      "stateMutability": "view",
      "type": "function"
    },
    {
      "inputs": [
        {
          "internalType": "address",
          "name": "_tokenIn",
          "type": "address"
        },
        {
          "internalType": "uint256",
          "name": "_amountIn",
          "type": "uint256"
        }
      ],
      "name": "swap",
      "outputs": [
        {
          "internalType": "uint256",
          "name": "amountOut",
          "type": "uint256"
        }
      ],
      "stateMutability": "nonpayable",
      "type": "function"
    },
    {
      "inputs": [],
      "name": "token0",
      "outputs": [
        {
          "internalType": "contract IERC20",
          "name": "",
          "type": "address"
        }
      ],
      "stateMutability": "view",
      "type": "function"
    },
    {
      "inputs": [],
      "name": "token1",
      "outputs": [
        {
          "internalType": "contract IERC20",
          "name": "",
          "type": "address"
        }
      ],
      "stateMutability": "view",
      "type": "function"
    },
    {
      "inputs": [],
      "name": "totalSupply",
      "outputs": [
        {
          "internalType": "uint256",
          "name": "",
          "type": "uint256"
        }
      ],
      "stateMutability": "view",
      "type": "function"
    }
  ],
  "bytecode": {
    "object": "0x60c060405234801561001057600080fd5b50604051610fc1380380610fc183398101604081905261002f91610062565b6001600160a01b039182166080521660a052610095565b80516001600160a01b038116811461005d57600080fd5b919050565b6000806040838503121561007557600080fd5b61007e83610046565b915061008c60208401610046565b90509250929050565b60805160a051610e98610129600039600081816101ed015281816102cf015281816104a4015281816105de01528181610814015281816108d6015281816109cc0152610a3a01526000818160f50152818161024101528181610412015281816105460152818161078b0152818161089b0152818161098a015281816109ed01528181610a190152610bab0152610e986000f3fe608060405234801561001057600080fd5b50600436106100cf5760003560e01c806370a082311161008c5780639dc29fac116100665780639dc29fac146101ba578063d004f0f7146101cd578063d09de08a146101e0578063d21220a7146101e857600080fd5b806370a082311461015f5780639c8f9f231461017f5780639cd441da146101a757600080fd5b806306661abd146100d45780630dfe1681146100f057806318160ddd1461012f57806340c10f1914610138578063443cb4bc1461014d5780635a76f25e14610156575b600080fd5b6100dd60005481565b6040519081526020015b60405180910390f35b6101177f000000000000000000000000000000000000000000000000000000000000000081565b6040516001600160a01b0390911681526020016100e7565b6100dd60035481565b61014b610146366004610d32565b61020f565b005b6100dd60015481565b6100dd60025481565b6100dd61016d366004610d5c565b60046020526000908152604090205481565b61019261018d366004610d77565b61021d565b604080519283526020830191909152016100e7565b6100dd6101b5366004610d90565b610521565b61014b6101c8366004610d32565b61088d565b6100dd6101db366004610d32565b610897565b61014b610bee565b6101177f000000000000000000000000000000000000000000000000000000000000000081565b6102198282610c07565b5050565b6040516370a0823160e01b8152306004820152600090819081906001600160a01b037f000000000000000000000000000000000000000000000000000000000000000016906370a0823190602401602060405180830381865afa158015610288573d6000803e3d6000fd5b505050506040513d601f19601f820116820180604052508101906102ac9190610db2565b6040516370a0823160e01b81523060048201529091506000906001600160a01b037f000000000000000000000000000000000000000000000000000000000000000016906370a0823190602401602060405180830381865afa158015610316573d6000803e3d6000fd5b505050506040513d601f19601f8201168201806040525081019061033a9190610db2565b60035490915061034a8387610de1565b6103549190610df8565b6003549094506103648287610de1565b61036e9190610df8565b92506000841180156103805750600083115b6103ca5760405162461bcd60e51b81526020600482015260166024820152750616d6f756e7430206f7220616d6f756e7431203d20360541b60448201526064015b60405180910390fd5b6103d43386610c51565b6103f66103e18584610e1a565b6103eb8584610e1a565b600191909155600255565b60405163a9059cbb60e01b8152336004820152602481018590527f00000000000000000000000000000000000000000000000000000000000000006001600160a01b03169063a9059cbb906044016020604051808303816000875af1158015610463573d6000803e3d6000fd5b505050506040513d601f19601f820116820180604052508101906104879190610e2d565b5060405163a9059cbb60e01b8152336004820152602481018490527f00000000000000000000000000000000000000000000000000000000000000006001600160a01b03169063a9059cbb906044016020604051808303816000875af11580156104f5573d6000803e3d6000fd5b505050506040513d601f19601f820116820180604052508101906105199190610e2d565b505050915091565b6040516323b872dd60e01b8152336004820152306024820152604481018390526000907f00000000000000000000000000000000000000000000000000000000000000006001600160a01b0316906323b872dd906064016020604051808303816000875af1158015610597573d6000803e3d6000fd5b505050506040513d601f19601f820116820180604052508101906105bb9190610e2d565b506040516323b872dd60e01b8152336004820152306024820152604481018390527f00000000000000000000000000000000000000000000000000000000000000006001600160a01b0316906323b872dd906064016020604051808303816000875af115801561062f573d6000803e3d6000fd5b505050506040513d601f19601f820116820180604052508101906106539190610e2d565b506000600154118061066757506000600254115b156106c8578260025461067a9190610de1565b826001546106889190610de1565b146106c85760405162461bcd60e51b815260206004820152601060248201526f78202f207920213d206478202f20647960801b60448201526064016103c1565b6003546000036106eb576106e46106df8385610de1565b610c92565b905061072b565b610728600154600354856106ff9190610de1565b6107099190610df8565b6002546003546107199086610de1565b6107239190610df8565b610d02565b90505b600081116107685760405162461bcd60e51b815260206004820152600a6024820152690736861726573203d20360b41b60448201526064016103c1565b6107723382610c07565b6040516370a0823160e01b8152306004820152610887907f00000000000000000000000000000000000000000000000000000000000000006001600160a01b0316906370a08231906024015b602060405180830381865afa1580156107db573d6000803e3d6000fd5b505050506040513d601f19601f820116820180604052508101906107ff9190610db2565b6040516370a0823160e01b81523060048201527f00000000000000000000000000000000000000000000000000000000000000006001600160a01b0316906370a0823190602401602060405180830381865afa158015610863573d6000803e3d6000fd5b505050506040513d601f19601f820116820180604052508101906103eb9190610db2565b92915050565b6102198282610c51565b60007f00000000000000000000000000000000000000000000000000000000000000006001600160a01b0316836001600160a01b0316148061090a57507f00000000000000000000000000000000000000000000000000000000000000006001600160a01b0316836001600160a01b0316145b6109465760405162461bcd60e51b815260206004820152600d60248201526c34b73b30b634b2103a37b5b2b760991b60448201526064016103c1565b600082116109865760405162461bcd60e51b815260206004820152600d60248201526c0616d6f756e7420696e203d203609c1b60448201526064016103c1565b60007f00000000000000000000000000000000000000000000000000000000000000006001600160a01b0316846001600160a01b031614905060008060008084610a17577f00000000000000000000000000000000000000000000000000000000000000007f0000000000000000000000000000000000000000000000000000000000000000600254600154610a60565b7f00000000000000000000000000000000000000000000000000000000000000007f00000000000000000000000000000000000000000000000000000000000000006001546002545b6040516323b872dd60e01b8152336004820152306024820152604481018c9052939750919550935091506001600160a01b038516906323b872dd906064016020604051808303816000875af1158015610abd573d6000803e3d6000fd5b505050506040513d601f19601f82011682018060405250810190610ae19190610e2d565b5060006103e8610af3896103e5610de1565b610afd9190610df8565b9050610b098184610e4f565b610b138284610de1565b610b1d9190610df8565b60405163a9059cbb60e01b8152336004820152602481018290529097506001600160a01b0385169063a9059cbb906044016020604051808303816000875af1158015610b6d573d6000803e3d6000fd5b505050506040513d601f19601f82011682018060405250810190610b919190610e2d565b506040516370a0823160e01b8152306004820152610be2907f00000000000000000000000000000000000000000000000000000000000000006001600160a01b0316906370a08231906024016107be565b50505050505092915050565b6001600080828254610c009190610e4f565b9091555050565b6001600160a01b03821660009081526004602052604081208054839290610c2f908490610e4f565b925050819055508060036000828254610c489190610e4f565b90915550505050565b6001600160a01b03821660009081526004602052604081208054839290610c79908490610e1a565b925050819055508060036000828254610c489190610e1a565b60006003821115610cf35750806000610cac600283610df8565b610cb7906001610e4f565b90505b81811015610ced57905080600281610cd28186610df8565b610cdc9190610e4f565b610ce69190610df8565b9050610cba565b50919050565b8115610cfd575060015b919050565b600081831115610d125781610d14565b825b9392505050565b80356001600160a01b0381168114610cfd57600080fd5b60008060408385031215610d4557600080fd5b610d4e83610d1b565b946020939093013593505050565b600060208284031215610d6e57600080fd5b610d1482610d1b565b600060208284031215610d8957600080fd5b5035919050565b60008060408385031215610da357600080fd5b50508035926020909101359150565b600060208284031215610dc457600080fd5b5051919050565b634e487b7160e01b600052601160045260246000fd5b808202811582820484141761088757610887610dcb565b600082610e1557634e487b7160e01b600052601260045260246000fd5b500490565b8181038181111561088757610887610dcb565b600060208284031215610e3f57600080fd5b81518015158114610d1457600080fd5b8082018082111561088757610887610dcb56fea26469706673582212205268222dfb0ef840b50af41ac6c89c856120c8e7da230873eb9740dc477c0bd264736f6c63430008120033",
    "linkReferences": {}
  },
  "methodIdentifiers": {
    "addLiquidity(uint256,uint256)": "9cd441da",
    "balanceOf(address)": "70a08231",
    "burn(address,uint256)": "9dc29fac",
    "count()": "06661abd",
    "increment()": "d09de08a",
    "mint(address,uint256)": "40c10f19",
    "removeLiquidity(uint256)": "9c8f9f23",
    "reserve0()": "443cb4bc",
    "reserve1()": "5a76f25e",
    "swap(address,uint256)": "d004f0f7",
    "token0()": "0dfe1681",
    "token1()": "d21220a7",
    "totalSupply()": "18160ddd"
  },
  "id": 26
}