{
  "abi": [
    {
      "inputs": [
        {
          "internalType": "address",
          "name": "_token0",
          "type": "address"
        },
        {
          "internalType": "address",
          "name": "_token1",
          "type": "address"
        }
      ],
      "stateMutability": "nonpayable",
      "type": "constructor"
    },
    {
      "inputs": [
        {
          "internalType": "uint256",
          "name": "_amount0",
          "type": "uint256"
        },
        {
          "internalType": "uint256",
          "name": "_amount1",
          "type": "uint256"
        }
      ],
      "name": "addLiquidity",
      "outputs": [
        {
          "internalType": "uint256",
          "name": "shares",
          "type": "uint256"
        }
      ],
      "stateMutability": "nonpayable",
      "type": "function"
    },
    {
      "inputs": [
        {
          "internalType": "address",
          "name": "",
          "type": "address"
        }
      ],
      "name": "balanceOf",
      "outputs": [
        {
          "internalType": "uint256",
          "name": "",
          "type": "uint256"
        }
      ],
      "stateMutability": "view",
      "type": "function"
    },
    {
      "inputs": [],
      "name": "count",
      "outputs": [
        {
          "internalType": "uint256",
          "name": "",
          "type": "uint256"
        }
      ],
      "stateMutability": "view",
      "type": "function"
    },
    {
      "inputs": [],
      "name": "increment",
      "outputs": [],
      "stateMutability": "nonpayable",
      "type": "function"
    },
    {
      "inputs": [
        {
          "internalType": "uint256",
          "name": "_shares",
          "type": "uint256"
        }
      ],
      "name": "removeLiquidity",
      "outputs": [
        {
          "internalType": "uint256",
          "name": "amount0",
          "type": "uint256"
        },
        {
          "internalType": "uint256",
          "name": "amount1",
          "type": "uint256"
        }
      ],
      "stateMutability": "nonpayable",
      "type": "function"
    },
    {
      "inputs": [],
      "name": "reserve0",
      "outputs": [
        {
          "internalType": "uint256",
          "name": "",
          "type": "uint256"
        }
      ],
      "stateMutability": "view",
      "type": "function"
    },
    {
      "inputs": [],
      "name": "reserve1",
      "outputs": [
        {
          "internalType": "uint256",
          "name": "",
          "type": "uint256"
        }
      ],
      "stateMutability": "view",
      "type": "function"
    },
    {
      "inputs": [
        {
          "internalType": "address",
          "name": "_tokenIn",
          "type": "address"
        },
        {
          "internalType": "uint256",
          "name": "_amountIn",
          "type": "uint256"
        }
      ],
      "name": "swap",
      "outputs": [
        {
          "internalType": "uint256",
          "name": "amountOut",
          "type": "uint256"
        }
      ],
      "stateMutability": "nonpayable",
      "type": "function"
    },
    {
      "inputs": [],
      "name": "token0",
      "outputs": [
        {
          "internalType": "contract IERC20",
          "name": "",
          "type": "address"
        }
      ],
      "stateMutability": "view",
      "type": "function"
    },
    {
      "inputs": [],
      "name": "token1",
      "outputs": [
        {
          "internalType": "contract IERC20",
          "name": "",
          "type": "address"
        }
      ],
      "stateMutability": "view",
      "type": "function"
    },
    {
      "inputs": [],
      "name": "totalSupply",
      "outputs": [
        {
          "internalType": "uint256",
          "name": "",
          "type": "uint256"
        }
      ],
      "stateMutability": "view",
      "type": "function"
    }
  ],
  "bytecode": {
    "object": "0x60c060405234801561001057600080fd5b50604051610f5d380380610f5d83398101604081905261002f91610062565b6001600160a01b039182166080521660a052610095565b80516001600160a01b038116811461005d57600080fd5b919050565b6000806040838503121561007557600080fd5b61007e83610046565b915061008c60208401610046565b90509250929050565b60805160a051610e34610129600039600081816101a1015281816102750152818161044a01528181610584015281816107ba015281816108720152818161096801526109d601526000818160cf015281816101e7015281816103b8015281816104ec01528181610731015281816108370152818161092601528181610989015281816109b50152610b470152610e346000f3fe608060405234801561001057600080fd5b50600436106100a95760003560e01c806370a082311161007157806370a08231146101245780639c8f9f23146101445780639cd441da1461016c578063d004f0f71461017f578063d09de08a14610192578063d21220a71461019c57600080fd5b806306661abd146100ae5780630dfe1681146100ca57806318160ddd14610109578063443cb4bc146101125780635a76f25e1461011b575b600080fd5b6100b760005481565b6040519081526020015b60405180910390f35b6100f17f000000000000000000000000000000000000000000000000000000000000000081565b6040516001600160a01b0390911681526020016100c1565b6100b760035481565b6100b760015481565b6100b760025481565b6100b7610132366004610cce565b60046020526000908152604090205481565b610157610152366004610ce9565b6101c3565b604080519283526020830191909152016100c1565b6100b761017a366004610d02565b6104c7565b6100b761018d366004610d24565b610833565b61019a610b8a565b005b6100f17f000000000000000000000000000000000000000000000000000000000000000081565b6040516370a0823160e01b8152306004820152600090819081906001600160a01b037f000000000000000000000000000000000000000000000000000000000000000016906370a0823190602401602060405180830381865afa15801561022e573d6000803e3d6000fd5b505050506040513d601f19601f820116820180604052508101906102529190610d4e565b6040516370a0823160e01b81523060048201529091506000906001600160a01b037f000000000000000000000000000000000000000000000000000000000000000016906370a0823190602401602060405180830381865afa1580156102bc573d6000803e3d6000fd5b505050506040513d601f19601f820116820180604052508101906102e09190610d4e565b6003549091506102f08387610d7d565b6102fa9190610d94565b60035490945061030a8287610d7d565b6103149190610d94565b92506000841180156103265750600083115b6103705760405162461bcd60e51b81526020600482015260166024820152750616d6f756e7430206f7220616d6f756e7431203d20360541b60448201526064015b60405180910390fd5b61037a3386610ba3565b61039c6103878584610db6565b6103918584610db6565b600191909155600255565b60405163a9059cbb60e01b8152336004820152602481018590527f00000000000000000000000000000000000000000000000000000000000000006001600160a01b03169063a9059cbb906044016020604051808303816000875af1158015610409573d6000803e3d6000fd5b505050506040513d601f19601f8201168201806040525081019061042d9190610dc9565b5060405163a9059cbb60e01b8152336004820152602481018490527f00000000000000000000000000000000000000000000000000000000000000006001600160a01b03169063a9059cbb906044016020604051808303816000875af115801561049b573d6000803e3d6000fd5b505050506040513d601f19601f820116820180604052508101906104bf9190610dc9565b505050915091565b6040516323b872dd60e01b8152336004820152306024820152604481018390526000907f00000000000000000000000000000000000000000000000000000000000000006001600160a01b0316906323b872dd906064016020604051808303816000875af115801561053d573d6000803e3d6000fd5b505050506040513d601f19601f820116820180604052508101906105619190610dc9565b506040516323b872dd60e01b8152336004820152306024820152604481018390527f00000000000000000000000000000000000000000000000000000000000000006001600160a01b0316906323b872dd906064016020604051808303816000875af11580156105d5573d6000803e3d6000fd5b505050506040513d601f19601f820116820180604052508101906105f99190610dc9565b506000600154118061060d57506000600254115b1561066e57826002546106209190610d7d565b8260015461062e9190610d7d565b1461066e5760405162461bcd60e51b815260206004820152601060248201526f78202f207920213d206478202f20647960801b6044820152606401610367565b6003546000036106915761068a6106858385610d7d565b610bed565b90506106d1565b6106ce600154600354856106a59190610d7d565b6106af9190610d94565b6002546003546106bf9086610d7d565b6106c99190610d94565b610c5d565b90505b6000811161070e5760405162461bcd60e51b815260206004820152600a6024820152690736861726573203d20360b41b6044820152606401610367565b6107183382610c76565b6040516370a0823160e01b815230600482015261082d907f00000000000000000000000000000000000000000000000000000000000000006001600160a01b0316906370a08231906024015b602060405180830381865afa158015610781573d6000803e3d6000fd5b505050506040513d601f19601f820116820180604052508101906107a59190610d4e565b6040516370a0823160e01b81523060048201527f00000000000000000000000000000000000000000000000000000000000000006001600160a01b0316906370a0823190602401602060405180830381865afa158015610809573d6000803e3d6000fd5b505050506040513d601f19601f820116820180604052508101906103919190610d4e565b92915050565b60007f00000000000000000000000000000000000000000000000000000000000000006001600160a01b0316836001600160a01b031614806108a657507f00000000000000000000000000000000000000000000000000000000000000006001600160a01b0316836001600160a01b0316145b6108e25760405162461bcd60e51b815260206004820152600d60248201526c34b73b30b634b2103a37b5b2b760991b6044820152606401610367565b600082116109225760405162461bcd60e51b815260206004820152600d60248201526c0616d6f756e7420696e203d203609c1b6044820152606401610367565b60007f00000000000000000000000000000000000000000000000000000000000000006001600160a01b0316846001600160a01b0316149050600080600080846109b3577f00000000000000000000000000000000000000000000000000000000000000007f00000000000000000000000000000000000000000000000000000000000000006002546001546109fc565b7f00000000000000000000000000000000000000000000000000000000000000007f00000000000000000000000000000000000000000000000000000000000000006001546002545b6040516323b872dd60e01b8152336004820152306024820152604481018c9052939750919550935091506001600160a01b038516906323b872dd906064016020604051808303816000875af1158015610a59573d6000803e3d6000fd5b505050506040513d601f19601f82011682018060405250810190610a7d9190610dc9565b5060006103e8610a8f896103e5610d7d565b610a999190610d94565b9050610aa58184610deb565b610aaf8284610d7d565b610ab99190610d94565b60405163a9059cbb60e01b8152336004820152602481018290529097506001600160a01b0385169063a9059cbb906044016020604051808303816000875af1158015610b09573d6000803e3d6000fd5b505050506040513d601f19601f82011682018060405250810190610b2d9190610dc9565b506040516370a0823160e01b8152306004820152610b7e907f00000000000000000000000000000000000000000000000000000000000000006001600160a01b0316906370a0823190602401610764565b50505050505092915050565b6001600080828254610b9c9190610deb565b9091555050565b6001600160a01b03821660009081526004602052604081208054839290610bcb908490610db6565b925050819055508060036000828254610be49190610db6565b90915550505050565b60006003821115610c4e5750806000610c07600283610d94565b610c12906001610deb565b90505b81811015610c4857905080600281610c2d8186610d94565b610c379190610deb565b610c419190610d94565b9050610c15565b50919050565b8115610c58575060015b919050565b600081831115610c6d5781610c6f565b825b9392505050565b6001600160a01b03821660009081526004602052604081208054839290610c9e908490610deb565b925050819055508060036000828254610be49190610deb565b80356001600160a01b0381168114610c5857600080fd5b600060208284031215610ce057600080fd5b610c6f82610cb7565b600060208284031215610cfb57600080fd5b5035919050565b60008060408385031215610d1557600080fd5b50508035926020909101359150565b60008060408385031215610d3757600080fd5b610d4083610cb7565b946020939093013593505050565b600060208284031215610d6057600080fd5b5051919050565b634e487b7160e01b600052601160045260246000fd5b808202811582820484141761082d5761082d610d67565b600082610db157634e487b7160e01b600052601260045260246000fd5b500490565b8181038181111561082d5761082d610d67565b600060208284031215610ddb57600080fd5b81518015158114610c6f57600080fd5b8082018082111561082d5761082d610d6756fea2646970667358221220c7e42e7137fdd3ece540eb2e0e57b6e17af5cc377b3a8da6a64951d46b1f94ad64736f6c63430008120033",
    "linkReferences": {}
  },
  "methodIdentifiers": {
    "addLiquidity(uint256,uint256)": "9cd441da",
    "balanceOf(address)": "70a08231",
    "count()": "06661abd",
    "increment()": "d09de08a",
    "removeLiquidity(uint256)": "9c8f9f23",
    "reserve0()": "443cb4bc",
    "reserve1()": "5a76f25e",
    "swap(address,uint256)": "d004f0f7",
    "token0()": "0dfe1681",
    "token1()": "d21220a7",
    "totalSupply()": "18160ddd"
  },
  "id": 23
}