{
  "abi": [
    {
      "inputs": [
        {
          "internalType": "address",
          "name": "_buyer",
          "type": "address"
        },
        {
          "internalType": "address payable",
          "name": "_seller",
          "type": "address"
        }
      ],
      "stateMutability": "payable",
      "type": "constructor"
    },
    {
      "inputs": [],
      "name": "buyer",
      "outputs": [
        {
          "internalType": "address",
          "name": "",
          "type": "address"
        }
      ],
      "stateMutability": "view",
      "type": "function"
    },
    {
      "inputs": [
        {
          "internalType": "address",
          "name": "tokenAddress",
          "type": "address"
        },
        {
          "internalType": "uint256",
          "name": "_amount",
          "type": "uint256"
        }
      ],
      "name": "deposit",
      "outputs": [],
      "stateMutability": "payable",
      "type": "function"
    },
    {
      "inputs": [
        {
          "internalType": "address",
          "name": "tokenAddress",
          "type": "address"
        }
      ],
      "name": "getBalance",
      "outputs": [
        {
          "internalType": "uint256",
          "name": "",
          "type": "uint256"
        }
      ],
      "stateMutability": "view",
      "type": "function"
    },
    {
      "inputs": [],
      "name": "release",
      "outputs": [],
      "stateMutability": "nonpayable",
      "type": "function"
    },
    {
      "inputs": [],
      "name": "releaseTime",
      "outputs": [
        {
          "internalType": "uint256",
          "name": "",
          "type": "uint256"
        }
      ],
      "stateMutability": "view",
      "type": "function"
    },
    {
      "inputs": [],
      "name": "released",
      "outputs": [
        {
          "internalType": "bool",
          "name": "",
          "type": "bool"
        }
      ],
      "stateMutability": "view",
      "type": "function"
    },
    {
      "inputs": [],
      "name": "seller",
      "outputs": [
        {
          "internalType": "address payable",
          "name": "",
          "type": "address"
        }
      ],
      "stateMutability": "view",
      "type": "function"
    },
    {
      "stateMutability": "payable",
      "type": "receive"
    }
  ],
  "bytecode": {
    "object": "0x60e0604081905260016000556002805460ff191690556305f5e100600355610dee388190039081908339810160408190526100399161012d565b6001600160a01b0382166100945760405162461bcd60e51b815260206004820152601560248201527f496e76616c69642062757965722061646472657373000000000000000000000060448201526064015b60405180910390fd5b6001600160a01b0381166100ea5760405162461bcd60e51b815260206004820152601660248201527f496e76616c69642073656c6c6572206164647265737300000000000000000000604482015260640161008b565b6001600160a01b03808316608052811660a05261010a426203f480610167565b60c0525061018e9050565b6001600160a01b038116811461012a57600080fd5b50565b6000806040838503121561014057600080fd5b825161014b81610115565b602084015190925061015c81610115565b809150509250929050565b8082018082111561018857634e487b7160e01b600052601160045260246000fd5b92915050565b60805160a05160c051610c0f6101df600039600081816101fc01526105b3015260008181610125015281816105560152610694015260008181608401528181610189015261029c0152610c0f6000f3fe6080604052600436106100745760003560e01c806386d1a69f1161004e57806386d1a69f146101ab57806396132521146101c0578063b91d4001146101ea578063f8b2cb4f1461022c57600080fd5b806308551a531461011357806347e7ef24146101645780637150d8ae1461017757600080fd5b3661010e57336001600160a01b037f0000000000000000000000000000000000000000000000000000000000000000161461010c5760405162461bcd60e51b815260206004820152602d60248201527f4f6e6c79207468652062757965722063616e2073656e6420657468657220746f60448201526c081d1a194818dbdb9d1c9858dd609a1b60648201526084015b60405180910390fd5b005b600080fd5b34801561011f57600080fd5b506101477f000000000000000000000000000000000000000000000000000000000000000081565b6040516001600160a01b0390911681526020015b60405180910390f35b61010c610172366004610ac5565b61024c565b34801561018357600080fd5b506101477f000000000000000000000000000000000000000000000000000000000000000081565b3480156101b757600080fd5b5061010c610507565b3480156101cc57600080fd5b506002546101da9060ff1681565b604051901515815260200161015b565b3480156101f657600080fd5b5061021e7f000000000000000000000000000000000000000000000000000000000000000081565b60405190815260200161015b565b34801561023857600080fd5b5061021e610247366004610aef565b610759565b60005460011461028b5760405162461bcd60e51b815260206004820152600a6024820152695245454e5452414e435960b01b6044820152606401610103565b600260005581336001600160a01b037f000000000000000000000000000000000000000000000000000000000000000016146103095760405162461bcd60e51b815260206004820152601b60248201527f4f6e6c79207468652062757965722063616e206465706f7369742e00000000006044820152606401610103565b600082116103635760405162461bcd60e51b815260206004820152602160248201527f416d6f756e74206d7573742062652067726561746572207468616e207a65726f6044820152601760f91b6064820152608401610103565b6040516370a0823160e01b815233600482015282906001600160a01b038316906370a0823190602401602060405180830381865afa1580156103a9573d6000803e3d6000fd5b505050506040513d601f19601f820116820180604052508101906103cd9190610b0a565b10156104135760405162461bcd60e51b815260206004820152601560248201527424b739bab33334b1b4b2b73a103130b630b731b29760591b6044820152606401610103565b600154604051636eb1769f60e11b81523360048201523060248201526001600160a01b0383169063dd62ed3e90604401602060405180830381865afa158015610460573d6000803e3d6000fd5b505050506040513d601f19601f820116820180604052508101906104849190610b0a565b10156104d25760405162461bcd60e51b815260206004820152601860248201527f546f6b656e20616c6c6f77616e636520746f6f206c6f772e00000000000000006044820152606401610103565b6001546104ed906001600160a01b03831690339030906107cd565b6001546104fa908061082d565b6001908155600055505050565b6000546001146105465760405162461bcd60e51b815260206004820152600a6024820152695245454e5452414e435960b01b6044820152606401610103565b6002600055336001600160a01b037f000000000000000000000000000000000000000000000000000000000000000016146105b05760405162461bcd60e51b815260206004820152600a6024820152693737ba1039b2b63632b960b11b6044820152606401610103565b427f0000000000000000000000000000000000000000000000000000000000000000111561062e5760405162461bcd60e51b815260206004820152602560248201527f52656c656173652074696d6520686173206e6f7420796574206265656e2072656044820152641858da195960da1b6064820152608401610103565b60025460ff16156106815760405162461bcd60e51b815260206004820181905260248201527f46756e6473206861766520616c7265616479206265656e2072656c65617365646044820152606401610103565b6001546040516000916001600160a01b037f000000000000000000000000000000000000000000000000000000000000000016918381818185875af1925050503d80600081146106ed576040519150601f19603f3d011682016040523d82523d6000602084013e6106f2565b606091505b50509050806107435760405162461bcd60e51b815260206004820152601e60248201527f4661696c656420746f2073656e6420657468657220746f2073656c6c657200006044820152606401610103565b506002805460ff19166001908117909155600055565b6040516370a0823160e01b815230600482015260009082906001600160a01b038216906370a0823190602401602060405180830381865afa1580156107a2573d6000803e3d6000fd5b505050506040513d601f19601f820116820180604052508101906107c69190610b0a565b9392505050565b604080516001600160a01b0385811660248301528416604482015260648082018490528251808303909101815260849091019091526020810180516001600160e01b03166323b872dd60e01b179052610827908590610842565b50505050565b60006108398284610b23565b90505b92915050565b6000610897826040518060400160405280602081526020017f5361666545524332303a206c6f772d6c6576656c2063616c6c206661696c6564815250856001600160a01b03166109199092919063ffffffff16565b80519091501561091457808060200190518101906108b59190610b44565b6109145760405162461bcd60e51b815260206004820152602a60248201527f5361666545524332303a204552433230206f7065726174696f6e20646964206e6044820152691bdd081cdd58d8d9595960b21b6064820152608401610103565b505050565b60606109288484600085610930565b949350505050565b6060824710156109915760405162461bcd60e51b815260206004820152602660248201527f416464726573733a20696e73756666696369656e742062616c616e636520666f6044820152651c8818d85b1b60d21b6064820152608401610103565b600080866001600160a01b031685876040516109ad9190610b8a565b60006040518083038185875af1925050503d80600081146109ea576040519150601f19603f3d011682016040523d82523d6000602084013e6109ef565b606091505b5091509150610a0087838387610a0b565b979650505050505050565b60608315610a7a578251600003610a73576001600160a01b0385163b610a735760405162461bcd60e51b815260206004820152601d60248201527f416464726573733a2063616c6c20746f206e6f6e2d636f6e74726163740000006044820152606401610103565b5081610928565b6109288383815115610a8f5781518083602001fd5b8060405162461bcd60e51b81526004016101039190610ba6565b80356001600160a01b0381168114610ac057600080fd5b919050565b60008060408385031215610ad857600080fd5b610ae183610aa9565b946020939093013593505050565b600060208284031215610b0157600080fd5b61083982610aa9565b600060208284031215610b1c57600080fd5b5051919050565b8082018082111561083c57634e487b7160e01b600052601160045260246000fd5b600060208284031215610b5657600080fd5b815180151581146107c657600080fd5b60005b83811015610b81578181015183820152602001610b69565b50506000910152565b60008251610b9c818460208701610b66565b9190910192915050565b6020815260008251806020840152610bc5816040850160208701610b66565b601f01601f1916919091016040019291505056fea2646970667358221220082dea69ceddb600996e5a1f39508223ee176144c15b15aec8492eea9eb374cf64736f6c63430008110033",
    "linkReferences": {}
  },
  "methodIdentifiers": {
    "buyer()": "7150d8ae",
    "deposit(address,uint256)": "47e7ef24",
    "getBalance(address)": "f8b2cb4f",
    "release()": "86d1a69f",
    "releaseTime()": "b91d4001",
    "released()": "96132521",
    "seller()": "08551a53"
  },
  "id": 27
}